{
  "_format": "hh-sol-artifact-1",
  "contractName": "PokemonContract",
  "sourceName": "contracts/PokemonContract.sol",
  "abi": [
    {
      "inputs": [
        {
          "internalType": "string",
          "name": "_name",
          "type": "string"
        },
        {
          "internalType": "string",
          "name": "_symbol",
          "type": "string"
        }
      ],
      "stateMutability": "nonpayable",
      "type": "constructor"
    },
    {
      "inputs": [
        {
          "internalType": "address",
          "name": "sender",
          "type": "address"
        },
        {
          "internalType": "uint256",
          "name": "tokenId",
          "type": "uint256"
        },
        {
          "internalType": "address",
          "name": "owner",
          "type": "address"
        }
      ],
      "name": "ERC721IncorrectOwner",
      "type": "error"
    },
    {
      "inputs": [
        {
          "internalType": "address",
          "name": "operator",
          "type": "address"
        },
        {
          "internalType": "uint256",
          "name": "tokenId",
          "type": "uint256"
        }
      ],
      "name": "ERC721InsufficientApproval",
      "type": "error"
    },
    {
      "inputs": [
        {
          "internalType": "address",
          "name": "approver",
          "type": "address"
        }
      ],
      "name": "ERC721InvalidApprover",
      "type": "error"
    },
    {
      "inputs": [
        {
          "internalType": "address",
          "name": "operator",
          "type": "address"
        }
      ],
      "name": "ERC721InvalidOperator",
      "type": "error"
    },
    {
      "inputs": [
        {
          "internalType": "address",
          "name": "owner",
          "type": "address"
        }
      ],
      "name": "ERC721InvalidOwner",
      "type": "error"
    },
    {
      "inputs": [
        {
          "internalType": "address",
          "name": "receiver",
          "type": "address"
        }
      ],
      "name": "ERC721InvalidReceiver",
      "type": "error"
    },
    {
      "inputs": [
        {
          "internalType": "address",
          "name": "sender",
          "type": "address"
        }
      ],
      "name": "ERC721InvalidSender",
      "type": "error"
    },
    {
      "inputs": [
        {
          "internalType": "uint256",
          "name": "tokenId",
          "type": "uint256"
        }
      ],
      "name": "ERC721NonexistentToken",
      "type": "error"
    },
    {
      "inputs": [
        {
          "internalType": "address",
          "name": "owner",
          "type": "address"
        }
      ],
      "name": "OwnableInvalidOwner",
      "type": "error"
    },
    {
      "inputs": [
        {
          "internalType": "address",
          "name": "account",
          "type": "address"
        }
      ],
      "name": "OwnableUnauthorizedAccount",
      "type": "error"
    },
    {
      "anonymous": false,
      "inputs": [
        {
          "indexed": true,
          "internalType": "address",
          "name": "owner",
          "type": "address"
        },
        {
          "indexed": true,
          "internalType": "address",
          "name": "approved",
          "type": "address"
        },
        {
          "indexed": true,
          "internalType": "uint256",
          "name": "tokenId",
          "type": "uint256"
        }
      ],
      "name": "Approval",
      "type": "event"
    },
    {
      "anonymous": false,
      "inputs": [
        {
          "indexed": true,
          "internalType": "address",
          "name": "owner",
          "type": "address"
        },
        {
          "indexed": true,
          "internalType": "address",
          "name": "operator",
          "type": "address"
        },
        {
          "indexed": false,
          "internalType": "bool",
          "name": "approved",
          "type": "bool"
        }
      ],
      "name": "ApprovalForAll",
      "type": "event"
    },
    {
      "anonymous": false,
      "inputs": [
        {
          "indexed": true,
          "internalType": "address",
          "name": "previousOwner",
          "type": "address"
        },
        {
          "indexed": true,
          "internalType": "address",
          "name": "newOwner",
          "type": "address"
        }
      ],
      "name": "OwnershipTransferred",
      "type": "event"
    },
    {
      "anonymous": false,
      "inputs": [
        {
          "indexed": true,
          "internalType": "uint256",
          "name": "pokemonId",
          "type": "uint256"
        },
        {
          "indexed": false,
          "internalType": "string",
          "name": "CID",
          "type": "string"
        }
      ],
      "name": "PokemonMinted",
      "type": "event"
    },
    {
      "anonymous": false,
      "inputs": [
        {
          "indexed": true,
          "internalType": "address",
          "name": "from",
          "type": "address"
        },
        {
          "indexed": true,
          "internalType": "address",
          "name": "to",
          "type": "address"
        },
        {
          "indexed": true,
          "internalType": "uint256",
          "name": "tokenId",
          "type": "uint256"
        }
      ],
      "name": "Transfer",
      "type": "event"
    },
    {
      "inputs": [
        {
          "internalType": "address",
          "name": "to",
          "type": "address"
        },
        {
          "internalType": "uint256",
          "name": "tokenId",
          "type": "uint256"
        }
      ],
      "name": "approve",
      "outputs": [],
      "stateMutability": "nonpayable",
      "type": "function"
    },
    {
      "inputs": [
        {
          "internalType": "address",
          "name": "owner",
          "type": "address"
        }
      ],
      "name": "balanceOf",
      "outputs": [
        {
          "internalType": "uint256",
          "name": "",
          "type": "uint256"
        }
      ],
      "stateMutability": "view",
      "type": "function"
    },
    {
      "inputs": [
        {
          "internalType": "uint256",
          "name": "pokemonId",
          "type": "uint256"
        }
      ],
      "name": "exists",
      "outputs": [
        {
          "internalType": "bool",
          "name": "",
          "type": "bool"
        }
      ],
      "stateMutability": "view",
      "type": "function"
    },
    {
      "inputs": [],
      "name": "getAllMintedTokenIds",
      "outputs": [
        {
          "internalType": "uint256[]",
          "name": "",
          "type": "uint256[]"
        }
      ],
      "stateMutability": "view",
      "type": "function"
    },
    {
      "inputs": [
        {
          "internalType": "uint256",
          "name": "tokenId",
          "type": "uint256"
        }
      ],
      "name": "getApproved",
      "outputs": [
        {
          "internalType": "address",
          "name": "",
          "type": "address"
        }
      ],
      "stateMutability": "view",
      "type": "function"
    },
    {
      "inputs": [],
      "name": "getNextTokenId",
      "outputs": [
        {
          "internalType": "uint256",
          "name": "",
          "type": "uint256"
        }
      ],
      "stateMutability": "view",
      "type": "function"
    },
    {
      "inputs": [
        {
          "internalType": "address",
          "name": "owner",
          "type": "address"
        }
      ],
      "name": "getTokenBalance",
      "outputs": [
        {
          "internalType": "uint256",
          "name": "",
          "type": "uint256"
        }
      ],
      "stateMutability": "view",
      "type": "function"
    },
    {
      "inputs": [
        {
          "internalType": "uint256",
          "name": "pokemonId",
          "type": "uint256"
        }
      ],
      "name": "getTokenOwner",
      "outputs": [
        {
          "internalType": "address",
          "name": "",
          "type": "address"
        }
      ],
      "stateMutability": "view",
      "type": "function"
    },
    {
      "inputs": [
        {
          "internalType": "uint256",
          "name": "pokemonId",
          "type": "uint256"
        }
      ],
      "name": "getTokenURI",
      "outputs": [
        {
          "internalType": "string",
          "name": "",
          "type": "string"
        }
      ],
      "stateMutability": "view",
      "type": "function"
    },
    {
      "inputs": [
        {
          "internalType": "address",
          "name": "owner",
          "type": "address"
        },
        {
          "internalType": "address",
          "name": "operator",
          "type": "address"
        }
      ],
      "name": "isApprovedForAll",
      "outputs": [
        {
          "internalType": "bool",
          "name": "",
          "type": "bool"
        }
      ],
      "stateMutability": "view",
      "type": "function"
    },
    {
      "inputs": [
        {
          "internalType": "string",
          "name": "ipfsCID",
          "type": "string"
        }
      ],
      "name": "mintPokemon",
      "outputs": [],
      "stateMutability": "nonpayable",
      "type": "function"
    },
    {
      "inputs": [],
      "name": "name",
      "outputs": [
        {
          "internalType": "string",
          "name": "",
          "type": "string"
        }
      ],
      "stateMutability": "view",
      "type": "function"
    },
    {
      "inputs": [],
      "name": "owner",
      "outputs": [
        {
          "internalType": "address",
          "name": "",
          "type": "address"
        }
      ],
      "stateMutability": "view",
      "type": "function"
    },
    {
      "inputs": [
        {
          "internalType": "uint256",
          "name": "tokenId",
          "type": "uint256"
        }
      ],
      "name": "ownerOf",
      "outputs": [
        {
          "internalType": "address",
          "name": "",
          "type": "address"
        }
      ],
      "stateMutability": "view",
      "type": "function"
    },
    {
      "inputs": [],
      "name": "renounceOwnership",
      "outputs": [],
      "stateMutability": "nonpayable",
      "type": "function"
    },
    {
      "inputs": [
        {
          "internalType": "address",
          "name": "from",
          "type": "address"
        },
        {
          "internalType": "address",
          "name": "to",
          "type": "address"
        },
        {
          "internalType": "uint256",
          "name": "tokenId",
          "type": "uint256"
        }
      ],
      "name": "safeTransferFrom",
      "outputs": [],
      "stateMutability": "nonpayable",
      "type": "function"
    },
    {
      "inputs": [
        {
          "internalType": "address",
          "name": "from",
          "type": "address"
        },
        {
          "internalType": "address",
          "name": "to",
          "type": "address"
        },
        {
          "internalType": "uint256",
          "name": "tokenId",
          "type": "uint256"
        },
        {
          "internalType": "bytes",
          "name": "data",
          "type": "bytes"
        }
      ],
      "name": "safeTransferFrom",
      "outputs": [],
      "stateMutability": "nonpayable",
      "type": "function"
    },
    {
      "inputs": [
        {
          "internalType": "address",
          "name": "operator",
          "type": "address"
        },
        {
          "internalType": "bool",
          "name": "approved",
          "type": "bool"
        }
      ],
      "name": "setApprovalForAll",
      "outputs": [],
      "stateMutability": "nonpayable",
      "type": "function"
    },
    {
      "inputs": [
        {
          "internalType": "bytes4",
          "name": "interfaceId",
          "type": "bytes4"
        }
      ],
      "name": "supportsInterface",
      "outputs": [
        {
          "internalType": "bool",
          "name": "",
          "type": "bool"
        }
      ],
      "stateMutability": "view",
      "type": "function"
    },
    {
      "inputs": [],
      "name": "symbol",
      "outputs": [
        {
          "internalType": "string",
          "name": "",
          "type": "string"
        }
      ],
      "stateMutability": "view",
      "type": "function"
    },
    {
      "inputs": [
        {
          "internalType": "uint256",
          "name": "tokenId",
          "type": "uint256"
        }
      ],
      "name": "tokenURI",
      "outputs": [
        {
          "internalType": "string",
          "name": "",
          "type": "string"
        }
      ],
      "stateMutability": "view",
      "type": "function"
    },
    {
      "inputs": [
        {
          "internalType": "address",
          "name": "from",
          "type": "address"
        },
        {
          "internalType": "address",
          "name": "to",
          "type": "address"
        },
        {
          "internalType": "uint256",
          "name": "tokenId",
          "type": "uint256"
        }
      ],
      "name": "transferFrom",
      "outputs": [],
      "stateMutability": "nonpayable",
      "type": "function"
    },
    {
      "inputs": [
        {
          "internalType": "address",
          "name": "newOwner",
          "type": "address"
        }
      ],
      "name": "transferOwnership",
      "outputs": [],
      "stateMutability": "nonpayable",
      "type": "function"
    }
  ],
  "bytecode": "0x608060405234801561001057600080fd5b5060405161199b38038061199b83398101604081905261002f9161019d565b338282600061003e838261028f565b50600161004b828261028f565b5050506001600160a01b03811661007c57604051631e4fbdf760e01b81526000600482015260240160405180910390fd5b61008581610092565b505060006007555061034d565b600680546001600160a01b038381166001600160a01b0319831681179093556040519116919082907f8be0079c531659141344cd1fd0a4f28419497f9722a3daafe3b4186f6b6457e090600090a35050565b634e487b7160e01b600052604160045260246000fd5b600082601f83011261010b57600080fd5b81516001600160401b03811115610124576101246100e4565b604051601f8201601f19908116603f011681016001600160401b0381118282101715610152576101526100e4565b60405281815283820160200185101561016a57600080fd5b60005b828110156101895760208186018101518383018201520161016d565b506000918101602001919091529392505050565b600080604083850312156101b057600080fd5b82516001600160401b038111156101c657600080fd5b6101d2858286016100fa565b602085015190935090506001600160401b038111156101f057600080fd5b6101fc858286016100fa565b9150509250929050565b600181811c9082168061021a57607f821691505b60208210810361023a57634e487b7160e01b600052602260045260246000fd5b50919050565b601f82111561028a57806000526020600020601f840160051c810160208510156102675750805b601f840160051c820191505b818110156102875760008155600101610273565b50505b505050565b81516001600160401b038111156102a8576102a86100e4565b6102bc816102b68454610206565b84610240565b6020601f8211600181146102f057600083156102d85750848201515b600019600385901b1c1916600184901b178455610287565b600084815260208120601f198516915b828110156103205787850151825560209485019460019092019101610300565b508482101561033e5786840151600019600387901b60f8161c191681555b50505050600190811b01905550565b61163f8061035c6000396000f3fe608060405234801561001057600080fd5b506004361061014d5760003560e01c806370a08231116100c3578063b67354651161007c578063b6735465146102d4578063b88d4fde146102e9578063c87b56dd146102fc578063caa0f92a1461030f578063e985e9c514610317578063f2fde38b1461032a57600080fd5b806370a082311461027a578063715018a61461028d5780638da5cb5b1461029557806395d89b41146102a6578063a22cb465146102ae578063a5cd761f146102c157600080fd5b806323b872dd1161011557806323b872dd146101e25780633aecd0e3146101f55780633bb3a24d1461021657806342842e0e146102295780634f558e791461023c5780636352211e1461026757600080fd5b806301ffc9a71461015257806306fdde031461017a578063081812fc1461018f578063095ea7b3146101ba5780631afb8463146101cf575b600080fd5b610165610160366004611096565b61033d565b60405190151581526020015b60405180910390f35b61018261038f565b6040516101719190611103565b6101a261019d366004611116565b610421565b6040516001600160a01b039091168152602001610171565b6101cd6101c836600461114b565b61044a565b005b6101cd6101dd366004611205565b610459565b6101cd6101f036600461124e565b6104b8565b61020861020336600461128b565b610548565b604051908152602001610171565b610182610224366004611116565b610553565b6101cd61023736600461124e565b610652565b61016561024a366004611116565b6000908152600260205260409020546001600160a01b0316151590565b6101a2610275366004611116565b610672565b61020861028836600461128b565b61067d565b6101cd6106c5565b6006546001600160a01b03166101a2565b6101826106d9565b6101cd6102bc3660046112a6565b6106e8565b6101a26102cf366004611116565b6106f3565b6102dc61075a565b60405161017191906112e2565b6101cd6102f7366004611325565b6107df565b61018261030a366004611116565b6107f7565b600754610208565b6101656103253660046113a1565b61086c565b6101cd61033836600461128b565b61089a565b60006001600160e01b031982166380ac58cd60e01b148061036e57506001600160e01b03198216635b5e139f60e01b145b8061038957506301ffc9a760e01b6001600160e01b03198316145b92915050565b60606000805461039e906113d4565b80601f01602080910402602001604051908101604052809291908181526020018280546103ca906113d4565b80156104175780601f106103ec57610100808354040283529160200191610417565b820191906000526020600020905b8154815290600101906020018083116103fa57829003601f168201915b5050505050905090565b600061042c826108d8565b506000828152600460205260409020546001600160a01b0316610389565b610455828233610911565b5050565b61046161091e565b60075461046e338261094b565b6104788183610965565b807f602a5458c2c5253ed93167025712dae1514cebeb576d27b71d100ea119a8f726836040516104a89190611103565b60405180910390a261045561099c565b6001600160a01b0382166104e757604051633250574960e11b8152600060048201526024015b60405180910390fd5b60006104f48383336109b3565b9050836001600160a01b0316816001600160a01b031614610542576040516364283d7b60e01b81526001600160a01b03808616600483015260248201849052821660448201526064016104de565b50505050565b60006103898261067d565b6000818152600260205260409020546060906001600160a01b03166105b45760405162461bcd60e51b8152602060048201526017602482015276151bdad95b88125108191bd95cc81b9bdd08195e1a5cdd604a1b60448201526064016104de565b600082815260086020526040902080546105cd906113d4565b80601f01602080910402602001604051908101604052809291908181526020018280546105f9906113d4565b80156106465780601f1061061b57610100808354040283529160200191610646565b820191906000526020600020905b81548152906001019060200180831161062957829003601f168201915b50505050509050919050565b61066d838383604051806020016040528060008152506107df565b505050565b6000610389826108d8565b60006001600160a01b0382166106a9576040516322718ad960e21b8152600060048201526024016104de565b506001600160a01b031660009081526003602052604090205490565b6106cd61091e565b6106d76000610aac565b565b60606001805461039e906113d4565b610455338383610afe565b6000818152600260205260408120546001600160a01b03166107515760405162461bcd60e51b8152602060048201526017602482015276151bdad95b88125108191bd95cc81b9bdd08195e1a5cdd604a1b60448201526064016104de565b61038982610672565b60075460609060008167ffffffffffffffff81111561077b5761077b611175565b6040519080825280602002602001820160405280156107a4578160200160208202803683370190505b50905060005b828110156107d857808282815181106107c5576107c561140e565b60209081029190910101526001016107aa565b5092915050565b6107ea8484846104b8565b6105423385858585610b9d565b6060610802826108d8565b50600061081a60408051602081019091526000815290565b9050600081511161083a5760405180602001604052806000815250610865565b8061084484610cc8565b604051602001610855929190611424565b6040516020818303038152906040525b9392505050565b6001600160a01b03918216600090815260056020908152604080832093909416825291909152205460ff1690565b6108a261091e565b6001600160a01b0381166108cc57604051631e4fbdf760e01b8152600060048201526024016104de565b6108d581610aac565b50565b6000818152600260205260408120546001600160a01b03168061038957604051637e27328960e01b8152600481018490526024016104de565b61066d8383836001610d5b565b6006546001600160a01b031633146106d75760405163118cdaa760e01b81523360048201526024016104de565b610455828260405180602001604052806000815250610e61565b806040516020016109769190611453565b60408051601f1981840301815291815260008481526008602052209061066d90826114c9565b600780549060006109ac83611588565b9190505550565b6000828152600260205260408120546001600160a01b03908116908316156109e0576109e0818486610e79565b6001600160a01b03811615610a1e576109fd600085600080610d5b565b6001600160a01b038116600090815260036020526040902080546000190190555b6001600160a01b03851615610a4d576001600160a01b0385166000908152600360205260409020805460010190555b60008481526002602052604080822080546001600160a01b0319166001600160a01b0389811691821790925591518793918516917fddf252ad1be2c89b69c2b068fc378daa952ba7f163c4a11628f55a4df523b3ef91a4949350505050565b600680546001600160a01b038381166001600160a01b0319831681179093556040519116919082907f8be0079c531659141344cd1fd0a4f28419497f9722a3daafe3b4186f6b6457e090600090a35050565b6001600160a01b038216610b3057604051630b61174360e31b81526001600160a01b03831660048201526024016104de565b6001600160a01b03838116600081815260056020908152604080832094871680845294825291829020805460ff191686151590811790915591519182527f17307eab39ab6107e8899845ad3d59bd9653f200f220920489ca2b5937696c31910160405180910390a3505050565b6001600160a01b0383163b15610cc157604051630a85bd0160e11b81526001600160a01b0384169063150b7a0290610bdf9088908890879087906004016115af565b6020604051808303816000875af1925050508015610c1a575060408051601f3d908101601f19168201909252610c17918101906115ec565b60015b610c83573d808015610c48576040519150601f19603f3d011682016040523d82523d6000602084013e610c4d565b606091505b508051600003610c7b57604051633250574960e11b81526001600160a01b03851660048201526024016104de565b805181602001fd5b6001600160e01b03198116630a85bd0160e11b14610cbf57604051633250574960e11b81526001600160a01b03851660048201526024016104de565b505b5050505050565b60606000610cd583610edd565b600101905060008167ffffffffffffffff811115610cf557610cf5611175565b6040519080825280601f01601f191660200182016040528015610d1f576020820181803683370190505b5090508181016020015b600019016f181899199a1a9b1b9c1cb0b131b232b360811b600a86061a8153600a8504945084610d2957509392505050565b8080610d6f57506001600160a01b03821615155b15610e31576000610d7f846108d8565b90506001600160a01b03831615801590610dab5750826001600160a01b0316816001600160a01b031614155b8015610dbe5750610dbc818461086c565b155b15610de75760405163a9fbf51f60e01b81526001600160a01b03841660048201526024016104de565b8115610e2f5783856001600160a01b0316826001600160a01b03167f8c5be1e5ebec7d5bd14f71427d1e84f3dd0314c0f7b2291e5b200ac8c7c3b92560405160405180910390a45b505b5050600090815260046020526040902080546001600160a01b0319166001600160a01b0392909216919091179055565b610e6b8383610fb5565b61066d336000858585610b9d565b610e8483838361101a565b61066d576001600160a01b038316610eb257604051637e27328960e01b8152600481018290526024016104de565b60405163177e802f60e01b81526001600160a01b0383166004820152602481018290526044016104de565b60008072184f03e93ff9f4daa797ed6e38ed64bf6a1f0160401b8310610f1c5772184f03e93ff9f4daa797ed6e38ed64bf6a1f0160401b830492506040015b6d04ee2d6d415b85acef81000000008310610f48576d04ee2d6d415b85acef8100000000830492506020015b662386f26fc100008310610f6657662386f26fc10000830492506010015b6305f5e1008310610f7e576305f5e100830492506008015b6127108310610f9257612710830492506004015b60648310610fa4576064830492506002015b600a83106103895760010192915050565b6001600160a01b038216610fdf57604051633250574960e11b8152600060048201526024016104de565b6000610fed838360006109b3565b90506001600160a01b0381161561066d576040516339e3563760e11b8152600060048201526024016104de565b60006001600160a01b038316158015906110785750826001600160a01b0316846001600160a01b031614806110545750611054848461086c565b8061107857506000828152600460205260409020546001600160a01b038481169116145b949350505050565b6001600160e01b0319811681146108d557600080fd5b6000602082840312156110a857600080fd5b813561086581611080565b60005b838110156110ce5781810151838201526020016110b6565b50506000910152565b600081518084526110ef8160208601602086016110b3565b601f01601f19169290920160200192915050565b60208152600061086560208301846110d7565b60006020828403121561112857600080fd5b5035919050565b80356001600160a01b038116811461114657600080fd5b919050565b6000806040838503121561115e57600080fd5b6111678361112f565b946020939093013593505050565b634e487b7160e01b600052604160045260246000fd5b60008067ffffffffffffffff8411156111a6576111a6611175565b50604051601f19601f85018116603f0116810181811067ffffffffffffffff821117156111d5576111d5611175565b6040528381529050808284018510156111ed57600080fd5b83836020830137600060208583010152509392505050565b60006020828403121561121757600080fd5b813567ffffffffffffffff81111561122e57600080fd5b8201601f8101841361123f57600080fd5b6110788482356020840161118b565b60008060006060848603121561126357600080fd5b61126c8461112f565b925061127a6020850161112f565b929592945050506040919091013590565b60006020828403121561129d57600080fd5b6108658261112f565b600080604083850312156112b957600080fd5b6112c28361112f565b9150602083013580151581146112d757600080fd5b809150509250929050565b602080825282518282018190526000918401906040840190835b8181101561131a5783518352602093840193909201916001016112fc565b509095945050505050565b6000806000806080858703121561133b57600080fd5b6113448561112f565b93506113526020860161112f565b925060408501359150606085013567ffffffffffffffff81111561137557600080fd5b8501601f8101871361138657600080fd5b6113958782356020840161118b565b91505092959194509250565b600080604083850312156113b457600080fd5b6113bd8361112f565b91506113cb6020840161112f565b90509250929050565b600181811c908216806113e857607f821691505b60208210810361140857634e487b7160e01b600052602260045260246000fd5b50919050565b634e487b7160e01b600052603260045260246000fd5b600083516114368184602088016110b3565b83519083019061144a8183602088016110b3565b01949350505050565b66697066733a2f2f60c81b8152600082516114758160078501602087016110b3565b9190910160070192915050565b601f82111561066d57806000526020600020601f840160051c810160208510156114a95750805b601f840160051c820191505b81811015610cc157600081556001016114b5565b815167ffffffffffffffff8111156114e3576114e3611175565b6114f7816114f184546113d4565b84611482565b6020601f82116001811461152b57600083156115135750848201515b600019600385901b1c1916600184901b178455610cc1565b600084815260208120601f198516915b8281101561155b578785015182556020948501946001909201910161153b565b50848210156115795786840151600019600387901b60f8161c191681555b50505050600190811b01905550565b6000600182016115a857634e487b7160e01b600052601160045260246000fd5b5060010190565b6001600160a01b03858116825284166020820152604081018390526080606082018190526000906115e2908301846110d7565b9695505050505050565b6000602082840312156115fe57600080fd5b81516108658161108056fea2646970667358221220b00a6be4ffd5e5da6a64fcb5dbdebe6a097c13d4429a0c1e657197ab58f9f1a264736f6c634300081c0033",
  "linkReferences": {},
  "deployedLinkReferences": {}
}