{
  "_format": "hh-sol-artifact-1",
  "contractName": "TradingContract",
  "sourceName": "contracts/TradingContract.sol",
  "abi": [
    {
      "inputs": [
        {
          "internalType": "address",
          "name": "_pokemonContract",
          "type": "address"
        }
      ],
      "stateMutability": "nonpayable",
      "type": "constructor"
    },
    {
      "inputs": [],
      "name": "ReentrancyGuardReentrantCall",
      "type": "error"
    },
    {
      "anonymous": false,
      "inputs": [
        {
          "indexed": true,
          "internalType": "uint256",
          "name": "pokemonId",
          "type": "uint256"
        },
        {
          "indexed": false,
          "internalType": "uint256",
          "name": "bidAmount",
          "type": "uint256"
        },
        {
          "indexed": true,
          "internalType": "address",
          "name": "bidder",
          "type": "address"
        }
      ],
      "name": "BidPlaced",
      "type": "event"
    },
    {
      "anonymous": false,
      "inputs": [
        {
          "indexed": true,
          "internalType": "uint256",
          "name": "pokemonId",
          "type": "uint256"
        },
        {
          "indexed": false,
          "internalType": "uint256",
          "name": "price",
          "type": "uint256"
        },
        {
          "indexed": false,
          "internalType": "bool",
          "name": "isAuction",
          "type": "bool"
        }
      ],
      "name": "Listed",
      "type": "event"
    },
    {
      "anonymous": false,
      "inputs": [
        {
          "indexed": true,
          "internalType": "uint256",
          "name": "pokemonId",
          "type": "uint256"
        }
      ],
      "name": "ListingRemoved",
      "type": "event"
    },
    {
      "anonymous": false,
      "inputs": [
        {
          "indexed": true,
          "internalType": "uint256",
          "name": "pokemonId",
          "type": "uint256"
        },
        {
          "indexed": false,
          "internalType": "uint256",
          "name": "price",
          "type": "uint256"
        },
        {
          "indexed": true,
          "internalType": "address",
          "name": "buyer",
          "type": "address"
        }
      ],
      "name": "PokemonSold",
      "type": "event"
    },
    {
      "anonymous": false,
      "inputs": [
        {
          "indexed": false,
          "internalType": "address",
          "name": "finalizer",
          "type": "address"
        },
        {
          "indexed": false,
          "internalType": "uint256",
          "name": "rewardAmount",
          "type": "uint256"
        }
      ],
      "name": "RewardPaid",
      "type": "event"
    },
    {
      "anonymous": false,
      "inputs": [
        {
          "indexed": false,
          "internalType": "address",
          "name": "operator",
          "type": "address"
        },
        {
          "indexed": false,
          "internalType": "address",
          "name": "from",
          "type": "address"
        },
        {
          "indexed": false,
          "internalType": "uint256",
          "name": "tokenId",
          "type": "uint256"
        }
      ],
      "name": "TokenReceived",
      "type": "event"
    },
    {
      "anonymous": false,
      "inputs": [
        {
          "indexed": true,
          "internalType": "address",
          "name": "user",
          "type": "address"
        },
        {
          "indexed": false,
          "internalType": "uint256",
          "name": "amount",
          "type": "uint256"
        }
      ],
      "name": "Withdrawn",
      "type": "event"
    },
    {
      "inputs": [],
      "name": "FINALIZER_FEE",
      "outputs": [
        {
          "internalType": "uint256",
          "name": "",
          "type": "uint256"
        }
      ],
      "stateMutability": "view",
      "type": "function"
    },
    {
      "inputs": [
        {
          "internalType": "uint256",
          "name": "",
          "type": "uint256"
        }
      ],
      "name": "activeListingIds",
      "outputs": [
        {
          "internalType": "uint256",
          "name": "",
          "type": "uint256"
        }
      ],
      "stateMutability": "view",
      "type": "function"
    },
    {
      "inputs": [
        {
          "internalType": "uint256",
          "name": "",
          "type": "uint256"
        }
      ],
      "name": "auctionRewards",
      "outputs": [
        {
          "internalType": "uint256",
          "name": "",
          "type": "uint256"
        }
      ],
      "stateMutability": "view",
      "type": "function"
    },
    {
      "inputs": [
        {
          "internalType": "uint256",
          "name": "pokemonId",
          "type": "uint256"
        }
      ],
      "name": "buyPokemon",
      "outputs": [],
      "stateMutability": "payable",
      "type": "function"
    },
    {
      "inputs": [
        {
          "internalType": "uint256",
          "name": "pokemonId",
          "type": "uint256"
        }
      ],
      "name": "finalizeAuction",
      "outputs": [],
      "stateMutability": "nonpayable",
      "type": "function"
    },
    {
      "inputs": [],
      "name": "getAllListingsWithDetails",
      "outputs": [
        {
          "components": [
            {
              "internalType": "address",
              "name": "seller",
              "type": "address"
            },
            {
              "internalType": "uint256",
              "name": "pokemonId",
              "type": "uint256"
            },
            {
              "internalType": "uint256",
              "name": "price",
              "type": "uint256"
            },
            {
              "internalType": "bool",
              "name": "isAuction",
              "type": "bool"
            },
            {
              "internalType": "uint256",
              "name": "auctionEndTime",
              "type": "uint256"
            },
            {
              "internalType": "address",
              "name": "highestBidder",
              "type": "address"
            },
            {
              "internalType": "uint256",
              "name": "highestBid",
              "type": "uint256"
            }
          ],
          "internalType": "struct TradingContract.Listing[]",
          "name": "",
          "type": "tuple[]"
        }
      ],
      "stateMutability": "view",
      "type": "function"
    },
    {
      "inputs": [
        {
          "internalType": "uint256",
          "name": "pokemonId",
          "type": "uint256"
        }
      ],
      "name": "getAuctionState",
      "outputs": [
        {
          "internalType": "bool",
          "name": "isActive",
          "type": "bool"
        },
        {
          "internalType": "uint256",
          "name": "timeRemaining",
          "type": "uint256"
        },
        {
          "internalType": "address",
          "name": "highestBidder",
          "type": "address"
        },
        {
          "internalType": "uint256",
          "name": "highestBid",
          "type": "uint256"
        }
      ],
      "stateMutability": "view",
      "type": "function"
    },
    {
      "inputs": [
        {
          "internalType": "uint256",
          "name": "pokemonId",
          "type": "uint256"
        }
      ],
      "name": "getListing",
      "outputs": [
        {
          "components": [
            {
              "internalType": "address",
              "name": "seller",
              "type": "address"
            },
            {
              "internalType": "uint256",
              "name": "pokemonId",
              "type": "uint256"
            },
            {
              "internalType": "uint256",
              "name": "price",
              "type": "uint256"
            },
            {
              "internalType": "bool",
              "name": "isAuction",
              "type": "bool"
            },
            {
              "internalType": "uint256",
              "name": "auctionEndTime",
              "type": "uint256"
            },
            {
              "internalType": "address",
              "name": "highestBidder",
              "type": "address"
            },
            {
              "internalType": "uint256",
              "name": "highestBid",
              "type": "uint256"
            }
          ],
          "internalType": "struct TradingContract.Listing",
          "name": "",
          "type": "tuple"
        }
      ],
      "stateMutability": "view",
      "type": "function"
    },
    {
      "inputs": [
        {
          "internalType": "uint256",
          "name": "tokenId",
          "type": "uint256"
        }
      ],
      "name": "getSellerOf",
      "outputs": [
        {
          "internalType": "address",
          "name": "",
          "type": "address"
        }
      ],
      "stateMutability": "view",
      "type": "function"
    },
    {
      "inputs": [
        {
          "internalType": "address",
          "name": "user",
          "type": "address"
        }
      ],
      "name": "getUserListings",
      "outputs": [
        {
          "components": [
            {
              "internalType": "address",
              "name": "seller",
              "type": "address"
            },
            {
              "internalType": "uint256",
              "name": "pokemonId",
              "type": "uint256"
            },
            {
              "internalType": "uint256",
              "name": "price",
              "type": "uint256"
            },
            {
              "internalType": "bool",
              "name": "isAuction",
              "type": "bool"
            },
            {
              "internalType": "uint256",
              "name": "auctionEndTime",
              "type": "uint256"
            },
            {
              "internalType": "address",
              "name": "highestBidder",
              "type": "address"
            },
            {
              "internalType": "uint256",
              "name": "highestBid",
              "type": "uint256"
            }
          ],
          "internalType": "struct TradingContract.Listing[]",
          "name": "",
          "type": "tuple[]"
        }
      ],
      "stateMutability": "view",
      "type": "function"
    },
    {
      "inputs": [
        {
          "internalType": "uint256",
          "name": "pokemonId",
          "type": "uint256"
        }
      ],
      "name": "isListed",
      "outputs": [
        {
          "internalType": "bool",
          "name": "",
          "type": "bool"
        }
      ],
      "stateMutability": "view",
      "type": "function"
    },
    {
      "inputs": [
        {
          "internalType": "uint256",
          "name": "pokemonId",
          "type": "uint256"
        },
        {
          "internalType": "uint256",
          "name": "price",
          "type": "uint256"
        },
        {
          "internalType": "bool",
          "name": "isAuction",
          "type": "bool"
        },
        {
          "internalType": "uint256",
          "name": "auctionDuration",
          "type": "uint256"
        }
      ],
      "name": "listPokemon",
      "outputs": [],
      "stateMutability": "payable",
      "type": "function"
    },
    {
      "inputs": [
        {
          "internalType": "uint256",
          "name": "",
          "type": "uint256"
        }
      ],
      "name": "listings",
      "outputs": [
        {
          "internalType": "address",
          "name": "seller",
          "type": "address"
        },
        {
          "internalType": "uint256",
          "name": "pokemonId",
          "type": "uint256"
        },
        {
          "internalType": "uint256",
          "name": "price",
          "type": "uint256"
        },
        {
          "internalType": "bool",
          "name": "isAuction",
          "type": "bool"
        },
        {
          "internalType": "uint256",
          "name": "auctionEndTime",
          "type": "uint256"
        },
        {
          "internalType": "address",
          "name": "highestBidder",
          "type": "address"
        },
        {
          "internalType": "uint256",
          "name": "highestBid",
          "type": "uint256"
        }
      ],
      "stateMutability": "view",
      "type": "function"
    },
    {
      "inputs": [
        {
          "internalType": "address",
          "name": "operator",
          "type": "address"
        },
        {
          "internalType": "address",
          "name": "from",
          "type": "address"
        },
        {
          "internalType": "uint256",
          "name": "tokenId",
          "type": "uint256"
        },
        {
          "internalType": "bytes",
          "name": "data",
          "type": "bytes"
        }
      ],
      "name": "onERC721Received",
      "outputs": [
        {
          "internalType": "bytes4",
          "name": "",
          "type": "bytes4"
        }
      ],
      "stateMutability": "nonpayable",
      "type": "function"
    },
    {
      "inputs": [
        {
          "internalType": "address",
          "name": "",
          "type": "address"
        }
      ],
      "name": "pendingRefunds",
      "outputs": [
        {
          "internalType": "uint256",
          "name": "",
          "type": "uint256"
        }
      ],
      "stateMutability": "view",
      "type": "function"
    },
    {
      "inputs": [
        {
          "internalType": "uint256",
          "name": "pokemonId",
          "type": "uint256"
        }
      ],
      "name": "placeBid",
      "outputs": [],
      "stateMutability": "payable",
      "type": "function"
    },
    {
      "inputs": [],
      "name": "pokemonContract",
      "outputs": [
        {
          "internalType": "contract IERC721",
          "name": "",
          "type": "address"
        }
      ],
      "stateMutability": "view",
      "type": "function"
    },
    {
      "inputs": [
        {
          "internalType": "uint256",
          "name": "pokemonId",
          "type": "uint256"
        }
      ],
      "name": "removeListing",
      "outputs": [],
      "stateMutability": "nonpayable",
      "type": "function"
    },
    {
      "inputs": [],
      "name": "withdrawRefund",
      "outputs": [],
      "stateMutability": "nonpayable",
      "type": "function"
    }
  ],
  "bytecode": "0x6080604052348015600f57600080fd5b50604051611e77380380611e77833981016040819052602c916055565b6001600055600580546001600160a01b0319166001600160a01b03929092169190911790556083565b600060208284031215606657600080fd5b81516001600160a01b0381168114607c57600080fd5b9392505050565b611de5806100926000396000f3fe6080604052600436106101145760003560e01c806375fe0ba6116100a0578063de74e57b11610064578063de74e57b1461035c578063e3b6a1f61461040b578063e80838631461042b578063eb18a9d81461044b578063fcce48831461046b57600080fd5b806375fe0ba6146102b85780638f194b70146102d35780639979ef4514610309578063b613b1141461031c578063d75efef01461034957600080fd5b8063150b7a02116100e7578063150b7a02146101ca57806332a428f2146102035780634726f5ef1461023e578063479ad4c3146102605780636d50905f1461028057600080fd5b8063033e1a8714610119578063098810071461012e578063107a274a14610188578063110f8874146101b5575b600080fd5b61012c610127366004611a49565b6104b3565b005b34801561013a57600080fd5b5061014e610149366004611a8d565b610837565b60405161017f9493929190931515845260208401929092526001600160a01b03166040830152606082015260800190565b60405180910390f35b34801561019457600080fd5b506101a86101a3366004611a8d565b6108b8565b60405161017f9190611af7565b3480156101c157600080fd5b5061012c610935565b3480156101d657600080fd5b506101ea6101e5366004611b20565b610a0e565b6040516001600160e01b0319909116815260200161017f565b34801561020f57600080fd5b5061023061021e366004611a8d565b60046020526000908152604090205481565b60405190815260200161017f565b34801561024a57600080fd5b50610253610ac4565b60405161017f9190611bc1565b34801561026c57600080fd5b5061012c61027b366004611a8d565b610bef565b34801561028c57600080fd5b506005546102a0906001600160a01b031681565b6040516001600160a01b03909116815260200161017f565b3480156102c457600080fd5b506102306605543df729c00081565b3480156102df57600080fd5b506102a06102ee366004611a8d565b6000908152600160205260409020546001600160a01b031690565b61012c610317366004611a8d565b610e58565b34801561032857600080fd5b50610230610337366004611c0f565b60036020526000908152604090205481565b61012c610357366004611a8d565b6110fd565b34801561036857600080fd5b506103c7610377366004611a8d565b600160208190526000918252604090912080549181015460028201546003830154600484015460058501546006909501546001600160a01b03968716969495939460ff9093169391929091169087565b604080516001600160a01b03988916815260208101979097528601949094529115156060850152608084015290921660a082015260c081019190915260e00161017f565b34801561041757600080fd5b50610230610426366004611a8d565b6113ac565b34801561043757600080fd5b5061012c610446366004611a8d565b6113cd565b34801561045757600080fd5b50610253610466366004611c0f565b611725565b34801561047757600080fd5b506104a3610486366004611a8d565b6000908152600160205260409020546001600160a01b0316151590565b604051901515815260200161017f565b6005546040516331a9108f60e11b815260048101869052859133916001600160a01b0390911690636352211e90602401602060405180830381865afa158015610500573d6000803e3d6000fd5b505050506040513d601f19601f820116820180604052508101906105249190611c33565b6001600160a01b0316146105535760405162461bcd60e51b815260040161054a90611c50565b60405180910390fd5b600084116105a35760405162461bcd60e51b815260206004820152601e60248201527f5072696365206d757374206265206c6172676572207468616e207a65726f0000604482015260640161054a565b821561066e576605543df729c00034101561060b5760405162461bcd60e51b815260206004820152602260248201527f4d7573742073656e642045544820666f722066696e616c697a657220726577616044820152611c9960f21b606482015260840161054a565b6000821161066e5760405162461bcd60e51b815260206004820152602a60248201527f41756374696f6e206475726174696f6e206d7573742062652067726561746572604482015269207468616e207a65726f60b01b606482015260840161054a565b6040518060e00160405280336001600160a01b031681526020018681526020018581526020018415158152602001846106a85760006106b2565b6106b28442611ca9565b81526000602080830182905260409283018290528882526001808252838320855181546001600160a01b03199081166001600160a01b03928316178355938701518284015594860151600280830191909155606087015160038301805460ff19169115159190911790556080870151600483015560a087015160058301805490951696169590951790925560c09094015160069091015581549283018255527f405787fa12a823e0f2b7631cc41b3ba8828b3321ca811111fa75cd3aa3bb5ace01859055821561078e5760008581526004602052604090203490555b600554604051632142170760e11b81526001600160a01b03909116906342842e0e906107c290339030908a90600401611cbc565b600060405180830381600087803b1580156107dc57600080fd5b505af11580156107f0573d6000803e3d6000fd5b50506040805187815286151560208201528893507fec2862227fb8941dc82b951797d099c179ce97a30bf0174bf1697d1c01d8748b92500160405180910390a25050505050565b600081815260016020526040812060038101548291829182919060ff166108705760405162461bcd60e51b815260040161054a90611ce0565b80600401544210945084610885576000610895565b4281600401546108959190611d08565b600582015460069092015495979096506001600160a01b03909116949350915050565b6108c06119f8565b50600090815260016020818152604092839020835160e08101855281546001600160a01b0390811682529382015492810192909252600281015493820193909352600383015460ff161515606082015260048301546080820152600583015490911660a082015260069091015460c082015290565b61093d61191c565b33600090815260036020526040902054806109905760405162461bcd60e51b81526020600482015260136024820152724e6f20726566756e6420617661696c61626c6560681b604482015260640161054a565b336000818152600360205260408082208290555183156108fc0291849190818181858888f193505050501580156109cb573d6000803e3d6000fd5b5060405181815233907f7084f5476618d8e60b11ef0d7d3f06914655adb8793e28ff7f018d4c76d505d59060200160405180910390a250610a0c6001600055565b565b6005546000906001600160a01b03163314610a775760405162461bcd60e51b8152602060048201526024808201527f4f6e6c7920506f6b656d6f6e436f6e747261637420746f6b656e7320616363656044820152631c1d195960e21b606482015260840161054a565b7fa83965f0e7c5e026e57c9ba2dd91e4ebcca352f2d514498c1e9ed23ba6538600868686604051610aaa93929190611cbc565b60405180910390a150630a85bd0160e11b95945050505050565b60025460609060008167ffffffffffffffff811115610ae557610ae5611d1b565b604051908082528060200260200182016040528015610b1e57816020015b610b0b6119f8565b815260200190600190039081610b035790505b50905060005b82811015610be8576001600060028381548110610b4357610b43611d31565b600091825260208083209091015483528281019390935260409182019020815160e08101835281546001600160a01b039081168252600183015494820194909452600282015492810192909252600381015460ff161515606083015260048101546080830152600581015490921660a082015260069091015460c08201528251839083908110610bd557610bd5611d31565b6020908102919091010152600101610b24565b5092915050565b60008181526001602052604090205481906001600160a01b03163314610c275760405162461bcd60e51b815260040161054a90611c50565b610c2f61191c565b600082815260016020526040902080546001600160a01b0316610c8d5760405162461bcd60e51b8152602060048201526016602482015275131a5cdd1a5b99c8191bd95cc81b9bdd08195e1a5cdd60521b604482015260640161054a565b600381015460ff1615610cff5780600401544210610cff5760405162461bcd60e51b815260206004820152602960248201527f43616e6e6f742072656d6f7665206c697374696e6720616674657220617563746044820152681a5bdb88195b99195960ba1b606482015260840161054a565b600381015460ff168015610d1f575060058101546001600160a01b031615155b15610d5b57600681015460058201546001600160a01b031660009081526003602052604081208054909190610d55908490611ca9565b90915550505b6005548154604051632142170760e11b81526001600160a01b03928316926342842e0e92610d93923092909116908890600401611cbc565b600060405180830381600087803b158015610dad57600080fd5b505af1158015610dc1573d6000803e3d6000fd5b50506040518592507f51a9d0860a9b8ef69e7cd2cc93e90cff1b4cf1433a5cffbe7394d0aa6f994b329150600090a26000838152600160208190526040822080546001600160a01b031990811682559181018390556002810183905560038101805460ff191690556004810183905560058101805490921690915560060155610e4983611946565b50610e546001600055565b5050565b600081815260016020526040902060030154819060ff16610e8b5760405162461bcd60e51b815260040161054a90611ce0565b6000818152600160205260409020600401544210610edb5760405162461bcd60e51b815260206004820152600d60248201526c105d58dd1a5bdb88195b991959609a1b604482015260640161054a565b60008281526001602052604081206006810154909190606490610eff906005611d47565b610f099190611d5e565b90506000818360060154610f1d9190611ca9565b905080341015610f885760405162461bcd60e51b815260206004820152603060248201527f426964206d757374206265206174206c6561737420352520686967686572207460448201526f1a185b881c1c995d9a5bdd5cc8189a5960821b606482015260840161054a565b60058301546001600160a01b03163303610fef5760405162461bcd60e51b815260206004820152602260248201527f596f752061726520616c7265616479207468652068696768657374206269646460448201526132b960f11b606482015260840161054a565b82546001600160a01b031633036110575760405162461bcd60e51b815260206004820152602660248201527f53656c6c65722063616e6e6f7420626964206f6e207468656972206f776e206c604482015265697374696e6760d01b606482015260840161054a565b60058301546001600160a01b0316156110a157600683015460058401546001600160a01b03166000908152600360205260408120805490919061109b908490611ca9565b90915550505b34600684018190556005840180546001600160a01b031916339081179091556040519182529086907fbfbf2db1f7880e9487cbceeb181c4dce363d0ad1b6e73f5aa494ffb5d91914969060200160405180910390a35050505050565b61110561191c565b6000818152600160205260409020600381015460ff161561118e5760405162461bcd60e51b815260206004820152603760248201527f506f6b656d6f6e206973206c697374656420666f7220616e2061756374696f6e60448201527f2c206e6f7420666f722061206669786564207072696365000000000000000000606482015260840161054a565b80600201543410156111e25760405162461bcd60e51b815260206004820152601e60248201527f496e73756666696369656e742066756e647320746f2070757263686173650000604482015260640161054a565b80546001600160a01b03166112325760405162461bcd60e51b8152602060048201526016602482015275131a5cdd1a5b99c8191bd95cc81b9bdd08195e1a5cdd60521b604482015260640161054a565b600554604051632142170760e11b81526001600160a01b03909116906342842e0e9061126690309033908790600401611cbc565b600060405180830381600087803b15801561128057600080fd5b505af1158015611294573d6000803e3d6000fd5b505082546040516001600160a01b0390911692503480156108fc029250906000818181858888f193505050501580156112d1573d6000803e3d6000fd5b50336001600160a01b0316827fe89ee650d68ca71d565381bf8c4b50ef47da5452d8df24d949380bee65d33757836002015460405161131291815260200190565b60405180910390a36000828152600160208190526040822080546001600160a01b031990811682559181018390556002810183905560038101805460ff19169055600481018390556005810180549092169091556006015561137382611946565b60405182907f51a9d0860a9b8ef69e7cd2cc93e90cff1b4cf1433a5cffbe7394d0aa6f994b3290600090a2506113a96001600055565b50565b600281815481106113bc57600080fd5b600091825260209091200154905081565b6113d561191c565b6000818152600160205260409020600381015460ff166114075760405162461bcd60e51b815260040161054a90611ce0565b806004015442101561144f5760405162461bcd60e51b8152602060048201526011602482015270105d58dd1a5bdb881b9bdd08195b991959607a1b604482015260640161054a565b60008281526004602052604090205460058201546001600160a01b0316611523576005548254604051632142170760e11b81526001600160a01b03928316926342842e0e926114a8923092909116908890600401611cbc565b600060405180830381600087803b1580156114c257600080fd5b505af11580156114d6573d6000803e3d6000fd5b50508354604051600081526001600160a01b0390911692508591507fe89ee650d68ca71d565381bf8c4b50ef47da5452d8df24d949380bee65d337579060200160405180910390a361161a565b6005805490830154604051632142170760e11b81526001600160a01b03928316926342842e0e9261155e923092909116908890600401611cbc565b600060405180830381600087803b15801561157857600080fd5b505af115801561158c573d6000803e3d6000fd5b5050835460068501546040516001600160a01b03909216935080156108fc029250906000818181858888f193505050501580156115cd573d6000803e3d6000fd5b50600582015460068301546040519081526001600160a01b039091169084907fe89ee650d68ca71d565381bf8c4b50ef47da5452d8df24d949380bee65d337579060200160405180910390a35b801561168857604051339082156108fc029083906000818181858888f1935050505015801561164d573d6000803e3d6000fd5b5060408051338152602081018390527fe2403640ba68fed3a2f88b7557551d1993f84b99bb10ff833f0cf8db0c5e0486910160405180910390a15b6000838152600160208190526040822080546001600160a01b031990811682559181018390556002810183905560038101805460ff1916905560048101839055600581018054909216909155600601556116e183611946565b6000838152600460205260408082208290555184917f51a9d0860a9b8ef69e7cd2cc93e90cff1b4cf1433a5cffbe7394d0aa6f994b3291a250506113a96001600055565b60606000805b60025481101561179657836001600160a01b0316600160006002848154811061175657611756611d31565b600091825260208083209091015483528201929092526040019020546001600160a01b03160361178e578161178a81611d80565b9250505b60010161172b565b5060008167ffffffffffffffff8111156117b2576117b2611d1b565b6040519080825280602002602001820160405280156117eb57816020015b6117d86119f8565b8152602001906001900390816117d05790505b5090506000805b60025481101561191257856001600160a01b0316600160006002848154811061181d5761181d611d31565b600091825260208083209091015483528201929092526040019020546001600160a01b03160361190a57600160006002838154811061185e5761185e611d31565b600091825260208083209091015483528281019390935260409182019020815160e08101835281546001600160a01b039081168252600183015494820194909452600282015492810192909252600381015460ff161515606083015260048101546080830152600581015490921660a082015260069091015460c082015283518490849081106118f0576118f0611d31565b6020026020010181905250818061190690611d80565b9250505b6001016117f2565b5090949350505050565b60026000540361193f57604051633ee5aeb560e01b815260040160405180910390fd5b6002600055565b60025460005b818110156119f357826002828154811061196857611968611d31565b9060005260206000200154036119eb576002611985600184611d08565b8154811061199557611995611d31565b9060005260206000200154600282815481106119b3576119b3611d31565b60009182526020909120015560028054806119d0576119d0611d99565b60019003818190600052602060002001600090559055505050565b60010161194c565b505050565b6040518060e0016040528060006001600160a01b0316815260200160008152602001600081526020016000151581526020016000815260200160006001600160a01b03168152602001600081525090565b60008060008060808587031215611a5f57600080fd5b843593506020850135925060408501358015158114611a7d57600080fd5b9396929550929360600135925050565b600060208284031215611a9f57600080fd5b5035919050565b80516001600160a01b03908116835260208083015190840152604080830151908401526060808301511515908401526080808301519084015260a0828101519091169083015260c090810151910152565b60e08101611b058284611aa6565b92915050565b6001600160a01b03811681146113a957600080fd5b600080600080600060808688031215611b3857600080fd5b8535611b4381611b0b565b94506020860135611b5381611b0b565b935060408601359250606086013567ffffffffffffffff811115611b7657600080fd5b8601601f81018813611b8757600080fd5b803567ffffffffffffffff811115611b9e57600080fd5b886020828401011115611bb057600080fd5b959894975092955050506020019190565b602080825282518282018190526000918401906040840190835b81811015611c0457611bee838551611aa6565b6020939093019260e09290920191600101611bdb565b509095945050505050565b600060208284031215611c2157600080fd5b8135611c2c81611b0b565b9392505050565b600060208284031215611c4557600080fd5b8151611c2c81611b0b565b60208082526023908201527f596f75206d757374206f776e2074686520506f6b656d6f6e20746f206c697374604082015262081a5d60ea1b606082015260800190565b634e487b7160e01b600052601160045260246000fd5b80820180821115611b0557611b05611c93565b6001600160a01b039384168152919092166020820152604081019190915260600190565b6020808252600e908201526d2737ba1030b71030bab1ba34b7b760911b604082015260600190565b81810381811115611b0557611b05611c93565b634e487b7160e01b600052604160045260246000fd5b634e487b7160e01b600052603260045260246000fd5b8082028115828204841417611b0557611b05611c93565b600082611d7b57634e487b7160e01b600052601260045260246000fd5b500490565b600060018201611d9257611d92611c93565b5060010190565b634e487b7160e01b600052603160045260246000fdfea264697066735822122077e620b8ed189b5702509d59309fc62a4cdb05ab3c9f42462dc6ac0299efa1a564736f6c634300081c0033",
  "linkReferences": {},
  "deployedLinkReferences": {}
}