{
  "_format": "hh-sol-artifact-1",
  "contractName": "TradingContract",
  "sourceName": "contracts/TradingContract.sol",
  "abi": [
    {
      "inputs": [
        {
          "internalType": "address",
          "name": "_pokemonContract",
          "type": "address"
        }
      ],
      "stateMutability": "nonpayable",
      "type": "constructor"
    },
    {
      "inputs": [],
      "name": "EnforcedPause",
      "type": "error"
    },
    {
      "inputs": [],
      "name": "ExpectedPause",
      "type": "error"
    },
    {
      "inputs": [
        {
          "internalType": "address",
          "name": "owner",
          "type": "address"
        }
      ],
      "name": "OwnableInvalidOwner",
      "type": "error"
    },
    {
      "inputs": [
        {
          "internalType": "address",
          "name": "account",
          "type": "address"
        }
      ],
      "name": "OwnableUnauthorizedAccount",
      "type": "error"
    },
    {
      "inputs": [],
      "name": "ReentrancyGuardReentrantCall",
      "type": "error"
    },
    {
      "anonymous": false,
      "inputs": [
        {
          "indexed": true,
          "internalType": "uint256",
          "name": "pokemonId",
          "type": "uint256"
        },
        {
          "indexed": true,
          "internalType": "address",
          "name": "bidder",
          "type": "address"
        }
      ],
      "name": "BidCommitted",
      "type": "event"
    },
    {
      "anonymous": false,
      "inputs": [
        {
          "indexed": true,
          "internalType": "uint256",
          "name": "pokemonId",
          "type": "uint256"
        },
        {
          "indexed": true,
          "internalType": "address",
          "name": "bidder",
          "type": "address"
        },
        {
          "indexed": false,
          "internalType": "uint256",
          "name": "amount",
          "type": "uint256"
        }
      ],
      "name": "BidRevealed",
      "type": "event"
    },
    {
      "anonymous": false,
      "inputs": [
        {
          "indexed": true,
          "internalType": "uint256",
          "name": "pokemonId",
          "type": "uint256"
        },
        {
          "indexed": false,
          "internalType": "uint256",
          "name": "price",
          "type": "uint256"
        },
        {
          "indexed": false,
          "internalType": "bool",
          "name": "isAuction",
          "type": "bool"
        }
      ],
      "name": "Listed",
      "type": "event"
    },
    {
      "anonymous": false,
      "inputs": [
        {
          "indexed": true,
          "internalType": "uint256",
          "name": "pokemonId",
          "type": "uint256"
        }
      ],
      "name": "ListingRemoved",
      "type": "event"
    },
    {
      "anonymous": false,
      "inputs": [
        {
          "indexed": true,
          "internalType": "address",
          "name": "previousOwner",
          "type": "address"
        },
        {
          "indexed": true,
          "internalType": "address",
          "name": "newOwner",
          "type": "address"
        }
      ],
      "name": "OwnershipTransferred",
      "type": "event"
    },
    {
      "anonymous": false,
      "inputs": [
        {
          "indexed": false,
          "internalType": "address",
          "name": "account",
          "type": "address"
        }
      ],
      "name": "Paused",
      "type": "event"
    },
    {
      "anonymous": false,
      "inputs": [
        {
          "indexed": true,
          "internalType": "uint256",
          "name": "pokemonId",
          "type": "uint256"
        },
        {
          "indexed": false,
          "internalType": "uint256",
          "name": "price",
          "type": "uint256"
        },
        {
          "indexed": true,
          "internalType": "address",
          "name": "buyer",
          "type": "address"
        }
      ],
      "name": "PokemonSold",
      "type": "event"
    },
    {
      "anonymous": false,
      "inputs": [
        {
          "indexed": false,
          "internalType": "address",
          "name": "finalizer",
          "type": "address"
        },
        {
          "indexed": false,
          "internalType": "uint256",
          "name": "rewardAmount",
          "type": "uint256"
        }
      ],
      "name": "RewardPaid",
      "type": "event"
    },
    {
      "anonymous": false,
      "inputs": [
        {
          "indexed": false,
          "internalType": "address",
          "name": "operator",
          "type": "address"
        },
        {
          "indexed": false,
          "internalType": "address",
          "name": "from",
          "type": "address"
        },
        {
          "indexed": false,
          "internalType": "uint256",
          "name": "tokenId",
          "type": "uint256"
        }
      ],
      "name": "TokenReceived",
      "type": "event"
    },
    {
      "anonymous": false,
      "inputs": [
        {
          "indexed": false,
          "internalType": "address",
          "name": "account",
          "type": "address"
        }
      ],
      "name": "Unpaused",
      "type": "event"
    },
    {
      "anonymous": false,
      "inputs": [
        {
          "indexed": true,
          "internalType": "address",
          "name": "user",
          "type": "address"
        },
        {
          "indexed": false,
          "internalType": "uint256",
          "name": "amount",
          "type": "uint256"
        }
      ],
      "name": "Withdrawn",
      "type": "event"
    },
    {
      "inputs": [],
      "name": "FINALIZER_FEE",
      "outputs": [
        {
          "internalType": "uint256",
          "name": "",
          "type": "uint256"
        }
      ],
      "stateMutability": "view",
      "type": "function"
    },
    {
      "inputs": [],
      "name": "MAX_AUCTION_DURATION",
      "outputs": [
        {
          "internalType": "uint256",
          "name": "",
          "type": "uint256"
        }
      ],
      "stateMutability": "view",
      "type": "function"
    },
    {
      "inputs": [],
      "name": "MAX_BID",
      "outputs": [
        {
          "internalType": "uint256",
          "name": "",
          "type": "uint256"
        }
      ],
      "stateMutability": "view",
      "type": "function"
    },
    {
      "inputs": [],
      "name": "MAX_FINALIZE_DELAY",
      "outputs": [
        {
          "internalType": "uint256",
          "name": "",
          "type": "uint256"
        }
      ],
      "stateMutability": "view",
      "type": "function"
    },
    {
      "inputs": [],
      "name": "MAX_PRICE",
      "outputs": [
        {
          "internalType": "uint256",
          "name": "",
          "type": "uint256"
        }
      ],
      "stateMutability": "view",
      "type": "function"
    },
    {
      "inputs": [],
      "name": "MIN_AUCTION_DURATION",
      "outputs": [
        {
          "internalType": "uint256",
          "name": "",
          "type": "uint256"
        }
      ],
      "stateMutability": "view",
      "type": "function"
    },
    {
      "inputs": [],
      "name": "MIN_FINALIZE_DELAY",
      "outputs": [
        {
          "internalType": "uint256",
          "name": "",
          "type": "uint256"
        }
      ],
      "stateMutability": "view",
      "type": "function"
    },
    {
      "inputs": [],
      "name": "MIN_PRICE",
      "outputs": [
        {
          "internalType": "uint256",
          "name": "",
          "type": "uint256"
        }
      ],
      "stateMutability": "view",
      "type": "function"
    },
    {
      "inputs": [
        {
          "internalType": "uint256",
          "name": "",
          "type": "uint256"
        }
      ],
      "name": "activeListingIds",
      "outputs": [
        {
          "internalType": "uint256",
          "name": "",
          "type": "uint256"
        }
      ],
      "stateMutability": "view",
      "type": "function"
    },
    {
      "inputs": [
        {
          "internalType": "uint256",
          "name": "",
          "type": "uint256"
        }
      ],
      "name": "auctionRewards",
      "outputs": [
        {
          "internalType": "uint256",
          "name": "",
          "type": "uint256"
        }
      ],
      "stateMutability": "view",
      "type": "function"
    },
    {
      "inputs": [
        {
          "internalType": "uint256",
          "name": "pokemonId",
          "type": "uint256"
        }
      ],
      "name": "buyPokemon",
      "outputs": [],
      "stateMutability": "payable",
      "type": "function"
    },
    {
      "inputs": [
        {
          "internalType": "uint256",
          "name": "pokemonId",
          "type": "uint256"
        },
        {
          "internalType": "bytes32",
          "name": "commitHash",
          "type": "bytes32"
        }
      ],
      "name": "commitBid",
      "outputs": [],
      "stateMutability": "payable",
      "type": "function"
    },
    {
      "inputs": [
        {
          "internalType": "uint256",
          "name": "",
          "type": "uint256"
        },
        {
          "internalType": "address",
          "name": "",
          "type": "address"
        }
      ],
      "name": "commitments",
      "outputs": [
        {
          "internalType": "bytes32",
          "name": "commitHash",
          "type": "bytes32"
        },
        {
          "internalType": "uint256",
          "name": "deposit",
          "type": "uint256"
        },
        {
          "internalType": "bool",
          "name": "revealed",
          "type": "bool"
        },
        {
          "internalType": "uint256",
          "name": "revealedAmount",
          "type": "uint256"
        },
        {
          "internalType": "uint256",
          "name": "commitTime",
          "type": "uint256"
        }
      ],
      "stateMutability": "view",
      "type": "function"
    },
    {
      "inputs": [
        {
          "internalType": "uint256",
          "name": "",
          "type": "uint256"
        },
        {
          "internalType": "uint256",
          "name": "",
          "type": "uint256"
        }
      ],
      "name": "committedBidders",
      "outputs": [
        {
          "internalType": "address",
          "name": "",
          "type": "address"
        }
      ],
      "stateMutability": "view",
      "type": "function"
    },
    {
      "inputs": [
        {
          "internalType": "uint256",
          "name": "pokemonId",
          "type": "uint256"
        }
      ],
      "name": "finalizeAuction",
      "outputs": [],
      "stateMutability": "nonpayable",
      "type": "function"
    },
    {
      "inputs": [],
      "name": "getAllListingsWithDetails",
      "outputs": [
        {
          "components": [
            {
              "internalType": "address",
              "name": "seller",
              "type": "address"
            },
            {
              "internalType": "uint256",
              "name": "pokemonId",
              "type": "uint256"
            },
            {
              "internalType": "uint256",
              "name": "price",
              "type": "uint256"
            },
            {
              "internalType": "bool",
              "name": "isAuction",
              "type": "bool"
            },
            {
              "internalType": "uint256",
              "name": "auctionEndTime",
              "type": "uint256"
            },
            {
              "internalType": "uint256",
              "name": "finalizeDelay",
              "type": "uint256"
            }
          ],
          "internalType": "struct TradingContract.Listing[]",
          "name": "",
          "type": "tuple[]"
        }
      ],
      "stateMutability": "view",
      "type": "function"
    },
    {
      "inputs": [
        {
          "internalType": "uint256",
          "name": "pokemonId",
          "type": "uint256"
        }
      ],
      "name": "getBidderCount",
      "outputs": [
        {
          "internalType": "uint256",
          "name": "",
          "type": "uint256"
        }
      ],
      "stateMutability": "view",
      "type": "function"
    },
    {
      "inputs": [
        {
          "internalType": "uint256",
          "name": "pokemonId",
          "type": "uint256"
        },
        {
          "internalType": "address",
          "name": "bidder",
          "type": "address"
        }
      ],
      "name": "getCommitment",
      "outputs": [
        {
          "internalType": "bytes32",
          "name": "commitHash",
          "type": "bytes32"
        },
        {
          "internalType": "bool",
          "name": "revealed",
          "type": "bool"
        },
        {
          "internalType": "uint256",
          "name": "revealedAmount",
          "type": "uint256"
        }
      ],
      "stateMutability": "view",
      "type": "function"
    },
    {
      "inputs": [
        {
          "internalType": "uint256",
          "name": "pokemonId",
          "type": "uint256"
        }
      ],
      "name": "getListing",
      "outputs": [
        {
          "components": [
            {
              "internalType": "address",
              "name": "seller",
              "type": "address"
            },
            {
              "internalType": "uint256",
              "name": "pokemonId",
              "type": "uint256"
            },
            {
              "internalType": "uint256",
              "name": "price",
              "type": "uint256"
            },
            {
              "internalType": "bool",
              "name": "isAuction",
              "type": "bool"
            },
            {
              "internalType": "uint256",
              "name": "auctionEndTime",
              "type": "uint256"
            },
            {
              "internalType": "uint256",
              "name": "finalizeDelay",
              "type": "uint256"
            }
          ],
          "internalType": "struct TradingContract.Listing",
          "name": "",
          "type": "tuple"
        }
      ],
      "stateMutability": "view",
      "type": "function"
    },
    {
      "inputs": [
        {
          "internalType": "uint256",
          "name": "pokemonId",
          "type": "uint256"
        },
        {
          "internalType": "address",
          "name": "bidder",
          "type": "address"
        }
      ],
      "name": "getRevealed",
      "outputs": [
        {
          "internalType": "bool",
          "name": "revealed",
          "type": "bool"
        }
      ],
      "stateMutability": "view",
      "type": "function"
    },
    {
      "inputs": [
        {
          "internalType": "uint256",
          "name": "tokenId",
          "type": "uint256"
        }
      ],
      "name": "getSellerOf",
      "outputs": [
        {
          "internalType": "address",
          "name": "",
          "type": "address"
        }
      ],
      "stateMutability": "view",
      "type": "function"
    },
    {
      "inputs": [
        {
          "internalType": "address",
          "name": "user",
          "type": "address"
        }
      ],
      "name": "getUserListings",
      "outputs": [
        {
          "components": [
            {
              "internalType": "address",
              "name": "seller",
              "type": "address"
            },
            {
              "internalType": "uint256",
              "name": "pokemonId",
              "type": "uint256"
            },
            {
              "internalType": "uint256",
              "name": "price",
              "type": "uint256"
            },
            {
              "internalType": "bool",
              "name": "isAuction",
              "type": "bool"
            },
            {
              "internalType": "uint256",
              "name": "auctionEndTime",
              "type": "uint256"
            },
            {
              "internalType": "uint256",
              "name": "finalizeDelay",
              "type": "uint256"
            }
          ],
          "internalType": "struct TradingContract.Listing[]",
          "name": "",
          "type": "tuple[]"
        }
      ],
      "stateMutability": "view",
      "type": "function"
    },
    {
      "inputs": [
        {
          "internalType": "uint256",
          "name": "pokemonId",
          "type": "uint256"
        },
        {
          "internalType": "address",
          "name": "bidder",
          "type": "address"
        }
      ],
      "name": "hasCommitted",
      "outputs": [
        {
          "internalType": "bool",
          "name": "",
          "type": "bool"
        }
      ],
      "stateMutability": "view",
      "type": "function"
    },
    {
      "inputs": [
        {
          "internalType": "uint256",
          "name": "pokemonId",
          "type": "uint256"
        }
      ],
      "name": "isListed",
      "outputs": [
        {
          "internalType": "bool",
          "name": "",
          "type": "bool"
        }
      ],
      "stateMutability": "view",
      "type": "function"
    },
    {
      "inputs": [
        {
          "internalType": "uint256",
          "name": "pokemonId",
          "type": "uint256"
        },
        {
          "internalType": "uint256",
          "name": "price",
          "type": "uint256"
        },
        {
          "internalType": "bool",
          "name": "isAuction",
          "type": "bool"
        },
        {
          "internalType": "uint256",
          "name": "auctionDuration",
          "type": "uint256"
        },
        {
          "internalType": "uint256",
          "name": "_finalizeDelay",
          "type": "uint256"
        }
      ],
      "name": "listPokemon",
      "outputs": [],
      "stateMutability": "payable",
      "type": "function"
    },
    {
      "inputs": [
        {
          "internalType": "uint256",
          "name": "",
          "type": "uint256"
        }
      ],
      "name": "listings",
      "outputs": [
        {
          "internalType": "address",
          "name": "seller",
          "type": "address"
        },
        {
          "internalType": "uint256",
          "name": "pokemonId",
          "type": "uint256"
        },
        {
          "internalType": "uint256",
          "name": "price",
          "type": "uint256"
        },
        {
          "internalType": "bool",
          "name": "isAuction",
          "type": "bool"
        },
        {
          "internalType": "uint256",
          "name": "auctionEndTime",
          "type": "uint256"
        },
        {
          "internalType": "uint256",
          "name": "finalizeDelay",
          "type": "uint256"
        }
      ],
      "stateMutability": "view",
      "type": "function"
    },
    {
      "inputs": [
        {
          "internalType": "address",
          "name": "operator",
          "type": "address"
        },
        {
          "internalType": "address",
          "name": "from",
          "type": "address"
        },
        {
          "internalType": "uint256",
          "name": "tokenId",
          "type": "uint256"
        },
        {
          "internalType": "bytes",
          "name": "data",
          "type": "bytes"
        }
      ],
      "name": "onERC721Received",
      "outputs": [
        {
          "internalType": "bytes4",
          "name": "",
          "type": "bytes4"
        }
      ],
      "stateMutability": "nonpayable",
      "type": "function"
    },
    {
      "inputs": [],
      "name": "owner",
      "outputs": [
        {
          "internalType": "address",
          "name": "",
          "type": "address"
        }
      ],
      "stateMutability": "view",
      "type": "function"
    },
    {
      "inputs": [],
      "name": "pause",
      "outputs": [],
      "stateMutability": "nonpayable",
      "type": "function"
    },
    {
      "inputs": [],
      "name": "paused",
      "outputs": [
        {
          "internalType": "bool",
          "name": "",
          "type": "bool"
        }
      ],
      "stateMutability": "view",
      "type": "function"
    },
    {
      "inputs": [
        {
          "internalType": "address",
          "name": "",
          "type": "address"
        }
      ],
      "name": "pendingRefunds",
      "outputs": [
        {
          "internalType": "uint256",
          "name": "",
          "type": "uint256"
        }
      ],
      "stateMutability": "view",
      "type": "function"
    },
    {
      "inputs": [],
      "name": "pokemonContract",
      "outputs": [
        {
          "internalType": "contract IERC721",
          "name": "",
          "type": "address"
        }
      ],
      "stateMutability": "view",
      "type": "function"
    },
    {
      "inputs": [
        {
          "internalType": "uint256",
          "name": "pokemonId",
          "type": "uint256"
        }
      ],
      "name": "removeListing",
      "outputs": [],
      "stateMutability": "nonpayable",
      "type": "function"
    },
    {
      "inputs": [],
      "name": "renounceOwnership",
      "outputs": [],
      "stateMutability": "nonpayable",
      "type": "function"
    },
    {
      "inputs": [
        {
          "internalType": "uint256",
          "name": "pokemonId",
          "type": "uint256"
        },
        {
          "internalType": "uint256",
          "name": "amount",
          "type": "uint256"
        },
        {
          "internalType": "string",
          "name": "salt",
          "type": "string"
        }
      ],
      "name": "revealBid",
      "outputs": [],
      "stateMutability": "nonpayable",
      "type": "function"
    },
    {
      "inputs": [
        {
          "internalType": "address",
          "name": "newOwner",
          "type": "address"
        }
      ],
      "name": "transferOwnership",
      "outputs": [],
      "stateMutability": "nonpayable",
      "type": "function"
    },
    {
      "inputs": [],
      "name": "unpause",
      "outputs": [],
      "stateMutability": "nonpayable",
      "type": "function"
    },
    {
      "inputs": [],
      "name": "withdrawRefund",
      "outputs": [],
      "stateMutability": "nonpayable",
      "type": "function"
    }
  ],
  "bytecode": "0x608060405234801561001057600080fd5b50604051612b5e380380612b5e83398101604081905261002f916100db565b6001600055338061005a57604051631e4fbdf760e01b81526000600482015260240160405180910390fd5b61006381610089565b50600280546001600160a01b0319166001600160a01b039290921691909117905561010b565b600180546001600160a01b038381166001600160a01b0319831681179093556040519116919082907f8be0079c531659141344cd1fd0a4f28419497f9722a3daafe3b4186f6b6457e090600090a35050565b6000602082840312156100ed57600080fd5b81516001600160a01b038116811461010457600080fd5b9392505050565b612a448061011a6000396000f3fe6080604052600436106102255760003560e01c806389fb268211610123578063c2f50a7a116100ab578063e80838631161006f578063e80838631461074d578063e90d4c061461076d578063eb18a9d8146107f5578063f2fde38b14610815578063fcce48831461083557600080fd5b8063c2f50a7a14610659578063d6033f891461066e578063d75efef014610681578063de74e57b14610694578063e3b6a1f61461072d57600080fd5b8063a1452828116100f2578063a14528281461058c578063a489d5d7146105ac578063a99ef9f5146105cc578063ad9f20a614610611578063b613b1141461062c57600080fd5b806389fb2682146104b45780638da5cb5b146105255780638f194b70146105435780639468cb611461057957600080fd5b80634726f5ef116101b15780635c975abb116101755780635c975abb146104185780636d50905f14610437578063715018a61461046f57806375fe0ba6146104845780638456cb591461049f57600080fd5b80634726f5ef1461035c578063479ad4c31461037e57806348a822a31461039e5780634d91e1f7146103ce57806358fff20e146103eb57600080fd5b8063150b7a02116101f8578063150b7a02146102b357806327714f2a146102ec57806332a428f2146103035780633f4ba83a146103305780633fb351781461034557600080fd5b80630128fd171461022a57806301c11d9614610252578063107a274a1461026f578063110f88741461029c575b600080fd5b34801561023657600080fd5b5061023f607881565b6040519081526020015b60405180910390f35b34801561025e57600080fd5b5061023f68056bc75e2d6310000081565b34801561027b57600080fd5b5061028f61028a366004612566565b61086d565b60405161024991906125c1565b3480156102a857600080fd5b506102b16108db565b005b3480156102bf57600080fd5b506102d36102ce3660046125e4565b6109c1565b6040516001600160e01b03199091168152602001610249565b3480156102f857600080fd5b5061023f6201518081565b34801561030f57600080fd5b5061023f61031e366004612566565b60086020526000908152604090205481565b34801561033c57600080fd5b506102b1610a77565b34801561035157600080fd5b5061023f62093a8081565b34801561036857600080fd5b50610371610a87565b6040516102499190612685565b34801561038a57600080fd5b506102b1610399366004612566565b610ba1565b3480156103aa57600080fd5b506103be6103b93660046126d3565b610df5565b6040519015158152602001610249565b3480156103da57600080fd5b5061023f680ad78ebc5ac620000081565b3480156103f757600080fd5b5061023f610406366004612566565b60009081526006602052604090205490565b34801561042457600080fd5b50600154600160a01b900460ff166103be565b34801561044357600080fd5b50600254610457906001600160a01b031681565b6040516001600160a01b039091168152602001610249565b34801561047b57600080fd5b506102b1610e25565b34801561049057600080fd5b5061023f6605543df729c00081565b3480156104ab57600080fd5b506102b1610e37565b3480156104c057600080fd5b5061050a6104cf3660046126d3565b60009182526005602090815260408084206001600160a01b03939093168452919052902080546002820154600390920154909260ff90921691565b60408051938452911515602084015290820152606001610249565b34801561053157600080fd5b506001546001600160a01b0316610457565b34801561054f57600080fd5b5061045761055e366004612566565b6000908152600460205260409020546001600160a01b031690565b6102b1610587366004612703565b610e47565b34801561059857600080fd5b506104576105a7366004612703565b611158565b3480156105b857600080fd5b506102b16105c736600461273b565b611190565b3480156105d857600080fd5b506103be6105e73660046126d3565b60009182526005602090815260408084206001600160a01b03939093168452919052902054151590565b34801561061d57600080fd5b5061023f66038d7ea4c6800081565b34801561063857600080fd5b5061023f610647366004612807565b60076020526000908152604090205481565b34801561066557600080fd5b5061023f606481565b6102b161067c36600461282b565b611373565b6102b161068f366004612566565b611740565b3480156106a057600080fd5b506106f46106af366004612566565b60046020819052600091825260409091208054600182015460028301546003840154948401546005909401546001600160a01b03909316949193909260ff9092169186565b604080516001600160a01b03909716875260208701959095529385019290925215156060840152608083015260a082015260c001610249565b34801561073957600080fd5b5061023f610748366004612566565b611a1b565b34801561075957600080fd5b506102b1610768366004612566565b611a3c565b34801561077957600080fd5b506107c66107883660046126d3565b6005602090815260009283526040808420909152908252902080546001820154600283015460038401546004909401549293919260ff909116919085565b604051610249959493929190948552602085019390935290151560408401526060830152608082015260a00190565b34801561080157600080fd5b50610371610810366004612807565b61208a565b34801561082157600080fd5b506102b1610830366004612807565b612270565b34801561084157600080fd5b506103be610850366004612566565b6000908152600460205260409020546001600160a01b0316151590565b6108756124f3565b50600090815260046020818152604092839020835160c08101855281546001600160a01b03168152600182015492810192909252600281015493820193909352600383015460ff161515606082015290820154608082015260059091015460a082015290565b6108e36122ab565b6108eb6122d5565b33600090815260076020526040902054806109435760405162461bcd60e51b81526020600482015260136024820152724e6f20726566756e6420617661696c61626c6560681b60448201526064015b60405180910390fd5b336000818152600760205260408082208290555183156108fc0291849190818181858888f1935050505015801561097e573d6000803e3d6000fd5b5060405181815233907f7084f5476618d8e60b11ef0d7d3f06914655adb8793e28ff7f018d4c76d505d59060200160405180910390a2506109bf6001600055565b565b6002546000906001600160a01b03163314610a2a5760405162461bcd60e51b8152602060048201526024808201527f4f6e6c7920506f6b656d6f6e436f6e747261637420746f6b656e7320616363656044820152631c1d195960e21b606482015260840161093a565b7fa83965f0e7c5e026e57c9ba2dd91e4ebcca352f2d514498c1e9ed23ba6538600868686604051610a5d93929190612879565b60405180910390a150630a85bd0160e11b95945050505050565b610a7f612300565b6109bf61232d565b60035460609060008167ffffffffffffffff811115610aa857610aa8612725565b604051908082528060200260200182016040528015610ae157816020015b610ace6124f3565b815260200190600190039081610ac65790505b50905060005b82811015610b9a576004600060038381548110610b0657610b0661289d565b600091825260208083209091015483528281019390935260409182019020815160c08101835281546001600160a01b03168152600182015493810193909352600281015491830191909152600381015460ff1615156060830152600481015460808301526005015460a08201528251839083908110610b8757610b8761289d565b6020908102919091010152600101610ae7565b5092915050565b60008181526004602052604090205481906001600160a01b03163314610bd95760405162461bcd60e51b815260040161093a906128b3565b610be16122ab565b610be96122d5565b600082815260046020526040902080546001600160a01b0316610c1e5760405162461bcd60e51b815260040161093a906128f6565b600381015460ff1615610d065780600401544210610c905760405162461bcd60e51b815260206004820152602960248201527f43616e6e6f742072656d6f7665206c697374696e6720616674657220617563746044820152681a5bdb88195b99195960ba1b606482015260840161093a565b60008381526006602052604090205415610d065760405162461bcd60e51b815260206004820152603160248201527f43616e6e6f742072656d6f7665206c697374696e67206166746572206120626960448201527019081a185cc81899595b881c1b1858d959607a1b606482015260840161093a565b6002548154604051632142170760e11b81526001600160a01b03928316926342842e0e92610d3e923092909116908890600401612879565b600060405180830381600087803b158015610d5857600080fd5b505af1158015610d6c573d6000803e3d6000fd5b50506040518592507f51a9d0860a9b8ef69e7cd2cc93e90cff1b4cf1433a5cffbe7394d0aa6f994b329150600090a26000838152600460208190526040822080546001600160a01b0319168155600181018390556002810183905560038101805460ff1916905590810182905560050155610de683612382565b50610df16001600055565b5050565b60008281526005602090815260408083206001600160a01b038516845290915290206002015460ff165b92915050565b610e2d612300565b6109bf6000612434565b610e3f612300565b6109bf612486565b60008281526004602052604090205482906001600160a01b0316610e7d5760405162461bcd60e51b815260040161093a906128f6565b60008181526004602052604090206003015460ff16610eae5760405162461bcd60e51b815260040161093a90612926565b600081815260046020819052604090912001544210610eff5760405162461bcd60e51b815260206004820152600d60248201526c105d58dd1a5bdb88195b991959609a1b604482015260640161093a565b610f076122d5565b600083815260046020908152604080832060058352818420338552909252909120805415610f6b5760405162461bcd60e51b8152602060048201526011602482015270105b1c9958591e4818dbdb5b5a5d1d1959607a1b604482015260640161093a565b8160020154341015610fca5760405162461bcd60e51b815260206004820152602260248201527f426964206d757374206265206174206c65617374206d696e696d756d20707269604482015261636560f01b606482015260840161093a565b680ad78ebc5ac62000003411156110235760405162461bcd60e51b815260206004820152601b60248201527f4269642065786365656473206d6178696d756d20616c6c6f7765640000000000604482015260640161093a565b81546001600160a01b0316330361108b5760405162461bcd60e51b815260206004820152602660248201527f53656c6c65722063616e6e6f7420626964206f6e207468656972206f776e206c604482015265697374696e6760d01b606482015260840161093a565b6040805160a08101825285815234602080830191825260008385018181526060850182815242608087019081528c84526005855287842033808652908652888520975188559551600180890191909155925160028801805460ff191691151591909117905590516003870155516004909501949094558981526006825284812080549485018155815290812090920180546001600160a01b03191682179055915187917f0934ea4de468dcd0d9a335c5f97aa77955310c29631c93fbd01d95a00242ec4191a35050505050565b6006602052816000526040600020818154811061117457600080fd5b6000918252602090912001546001600160a01b03169150829050565b6000838152600460205260409020600381015460ff166111c25760405162461bcd60e51b815260040161093a90612926565b806004015442101561120a5760405162461bcd60e51b8152602060048201526011602482015270105d58dd1a5bdb881b9bdd08195b991959607a1b604482015260640161093a565b6000848152600560209081526040808320338452909152902080546112675760405162461bcd60e51b8152602060048201526013602482015272139bc818dbdb5b5a5d1b595b9d08199bdd5b99606a1b604482015260640161093a565b600281015460ff16156112af5760405162461bcd60e51b815260206004820152601060248201526f105b1c9958591e481c995d99585b195960821b604482015260640161093a565b80546040516112c4908690869060200161294e565b60405160208183030381529060405280519060200120146113185760405162461bcd60e51b815260206004820152600e60248201526d125b9d985b1a59081c995d99585b60921b604482015260640161093a565b60028101805460ff1916600117905560038101849055604051339086907f86d2fbc9069d34216ebc65b38ce840528d3f8cac0c86d2aaa7ab6a9db8bc35d3906113649088815260200190565b60405180910390a35050505050565b6002546040516331a9108f60e11b815260048101879052869133916001600160a01b0390911690636352211e90602401602060405180830381865afa1580156113c0573d6000803e3d6000fd5b505050506040513d601f19601f820116820180604052508101906113e49190612986565b6001600160a01b03161461140a5760405162461bcd60e51b815260040161093a906128b3565b6114126122d5565b66038d7ea4c680008510158015611432575068056bc75e2d631000008511155b61146e5760405162461bcd60e51b815260206004820152600d60248201526c496e76616c696420707269636560981b604482015260640161093a565b8315611582576605543df729c0003410156114d65760405162461bcd60e51b815260206004820152602260248201527f4d7573742073656e642045544820666f722066696e616c697a657220726577616044820152611c9960f21b606482015260840161093a565b606483101580156114ea575062093a808311155b6115295760405162461bcd60e51b815260206004820152601060248201526f24b73b30b634b210323ab930ba34b7b760811b604482015260640161093a565b6078821015801561153d5750620151808211155b6115825760405162461bcd60e51b8152602060048201526016602482015275496e76616c69642066696e616c697a652064656c617960501b604482015260640161093a565b6040518060c00160405280336001600160a01b031681526020018781526020018681526020018515158152602001856115bc5760006115c6565b6115c685426129b9565b8152602001856115d75760006115d9565b835b90526000878152600460208181526040808420855181546001600160a01b0319166001600160a01b039091161781559185015160018084019190915590850151600283015560608501516003808401805460ff19169215159290921790915560808601519383019390935560a0909401516005909101558054928301815590527fc2575a0e9e593c00f959f8c92f12db2869c3395a3b0502d05e2516446f71f85b0186905583156116965760008681526008602052604090203490555b600254604051632142170760e11b81526001600160a01b03909116906342842e0e906116ca90339030908b90600401612879565b600060405180830381600087803b1580156116e457600080fd5b505af11580156116f8573d6000803e3d6000fd5b50506040805188815287151560208201528993507fec2862227fb8941dc82b951797d099c179ce97a30bf0174bf1697d1c01d8748b92500160405180910390a2505050505050565b6117486122ab565b6117506122d5565b6000818152600460205260409020600381015460ff16156117d95760405162461bcd60e51b815260206004820152603760248201527f506f6b656d6f6e206973206c697374656420666f7220616e2061756374696f6e60448201527f2c206e6f7420666f722061206669786564207072696365000000000000000000606482015260840161093a565b806002015434101561182d5760405162461bcd60e51b815260206004820152601e60248201527f496e73756666696369656e742066756e647320746f2070757263686173650000604482015260640161093a565b80546001600160a01b03166118545760405162461bcd60e51b815260040161093a906128f6565b8054336001600160a01b03909116036118af5760405162461bcd60e51b815260206004820152601b60248201527f43616e6e6f742062757920796f7572206f776e206c697374696e670000000000604482015260640161093a565b600254604051632142170760e11b81526001600160a01b03909116906342842e0e906118e390309033908790600401612879565b600060405180830381600087803b1580156118fd57600080fd5b505af1158015611911573d6000803e3d6000fd5b505082546040516001600160a01b0390911692503480156108fc029250906000818181858888f1935050505015801561194e573d6000803e3d6000fd5b50336001600160a01b0316827fe89ee650d68ca71d565381bf8c4b50ef47da5452d8df24d949380bee65d33757836002015460405161198f91815260200190565b60405180910390a36000828152600460208190526040822080546001600160a01b0319168155600181018390556002810183905560038101805460ff19169055908101829055600501556119e282612382565b60405182907f51a9d0860a9b8ef69e7cd2cc93e90cff1b4cf1433a5cffbe7394d0aa6f994b3290600090a250611a186001600055565b50565b60038181548110611a2b57600080fd5b600091825260209091200154905081565b611a446122ab565b611a4c6122d5565b6000818152600460205260409020600381015460ff16611a7e5760405162461bcd60e51b815260040161093a90612926565b80600501548160040154611a9291906129b9565b421015611af95760405162461bcd60e51b815260206004820152602f60248201527f43616e6e6f742066696e616c697a6520796574202d2077616974696e6720666f60448201526e722072657665616c2077696e646f7760881b606482015260840161093a565b6000828152600860205260408120548190819060001990825b600088815260066020526040902054811015611d3e576000888152600660205260408120805483908110611b4857611b4861289d565b60009182526020808320909101548b83526005825260408084206001600160a01b0390921680855291909252912060028101549192509060ff16611bc05760018101546001600160a01b03831660009081526007602052604081208054909190611bb39084906129b9565b90915550611d3692505050565b858160030154118015611bdb57508060010154816003015411155b15611c4c576001600160a01b03871615611c335760008a81526005602090815260408083206001600160a01b038b16845282528083206001015460079092528220805491929091611c2d9084906129b9565b90915550505b8060030154955081975080600401549450819650611d33565b858160030154148015611c6757508060010154816003015411155b8015611c765750848160040154105b15611d00576001600160a01b03871615801590611ca55750816001600160a01b0316876001600160a01b031614155b15611cee5760008a81526005602090815260408083206001600160a01b038b16845282528083206001015460079092528220805491929091611ce89084906129b9565b90915550505b81975080600401549450819650611d33565b60018101546001600160a01b03831660009081526007602052604081208054909190611d2d9084906129b9565b90915550505b50505b600101611b12565b5060005b600088815260066020526040902054811015611dd5576000888152600660205260408120805483908110611d7857611d7861289d565b60009182526020808320909101548b83526005825260408084206001600160a01b03909216845291528120818155600181810183905560028201805460ff1916905560038201839055600490910191909155919091019050611d42565b506001600160a01b038516611e97576002548654604051632142170760e11b81526001600160a01b03928316926342842e0e92611e1c923092909116908c90600401612879565b600060405180830381600087803b158015611e3657600080fd5b505af1158015611e4a573d6000803e3d6000fd5b50508754604051600081526001600160a01b0390911692508991507fe89ee650d68ca71d565381bf8c4b50ef47da5452d8df24d949380bee65d337579060200160405180910390a3611f7c565b600254604051632142170760e11b81526001600160a01b03909116906342842e0e90611ecb90309089908c90600401612879565b600060405180830381600087803b158015611ee557600080fd5b505af1158015611ef9573d6000803e3d6000fd5b505087546040516001600160a01b03909116925085156108fc02915085906000818181858888f19350505050158015611f36573d6000803e3d6000fd5b50846001600160a01b0316877fe89ee650d68ca71d565381bf8c4b50ef47da5452d8df24d949380bee65d3375785604051611f7391815260200190565b60405180910390a35b8015611fe0573360009081526007602052604081208054839290611fa19084906129b9565b909155505060408051338152602081018390527fe2403640ba68fed3a2f88b7557551d1993f84b99bb10ff833f0cf8db0c5e0486910160405180910390a15b6000878152600460208190526040822080546001600160a01b0319168155600181018390556002810183905560038101805460ff191690559081018290556005015561202b87612382565b60008781526008602090815260408083208390556006909152812061204f91612534565b60405187907f51a9d0860a9b8ef69e7cd2cc93e90cff1b4cf1433a5cffbe7394d0aa6f994b3290600090a2505050505050611a186001600055565b60606000805b6003548110156120fb57836001600160a01b031660046000600384815481106120bb576120bb61289d565b600091825260208083209091015483528201929092526040019020546001600160a01b0316036120f357816120ef816129cc565b9250505b600101612090565b5060008167ffffffffffffffff81111561211757612117612725565b60405190808252806020026020018201604052801561215057816020015b61213d6124f3565b8152602001906001900390816121355790505b5090506000805b60035481101561226657856001600160a01b031660046000600384815481106121825761218261289d565b600091825260208083209091015483528201929092526040019020546001600160a01b03160361225e5760046000600383815481106121c3576121c361289d565b600091825260208083209091015483528281019390935260409182019020815160c08101835281546001600160a01b03168152600182015493810193909352600281015491830191909152600381015460ff1615156060830152600481015460808301526005015460a082015283518490849081106122445761224461289d565b6020026020010181905250818061225a906129cc565b9250505b600101612157565b5090949350505050565b612278612300565b6001600160a01b0381166122a257604051631e4fbdf760e01b81526000600482015260240161093a565b611a1881612434565b6002600054036122ce57604051633ee5aeb560e01b815260040160405180910390fd5b6002600055565b600154600160a01b900460ff16156109bf5760405163d93c066560e01b815260040160405180910390fd5b6001546001600160a01b031633146109bf5760405163118cdaa760e01b815233600482015260240161093a565b6123356124c9565b6001805460ff60a01b191690557f5db9ee0a495bf2e6ff9c91a7834c1ba4fdd244a5e8aa4e537bd38aeae4b073aa335b6040516001600160a01b03909116815260200160405180910390a1565b60035460005b8181101561242f5782600382815481106123a4576123a461289d565b9060005260206000200154036124275760036123c16001846129e5565b815481106123d1576123d161289d565b9060005260206000200154600382815481106123ef576123ef61289d565b600091825260209091200155600380548061240c5761240c6129f8565b60019003818190600052602060002001600090559055505050565b600101612388565b505050565b600180546001600160a01b038381166001600160a01b0319831681179093556040519116919082907f8be0079c531659141344cd1fd0a4f28419497f9722a3daafe3b4186f6b6457e090600090a35050565b61248e6122d5565b6001805460ff60a01b1916600160a01b1790557f62e78cea01bee320cd4e420270b5ea74000d11b0c9f74754ebdbfc544b05a2586123653390565b600154600160a01b900460ff166109bf57604051638dfc202b60e01b815260040160405180910390fd5b6040518060c0016040528060006001600160a01b03168152602001600081526020016000815260200160001515815260200160008152602001600081525090565b5080546000825590600052602060002090810190611a1891905b80821115612562576000815560010161254e565b5090565b60006020828403121561257857600080fd5b5035919050565b80516001600160a01b0316825260208082015190830152604080820151908301526060808201511515908301526080808201519083015260a090810151910152565b60c08101610e1f828461257f565b6001600160a01b0381168114611a1857600080fd5b6000806000806000608086880312156125fc57600080fd5b8535612607816125cf565b94506020860135612617816125cf565b935060408601359250606086013567ffffffffffffffff81111561263a57600080fd5b8601601f8101881361264b57600080fd5b803567ffffffffffffffff81111561266257600080fd5b88602082840101111561267457600080fd5b959894975092955050506020019190565b602080825282518282018190526000918401906040840190835b818110156126c8576126b283855161257f565b6020939093019260c0929092019160010161269f565b509095945050505050565b600080604083850312156126e657600080fd5b8235915060208301356126f8816125cf565b809150509250929050565b6000806040838503121561271657600080fd5b50508035926020909101359150565b634e487b7160e01b600052604160045260246000fd5b60008060006060848603121561275057600080fd5b8335925060208401359150604084013567ffffffffffffffff81111561277557600080fd5b8401601f8101861361278657600080fd5b803567ffffffffffffffff8111156127a0576127a0612725565b604051601f8201601f19908116603f0116810167ffffffffffffffff811182821017156127cf576127cf612725565b6040528181528282016020018810156127e757600080fd5b816020840160208301376000602083830101528093505050509250925092565b60006020828403121561281957600080fd5b8135612824816125cf565b9392505050565b600080600080600060a0868803121561284357600080fd5b85359450602086013593506040860135801515811461286157600080fd5b94979396509394606081013594506080013592915050565b6001600160a01b039384168152919092166020820152604081019190915260600190565b634e487b7160e01b600052603260045260246000fd5b60208082526023908201527f596f75206d757374206f776e2074686520506f6b656d6f6e20746f206c697374604082015262081a5d60ea1b606082015260800190565b602080825260169082015275131a5cdd1a5b99c8191bd95cc81b9bdd08195e1a5cdd60521b604082015260600190565b6020808252600e908201526d2737ba1030b71030bab1ba34b7b760911b604082015260600190565b8281526000825160005b8181101561297457602081860181015185830182015201612958565b50600092016020019182525092915050565b60006020828403121561299857600080fd5b8151612824816125cf565b634e487b7160e01b600052601160045260246000fd5b80820180821115610e1f57610e1f6129a3565b6000600182016129de576129de6129a3565b5060010190565b81810381811115610e1f57610e1f6129a3565b634e487b7160e01b600052603160045260246000fdfea26469706673582212202e1b770b9239286b546767f51eed33a708610cd685a3416ecc6e30acd596c6e064736f6c634300081c0033",
  "linkReferences": {},
  "deployedLinkReferences": {}
}