{
  "_format": "hh-sol-artifact-1",
  "contractName": "TradingContract",
  "sourceName": "contracts/TradingContract.sol",
  "abi": [
    {
      "inputs": [
        {
          "internalType": "address",
          "name": "_pokemonContract",
          "type": "address"
        }
      ],
      "stateMutability": "nonpayable",
      "type": "constructor"
    },
    {
      "inputs": [],
      "name": "EnforcedPause",
      "type": "error"
    },
    {
      "inputs": [],
      "name": "ExpectedPause",
      "type": "error"
    },
    {
      "inputs": [
        {
          "internalType": "address",
          "name": "owner",
          "type": "address"
        }
      ],
      "name": "OwnableInvalidOwner",
      "type": "error"
    },
    {
      "inputs": [
        {
          "internalType": "address",
          "name": "account",
          "type": "address"
        }
      ],
      "name": "OwnableUnauthorizedAccount",
      "type": "error"
    },
    {
      "inputs": [],
      "name": "ReentrancyGuardReentrantCall",
      "type": "error"
    },
    {
      "anonymous": false,
      "inputs": [
        {
          "indexed": true,
          "internalType": "uint256",
          "name": "pokemonId",
          "type": "uint256"
        },
        {
          "indexed": false,
          "internalType": "uint256",
          "name": "bidAmount",
          "type": "uint256"
        },
        {
          "indexed": true,
          "internalType": "address",
          "name": "bidder",
          "type": "address"
        }
      ],
      "name": "BidPlaced",
      "type": "event"
    },
    {
      "anonymous": false,
      "inputs": [
        {
          "indexed": true,
          "internalType": "uint256",
          "name": "pokemonId",
          "type": "uint256"
        },
        {
          "indexed": false,
          "internalType": "uint256",
          "name": "price",
          "type": "uint256"
        },
        {
          "indexed": false,
          "internalType": "bool",
          "name": "isAuction",
          "type": "bool"
        }
      ],
      "name": "Listed",
      "type": "event"
    },
    {
      "anonymous": false,
      "inputs": [
        {
          "indexed": true,
          "internalType": "uint256",
          "name": "pokemonId",
          "type": "uint256"
        }
      ],
      "name": "ListingRemoved",
      "type": "event"
    },
    {
      "anonymous": false,
      "inputs": [
        {
          "indexed": true,
          "internalType": "address",
          "name": "previousOwner",
          "type": "address"
        },
        {
          "indexed": true,
          "internalType": "address",
          "name": "newOwner",
          "type": "address"
        }
      ],
      "name": "OwnershipTransferred",
      "type": "event"
    },
    {
      "anonymous": false,
      "inputs": [
        {
          "indexed": false,
          "internalType": "address",
          "name": "account",
          "type": "address"
        }
      ],
      "name": "Paused",
      "type": "event"
    },
    {
      "anonymous": false,
      "inputs": [
        {
          "indexed": true,
          "internalType": "uint256",
          "name": "pokemonId",
          "type": "uint256"
        },
        {
          "indexed": false,
          "internalType": "uint256",
          "name": "price",
          "type": "uint256"
        },
        {
          "indexed": true,
          "internalType": "address",
          "name": "buyer",
          "type": "address"
        }
      ],
      "name": "PokemonSold",
      "type": "event"
    },
    {
      "anonymous": false,
      "inputs": [
        {
          "indexed": false,
          "internalType": "address",
          "name": "finalizer",
          "type": "address"
        },
        {
          "indexed": false,
          "internalType": "uint256",
          "name": "rewardAmount",
          "type": "uint256"
        }
      ],
      "name": "RewardPaid",
      "type": "event"
    },
    {
      "anonymous": false,
      "inputs": [
        {
          "indexed": false,
          "internalType": "address",
          "name": "operator",
          "type": "address"
        },
        {
          "indexed": false,
          "internalType": "address",
          "name": "from",
          "type": "address"
        },
        {
          "indexed": false,
          "internalType": "uint256",
          "name": "tokenId",
          "type": "uint256"
        }
      ],
      "name": "TokenReceived",
      "type": "event"
    },
    {
      "anonymous": false,
      "inputs": [
        {
          "indexed": false,
          "internalType": "address",
          "name": "account",
          "type": "address"
        }
      ],
      "name": "Unpaused",
      "type": "event"
    },
    {
      "anonymous": false,
      "inputs": [
        {
          "indexed": true,
          "internalType": "address",
          "name": "user",
          "type": "address"
        },
        {
          "indexed": false,
          "internalType": "uint256",
          "name": "amount",
          "type": "uint256"
        }
      ],
      "name": "Withdrawn",
      "type": "event"
    },
    {
      "inputs": [],
      "name": "FINALIZER_FEE",
      "outputs": [
        {
          "internalType": "uint256",
          "name": "",
          "type": "uint256"
        }
      ],
      "stateMutability": "view",
      "type": "function"
    },
    {
      "inputs": [
        {
          "internalType": "uint256",
          "name": "",
          "type": "uint256"
        }
      ],
      "name": "activeListingIds",
      "outputs": [
        {
          "internalType": "uint256",
          "name": "",
          "type": "uint256"
        }
      ],
      "stateMutability": "view",
      "type": "function"
    },
    {
      "inputs": [
        {
          "internalType": "uint256",
          "name": "",
          "type": "uint256"
        }
      ],
      "name": "auctionRewards",
      "outputs": [
        {
          "internalType": "uint256",
          "name": "",
          "type": "uint256"
        }
      ],
      "stateMutability": "view",
      "type": "function"
    },
    {
      "inputs": [
        {
          "internalType": "uint256",
          "name": "pokemonId",
          "type": "uint256"
        }
      ],
      "name": "buyPokemon",
      "outputs": [],
      "stateMutability": "payable",
      "type": "function"
    },
    {
      "inputs": [
        {
          "internalType": "uint256",
          "name": "pokemonId",
          "type": "uint256"
        }
      ],
      "name": "finalizeAuction",
      "outputs": [],
      "stateMutability": "nonpayable",
      "type": "function"
    },
    {
      "inputs": [],
      "name": "getAllListingsWithDetails",
      "outputs": [
        {
          "components": [
            {
              "internalType": "address",
              "name": "seller",
              "type": "address"
            },
            {
              "internalType": "uint256",
              "name": "pokemonId",
              "type": "uint256"
            },
            {
              "internalType": "uint256",
              "name": "price",
              "type": "uint256"
            },
            {
              "internalType": "bool",
              "name": "isAuction",
              "type": "bool"
            },
            {
              "internalType": "uint256",
              "name": "auctionEndTime",
              "type": "uint256"
            },
            {
              "internalType": "address",
              "name": "highestBidder",
              "type": "address"
            },
            {
              "internalType": "uint256",
              "name": "highestBid",
              "type": "uint256"
            }
          ],
          "internalType": "struct TradingContract.Listing[]",
          "name": "",
          "type": "tuple[]"
        }
      ],
      "stateMutability": "view",
      "type": "function"
    },
    {
      "inputs": [
        {
          "internalType": "uint256",
          "name": "pokemonId",
          "type": "uint256"
        }
      ],
      "name": "getAuctionState",
      "outputs": [
        {
          "internalType": "bool",
          "name": "isActive",
          "type": "bool"
        },
        {
          "internalType": "uint256",
          "name": "timeRemaining",
          "type": "uint256"
        },
        {
          "internalType": "address",
          "name": "highestBidder",
          "type": "address"
        },
        {
          "internalType": "uint256",
          "name": "highestBid",
          "type": "uint256"
        }
      ],
      "stateMutability": "view",
      "type": "function"
    },
    {
      "inputs": [
        {
          "internalType": "uint256",
          "name": "pokemonId",
          "type": "uint256"
        }
      ],
      "name": "getListing",
      "outputs": [
        {
          "components": [
            {
              "internalType": "address",
              "name": "seller",
              "type": "address"
            },
            {
              "internalType": "uint256",
              "name": "pokemonId",
              "type": "uint256"
            },
            {
              "internalType": "uint256",
              "name": "price",
              "type": "uint256"
            },
            {
              "internalType": "bool",
              "name": "isAuction",
              "type": "bool"
            },
            {
              "internalType": "uint256",
              "name": "auctionEndTime",
              "type": "uint256"
            },
            {
              "internalType": "address",
              "name": "highestBidder",
              "type": "address"
            },
            {
              "internalType": "uint256",
              "name": "highestBid",
              "type": "uint256"
            }
          ],
          "internalType": "struct TradingContract.Listing",
          "name": "",
          "type": "tuple"
        }
      ],
      "stateMutability": "view",
      "type": "function"
    },
    {
      "inputs": [
        {
          "internalType": "uint256",
          "name": "tokenId",
          "type": "uint256"
        }
      ],
      "name": "getSellerOf",
      "outputs": [
        {
          "internalType": "address",
          "name": "",
          "type": "address"
        }
      ],
      "stateMutability": "view",
      "type": "function"
    },
    {
      "inputs": [
        {
          "internalType": "address",
          "name": "user",
          "type": "address"
        }
      ],
      "name": "getUserListings",
      "outputs": [
        {
          "components": [
            {
              "internalType": "address",
              "name": "seller",
              "type": "address"
            },
            {
              "internalType": "uint256",
              "name": "pokemonId",
              "type": "uint256"
            },
            {
              "internalType": "uint256",
              "name": "price",
              "type": "uint256"
            },
            {
              "internalType": "bool",
              "name": "isAuction",
              "type": "bool"
            },
            {
              "internalType": "uint256",
              "name": "auctionEndTime",
              "type": "uint256"
            },
            {
              "internalType": "address",
              "name": "highestBidder",
              "type": "address"
            },
            {
              "internalType": "uint256",
              "name": "highestBid",
              "type": "uint256"
            }
          ],
          "internalType": "struct TradingContract.Listing[]",
          "name": "",
          "type": "tuple[]"
        }
      ],
      "stateMutability": "view",
      "type": "function"
    },
    {
      "inputs": [
        {
          "internalType": "uint256",
          "name": "pokemonId",
          "type": "uint256"
        }
      ],
      "name": "isListed",
      "outputs": [
        {
          "internalType": "bool",
          "name": "",
          "type": "bool"
        }
      ],
      "stateMutability": "view",
      "type": "function"
    },
    {
      "inputs": [
        {
          "internalType": "uint256",
          "name": "pokemonId",
          "type": "uint256"
        },
        {
          "internalType": "uint256",
          "name": "price",
          "type": "uint256"
        },
        {
          "internalType": "bool",
          "name": "isAuction",
          "type": "bool"
        },
        {
          "internalType": "uint256",
          "name": "auctionDuration",
          "type": "uint256"
        }
      ],
      "name": "listPokemon",
      "outputs": [],
      "stateMutability": "payable",
      "type": "function"
    },
    {
      "inputs": [
        {
          "internalType": "uint256",
          "name": "",
          "type": "uint256"
        }
      ],
      "name": "listings",
      "outputs": [
        {
          "internalType": "address",
          "name": "seller",
          "type": "address"
        },
        {
          "internalType": "uint256",
          "name": "pokemonId",
          "type": "uint256"
        },
        {
          "internalType": "uint256",
          "name": "price",
          "type": "uint256"
        },
        {
          "internalType": "bool",
          "name": "isAuction",
          "type": "bool"
        },
        {
          "internalType": "uint256",
          "name": "auctionEndTime",
          "type": "uint256"
        },
        {
          "internalType": "address",
          "name": "highestBidder",
          "type": "address"
        },
        {
          "internalType": "uint256",
          "name": "highestBid",
          "type": "uint256"
        }
      ],
      "stateMutability": "view",
      "type": "function"
    },
    {
      "inputs": [
        {
          "internalType": "address",
          "name": "operator",
          "type": "address"
        },
        {
          "internalType": "address",
          "name": "from",
          "type": "address"
        },
        {
          "internalType": "uint256",
          "name": "tokenId",
          "type": "uint256"
        },
        {
          "internalType": "bytes",
          "name": "data",
          "type": "bytes"
        }
      ],
      "name": "onERC721Received",
      "outputs": [
        {
          "internalType": "bytes4",
          "name": "",
          "type": "bytes4"
        }
      ],
      "stateMutability": "nonpayable",
      "type": "function"
    },
    {
      "inputs": [],
      "name": "owner",
      "outputs": [
        {
          "internalType": "address",
          "name": "",
          "type": "address"
        }
      ],
      "stateMutability": "view",
      "type": "function"
    },
    {
      "inputs": [],
      "name": "pause",
      "outputs": [],
      "stateMutability": "nonpayable",
      "type": "function"
    },
    {
      "inputs": [],
      "name": "paused",
      "outputs": [
        {
          "internalType": "bool",
          "name": "",
          "type": "bool"
        }
      ],
      "stateMutability": "view",
      "type": "function"
    },
    {
      "inputs": [
        {
          "internalType": "address",
          "name": "",
          "type": "address"
        }
      ],
      "name": "pendingRefunds",
      "outputs": [
        {
          "internalType": "uint256",
          "name": "",
          "type": "uint256"
        }
      ],
      "stateMutability": "view",
      "type": "function"
    },
    {
      "inputs": [
        {
          "internalType": "uint256",
          "name": "pokemonId",
          "type": "uint256"
        }
      ],
      "name": "placeBid",
      "outputs": [],
      "stateMutability": "payable",
      "type": "function"
    },
    {
      "inputs": [],
      "name": "pokemonContract",
      "outputs": [
        {
          "internalType": "contract IERC721",
          "name": "",
          "type": "address"
        }
      ],
      "stateMutability": "view",
      "type": "function"
    },
    {
      "inputs": [
        {
          "internalType": "uint256",
          "name": "pokemonId",
          "type": "uint256"
        }
      ],
      "name": "removeListing",
      "outputs": [],
      "stateMutability": "nonpayable",
      "type": "function"
    },
    {
      "inputs": [],
      "name": "renounceOwnership",
      "outputs": [],
      "stateMutability": "nonpayable",
      "type": "function"
    },
    {
      "inputs": [
        {
          "internalType": "address",
          "name": "newOwner",
          "type": "address"
        }
      ],
      "name": "transferOwnership",
      "outputs": [],
      "stateMutability": "nonpayable",
      "type": "function"
    },
    {
      "inputs": [],
      "name": "unpause",
      "outputs": [],
      "stateMutability": "nonpayable",
      "type": "function"
    },
    {
      "inputs": [],
      "name": "withdrawRefund",
      "outputs": [],
      "stateMutability": "nonpayable",
      "type": "function"
    }
  ],
  "bytecode": "0x608060405234801561001057600080fd5b5060405161228c38038061228c83398101604081905261002f916100e8565b6001600055338061005a57604051631e4fbdf760e01b81526000600482015260240160405180910390fd5b61006381610096565b506001805460ff60a01b19169055600680546001600160a01b0319166001600160a01b0392909216919091179055610118565b600180546001600160a01b038381166001600160a01b0319831681179093556040519116919082907f8be0079c531659141344cd1fd0a4f28419497f9722a3daafe3b4186f6b6457e090600090a35050565b6000602082840312156100fa57600080fd5b81516001600160a01b038116811461011157600080fd5b9392505050565b612165806101276000396000f3fe6080604052600436106101665760003560e01c806375fe0ba6116100d1578063d75efef01161008a578063e808386311610064578063e808386314610504578063eb18a9d814610524578063f2fde38b14610544578063fcce48831461056457600080fd5b8063d75efef014610423578063de74e57b14610436578063e3b6a1f6146104e457600080fd5b806375fe0ba61461035f5780638456cb591461037a5780638da5cb5b1461038f5780638f194b70146103ad5780639979ef45146103e3578063b613b114146103f657600080fd5b80633f4ba83a116101235780633f4ba83a146102905780634726f5ef146102a5578063479ad4c3146102c75780635c975abb146102e75780636d50905f14610312578063715018a61461034a57600080fd5b8063033e1a871461016b5780630988100714610180578063107a274a146101da578063110f887414610207578063150b7a021461021c57806332a428f214610255575b600080fd5b61017e610179366004611dc9565b61059c565b005b34801561018c57600080fd5b506101a061019b366004611e0d565b610930565b6040516101d19493929190931515845260208401929092526001600160a01b03166040830152606082015260800190565b60405180910390f35b3480156101e657600080fd5b506101fa6101f5366004611e0d565b6109b1565b6040516101d19190611e77565b34801561021357600080fd5b5061017e610a2c565b34801561022857600080fd5b5061023c610237366004611ea0565b610b0d565b6040516001600160e01b031990911681526020016101d1565b34801561026157600080fd5b50610282610270366004611e0d565b60056020526000908152604090205481565b6040519081526020016101d1565b34801561029c57600080fd5b5061017e610bc3565b3480156102b157600080fd5b506102ba610bd3565b6040516101d19190611f41565b3480156102d357600080fd5b5061017e6102e2366004611e0d565b610cfe565b3480156102f357600080fd5b50600154600160a01b900460ff165b60405190151581526020016101d1565b34801561031e57600080fd5b50600654610332906001600160a01b031681565b6040516001600160a01b0390911681526020016101d1565b34801561035657600080fd5b5061017e610f6f565b34801561036b57600080fd5b506102826605543df729c00081565b34801561038657600080fd5b5061017e610f81565b34801561039b57600080fd5b506001546001600160a01b0316610332565b3480156103b957600080fd5b506103326103c8366004611e0d565b6000908152600260205260409020546001600160a01b031690565b61017e6103f1366004611e0d565b610f91565b34801561040257600080fd5b50610282610411366004611f8f565b60046020526000908152604090205481565b61017e610431366004611e0d565b611273565b34801561044257600080fd5b506104a0610451366004611e0d565b600260208190526000918252604090912080546001820154928201546003830154600484015460058501546006909501546001600160a01b039485169695939460ff9093169391929091169087565b604080516001600160a01b03988916815260208101979097528601949094529115156060850152608084015290921660a082015260c081019190915260e0016101d1565b3480156104f057600080fd5b506102826104ff366004611e0d565b611585565b34801561051057600080fd5b5061017e61051f366004611e0d565b6115a6565b34801561053057600080fd5b506102ba61053f366004611f8f565b6118fe565b34801561055057600080fd5b5061017e61055f366004611f8f565b611af5565b34801561057057600080fd5b5061030261057f366004611e0d565b6000908152600260205260409020546001600160a01b0316151590565b6006546040516331a9108f60e11b815260048101869052859133916001600160a01b0390911690636352211e90602401602060405180830381865afa1580156105e9573d6000803e3d6000fd5b505050506040513d601f19601f8201168201806040525081019061060d9190611fb3565b6001600160a01b03161461063c5760405162461bcd60e51b815260040161063390611fd0565b60405180910390fd5b610644611b30565b600084116106945760405162461bcd60e51b815260206004820152601e60248201527f5072696365206d757374206265206c6172676572207468616e207a65726f00006044820152606401610633565b821561075f576605543df729c0003410156106fc5760405162461bcd60e51b815260206004820152602260248201527f4d7573742073656e642045544820666f722066696e616c697a657220726577616044820152611c9960f21b6064820152608401610633565b6000821161075f5760405162461bcd60e51b815260206004820152602a60248201527f41756374696f6e206475726174696f6e206d7573742062652067726561746572604482015269207468616e207a65726f60b01b6064820152608401610633565b6040518060e00160405280336001600160a01b031681526020018681526020018581526020018415158152602001846107995760006107a3565b6107a38442612029565b81526000602080830182905260409283018290528882526002808252838320855181546001600160a01b03199081166001600160a01b0392831617835593870151600180840191909155958701519282019290925560608601516003808301805460ff1916921515929092179091556080870151600483015560a087015160058301805490951693169290921790925560c09094015160069091015582549182018355919091527fc2575a0e9e593c00f959f8c92f12db2869c3395a3b0502d05e2516446f71f85b0185905582156108875760008581526005602052604090203490555b600654604051632142170760e11b81526001600160a01b03909116906342842e0e906108bb90339030908a9060040161203c565b600060405180830381600087803b1580156108d557600080fd5b505af11580156108e9573d6000803e3d6000fd5b50506040805187815286151560208201528893507fec2862227fb8941dc82b951797d099c179ce97a30bf0174bf1697d1c01d8748b92500160405180910390a25050505050565b600081815260026020526040812060038101548291829182919060ff166109695760405162461bcd60e51b815260040161063390612060565b8060040154421094508461097e57600061098e565b42816004015461098e9190612088565b600582015460069092015495979096506001600160a01b03909116949350915050565b6109b9611d78565b50600090815260026020818152604092839020835160e08101855281546001600160a01b0390811682526001830154938201939093529281015493830193909352600383015460ff16151560608301526004830154608083015260058301541660a082015260069091015460c082015290565b610a34611b5b565b610a3c611b30565b3360009081526004602052604090205480610a8f5760405162461bcd60e51b81526020600482015260136024820152724e6f20726566756e6420617661696c61626c6560681b6044820152606401610633565b336000818152600460205260408082208290555183156108fc0291849190818181858888f19350505050158015610aca573d6000803e3d6000fd5b5060405181815233907f7084f5476618d8e60b11ef0d7d3f06914655adb8793e28ff7f018d4c76d505d59060200160405180910390a250610b0b6001600055565b565b6006546000906001600160a01b03163314610b765760405162461bcd60e51b8152602060048201526024808201527f4f6e6c7920506f6b656d6f6e436f6e747261637420746f6b656e7320616363656044820152631c1d195960e21b6064820152608401610633565b7fa83965f0e7c5e026e57c9ba2dd91e4ebcca352f2d514498c1e9ed23ba6538600868686604051610ba99392919061203c565b60405180910390a150630a85bd0160e11b95945050505050565b610bcb611b85565b610b0b611bb2565b60035460609060008167ffffffffffffffff811115610bf457610bf461209b565b604051908082528060200260200182016040528015610c2d57816020015b610c1a611d78565b815260200190600190039081610c125790505b50905060005b82811015610cf7576002600060038381548110610c5257610c526120b1565b600091825260208083209091015483528281019390935260409182019020815160e08101835281546001600160a01b039081168252600183015494820194909452600282015492810192909252600381015460ff161515606083015260048101546080830152600581015490921660a082015260069091015460c08201528251839083908110610ce457610ce46120b1565b6020908102919091010152600101610c33565b5092915050565b60008181526002602052604090205481906001600160a01b03163314610d365760405162461bcd60e51b815260040161063390611fd0565b610d3e611b5b565b610d46611b30565b600082815260026020526040902080546001600160a01b0316610da45760405162461bcd60e51b8152602060048201526016602482015275131a5cdd1a5b99c8191bd95cc81b9bdd08195e1a5cdd60521b6044820152606401610633565b600381015460ff1615610e165780600401544210610e165760405162461bcd60e51b815260206004820152602960248201527f43616e6e6f742072656d6f7665206c697374696e6720616674657220617563746044820152681a5bdb88195b99195960ba1b6064820152608401610633565b600381015460ff168015610e36575060058101546001600160a01b031615155b15610e7257600681015460058201546001600160a01b031660009081526004602052604081208054909190610e6c908490612029565b90915550505b6006548154604051632142170760e11b81526001600160a01b03928316926342842e0e92610eaa92309290911690889060040161203c565b600060405180830381600087803b158015610ec457600080fd5b505af1158015610ed8573d6000803e3d6000fd5b50506040518592507f51a9d0860a9b8ef69e7cd2cc93e90cff1b4cf1433a5cffbe7394d0aa6f994b329150600090a26000838152600260208190526040822080546001600160a01b031990811682556001820184905591810183905560038101805460ff191690556004810183905560058101805490921690915560060155610f6083611c07565b50610f6b6001600055565b5050565b610f77611b85565b610b0b6000611cb9565b610f89611b85565b610b0b611d0b565b600081815260026020526040902060030154819060ff16610fc45760405162461bcd60e51b815260040161063390612060565b60008181526002602052604090206004015442106110145760405162461bcd60e51b815260206004820152600d60248201526c105d58dd1a5bdb88195b991959609a1b6044820152606401610633565b61101c611b30565b600082815260026020526040812060068101549091906064906110409060056120c7565b61104a91906120de565b90506000826006015460001461106f5781836006015461106a9190612029565b611075565b82600201545b9050803410156110fe5760405162461bcd60e51b815260206004820152604860248201527f426964206d757374206265206174206c6561737420352520686967686572207460448201527f68616e2070726576696f757320626964206f72206d61746368207374617274696064820152676e6720707269636560c01b608482015260a401610633565b60058301546001600160a01b031633036111655760405162461bcd60e51b815260206004820152602260248201527f596f752061726520616c7265616479207468652068696768657374206269646460448201526132b960f11b6064820152608401610633565b82546001600160a01b031633036111cd5760405162461bcd60e51b815260206004820152602660248201527f53656c6c65722063616e6e6f7420626964206f6e207468656972206f776e206c604482015265697374696e6760d01b6064820152608401610633565b60058301546001600160a01b03161561121757600683015460058401546001600160a01b031660009081526004602052604081208054909190611211908490612029565b90915550505b34600684018190556005840180546001600160a01b031916339081179091556040519182529086907fbfbf2db1f7880e9487cbceeb181c4dce363d0ad1b6e73f5aa494ffb5d91914969060200160405180910390a35050505050565b61127b611b5b565b611283611b30565b6000818152600260205260409020600381015460ff161561130c5760405162461bcd60e51b815260206004820152603760248201527f506f6b656d6f6e206973206c697374656420666f7220616e2061756374696f6e60448201527f2c206e6f7420666f7220612066697865642070726963650000000000000000006064820152608401610633565b80600201543410156113605760405162461bcd60e51b815260206004820152601e60248201527f496e73756666696369656e742066756e647320746f20707572636861736500006044820152606401610633565b80546001600160a01b03166113b05760405162461bcd60e51b8152602060048201526016602482015275131a5cdd1a5b99c8191bd95cc81b9bdd08195e1a5cdd60521b6044820152606401610633565b8054336001600160a01b039091160361140b5760405162461bcd60e51b815260206004820152601b60248201527f43616e6e6f742062757920796f7572206f776e206c697374696e6700000000006044820152606401610633565b600654604051632142170760e11b81526001600160a01b03909116906342842e0e9061143f9030903390879060040161203c565b600060405180830381600087803b15801561145957600080fd5b505af115801561146d573d6000803e3d6000fd5b505082546040516001600160a01b0390911692503480156108fc029250906000818181858888f193505050501580156114aa573d6000803e3d6000fd5b50336001600160a01b0316827fe89ee650d68ca71d565381bf8c4b50ef47da5452d8df24d949380bee65d3375783600201546040516114eb91815260200190565b60405180910390a36000828152600260208190526040822080546001600160a01b031990811682556001820184905591810183905560038101805460ff19169055600481018390556005810180549092169091556006015561154c82611c07565b60405182907f51a9d0860a9b8ef69e7cd2cc93e90cff1b4cf1433a5cffbe7394d0aa6f994b3290600090a2506115826001600055565b50565b6003818154811061159557600080fd5b600091825260209091200154905081565b6115ae611b5b565b6115b6611b30565b6000818152600260205260409020600381015460ff166115e85760405162461bcd60e51b815260040161063390612060565b80600401544210156116305760405162461bcd60e51b8152602060048201526011602482015270105d58dd1a5bdb881b9bdd08195b991959607a1b6044820152606401610633565b600082815260056020819052604090912054908201546001600160a01b0316611706576006548254604051632142170760e11b81526001600160a01b03928316926342842e0e9261168b92309290911690889060040161203c565b600060405180830381600087803b1580156116a557600080fd5b505af11580156116b9573d6000803e3d6000fd5b50508354604051600081526001600160a01b0390911692508591507fe89ee650d68ca71d565381bf8c4b50ef47da5452d8df24d949380bee65d337579060200160405180910390a36117fd565b6006546005830154604051632142170760e11b81526001600160a01b03928316926342842e0e9261174192309290911690889060040161203c565b600060405180830381600087803b15801561175b57600080fd5b505af115801561176f573d6000803e3d6000fd5b5050835460068501546040516001600160a01b03909216935080156108fc029250906000818181858888f193505050501580156117b0573d6000803e3d6000fd5b50600582015460068301546040519081526001600160a01b039091169084907fe89ee650d68ca71d565381bf8c4b50ef47da5452d8df24d949380bee65d337579060200160405180910390a35b8015611861573360009081526004602052604081208054839290611822908490612029565b909155505060408051338152602081018390527fe2403640ba68fed3a2f88b7557551d1993f84b99bb10ff833f0cf8db0c5e0486910160405180910390a15b6000838152600260208190526040822080546001600160a01b031990811682556001820184905591810183905560038101805460ff1916905560048101839055600581018054909216909155600601556118ba83611c07565b6000838152600560205260408082208290555184917f51a9d0860a9b8ef69e7cd2cc93e90cff1b4cf1433a5cffbe7394d0aa6f994b3291a250506115826001600055565b60606000805b60035481101561196f57836001600160a01b0316600260006003848154811061192f5761192f6120b1565b600091825260208083209091015483528201929092526040019020546001600160a01b031603611967578161196381612100565b9250505b600101611904565b5060008167ffffffffffffffff81111561198b5761198b61209b565b6040519080825280602002602001820160405280156119c457816020015b6119b1611d78565b8152602001906001900390816119a95790505b5090506000805b600354811015611aeb57856001600160a01b031660026000600384815481106119f6576119f66120b1565b600091825260208083209091015483528201929092526040019020546001600160a01b031603611ae3576002600060038381548110611a3757611a376120b1565b600091825260208083209091015483528281019390935260409182019020815160e08101835281546001600160a01b039081168252600183015494820194909452600282015492810192909252600381015460ff161515606083015260048101546080830152600581015490921660a082015260069091015460c08201528351849084908110611ac957611ac96120b1565b60200260200101819052508180611adf90612100565b9250505b6001016119cb565b5090949350505050565b611afd611b85565b6001600160a01b038116611b2757604051631e4fbdf760e01b815260006004820152602401610633565b61158281611cb9565b600154600160a01b900460ff1615610b0b5760405163d93c066560e01b815260040160405180910390fd5b600260005403611b7e57604051633ee5aeb560e01b815260040160405180910390fd5b6002600055565b6001546001600160a01b03163314610b0b5760405163118cdaa760e01b8152336004820152602401610633565b611bba611d4e565b6001805460ff60a01b191690557f5db9ee0a495bf2e6ff9c91a7834c1ba4fdd244a5e8aa4e537bd38aeae4b073aa335b6040516001600160a01b03909116815260200160405180910390a1565b60035460005b81811015611cb4578260038281548110611c2957611c296120b1565b906000526020600020015403611cac576003611c46600184612088565b81548110611c5657611c566120b1565b906000526020600020015460038281548110611c7457611c746120b1565b6000918252602090912001556003805480611c9157611c91612119565b60019003818190600052602060002001600090559055505050565b600101611c0d565b505050565b600180546001600160a01b038381166001600160a01b0319831681179093556040519116919082907f8be0079c531659141344cd1fd0a4f28419497f9722a3daafe3b4186f6b6457e090600090a35050565b611d13611b30565b6001805460ff60a01b1916600160a01b1790557f62e78cea01bee320cd4e420270b5ea74000d11b0c9f74754ebdbfc544b05a258611bea3390565b600154600160a01b900460ff16610b0b57604051638dfc202b60e01b815260040160405180910390fd5b6040518060e0016040528060006001600160a01b0316815260200160008152602001600081526020016000151581526020016000815260200160006001600160a01b03168152602001600081525090565b60008060008060808587031215611ddf57600080fd5b843593506020850135925060408501358015158114611dfd57600080fd5b9396929550929360600135925050565b600060208284031215611e1f57600080fd5b5035919050565b80516001600160a01b03908116835260208083015190840152604080830151908401526060808301511515908401526080808301519084015260a0828101519091169083015260c090810151910152565b60e08101611e858284611e26565b92915050565b6001600160a01b038116811461158257600080fd5b600080600080600060808688031215611eb857600080fd5b8535611ec381611e8b565b94506020860135611ed381611e8b565b935060408601359250606086013567ffffffffffffffff811115611ef657600080fd5b8601601f81018813611f0757600080fd5b803567ffffffffffffffff811115611f1e57600080fd5b886020828401011115611f3057600080fd5b959894975092955050506020019190565b602080825282518282018190526000918401906040840190835b81811015611f8457611f6e838551611e26565b6020939093019260e09290920191600101611f5b565b509095945050505050565b600060208284031215611fa157600080fd5b8135611fac81611e8b565b9392505050565b600060208284031215611fc557600080fd5b8151611fac81611e8b565b60208082526023908201527f596f75206d757374206f776e2074686520506f6b656d6f6e20746f206c697374604082015262081a5d60ea1b606082015260800190565b634e487b7160e01b600052601160045260246000fd5b80820180821115611e8557611e85612013565b6001600160a01b039384168152919092166020820152604081019190915260600190565b6020808252600e908201526d2737ba1030b71030bab1ba34b7b760911b604082015260600190565b81810381811115611e8557611e85612013565b634e487b7160e01b600052604160045260246000fd5b634e487b7160e01b600052603260045260246000fd5b8082028115828204841417611e8557611e85612013565b6000826120fb57634e487b7160e01b600052601260045260246000fd5b500490565b60006001820161211257612112612013565b5060010190565b634e487b7160e01b600052603160045260246000fdfea26469706673582212203573c3a6b6b5c3161bbe34e6ebb09997654946c6e334ecbdaa53ad010f65d34b64736f6c634300081c0033",
  "linkReferences": {},
  "deployedLinkReferences": {}
}