{
  "_format": "hh-sol-artifact-1",
  "contractName": "TradingContract",
  "sourceName": "contracts/TradingContract.sol",
  "abi": [
    {
      "inputs": [
        {
          "internalType": "address",
          "name": "_pokemonContract",
          "type": "address"
        }
      ],
      "stateMutability": "nonpayable",
      "type": "constructor"
    },
    {
      "inputs": [],
      "name": "EnforcedPause",
      "type": "error"
    },
    {
      "inputs": [],
      "name": "ExpectedPause",
      "type": "error"
    },
    {
      "inputs": [
        {
          "internalType": "address",
          "name": "owner",
          "type": "address"
        }
      ],
      "name": "OwnableInvalidOwner",
      "type": "error"
    },
    {
      "inputs": [
        {
          "internalType": "address",
          "name": "account",
          "type": "address"
        }
      ],
      "name": "OwnableUnauthorizedAccount",
      "type": "error"
    },
    {
      "inputs": [],
      "name": "ReentrancyGuardReentrantCall",
      "type": "error"
    },
    {
      "anonymous": false,
      "inputs": [
        {
          "indexed": true,
          "internalType": "uint256",
          "name": "pokemonId",
          "type": "uint256"
        },
        {
          "indexed": true,
          "internalType": "address",
          "name": "bidder",
          "type": "address"
        }
      ],
      "name": "BidCommitted",
      "type": "event"
    },
    {
      "anonymous": false,
      "inputs": [
        {
          "indexed": true,
          "internalType": "uint256",
          "name": "pokemonId",
          "type": "uint256"
        },
        {
          "indexed": true,
          "internalType": "address",
          "name": "bidder",
          "type": "address"
        },
        {
          "indexed": false,
          "internalType": "uint256",
          "name": "amount",
          "type": "uint256"
        }
      ],
      "name": "BidRevealed",
      "type": "event"
    },
    {
      "anonymous": false,
      "inputs": [
        {
          "indexed": true,
          "internalType": "uint256",
          "name": "pokemonId",
          "type": "uint256"
        },
        {
          "indexed": false,
          "internalType": "uint256",
          "name": "price",
          "type": "uint256"
        },
        {
          "indexed": false,
          "internalType": "bool",
          "name": "isAuction",
          "type": "bool"
        }
      ],
      "name": "Listed",
      "type": "event"
    },
    {
      "anonymous": false,
      "inputs": [
        {
          "indexed": true,
          "internalType": "uint256",
          "name": "pokemonId",
          "type": "uint256"
        }
      ],
      "name": "ListingRemoved",
      "type": "event"
    },
    {
      "anonymous": false,
      "inputs": [
        {
          "indexed": true,
          "internalType": "address",
          "name": "previousOwner",
          "type": "address"
        },
        {
          "indexed": true,
          "internalType": "address",
          "name": "newOwner",
          "type": "address"
        }
      ],
      "name": "OwnershipTransferred",
      "type": "event"
    },
    {
      "anonymous": false,
      "inputs": [
        {
          "indexed": false,
          "internalType": "address",
          "name": "account",
          "type": "address"
        }
      ],
      "name": "Paused",
      "type": "event"
    },
    {
      "anonymous": false,
      "inputs": [
        {
          "indexed": true,
          "internalType": "uint256",
          "name": "pokemonId",
          "type": "uint256"
        },
        {
          "indexed": false,
          "internalType": "uint256",
          "name": "price",
          "type": "uint256"
        },
        {
          "indexed": true,
          "internalType": "address",
          "name": "buyer",
          "type": "address"
        }
      ],
      "name": "PokemonSold",
      "type": "event"
    },
    {
      "anonymous": false,
      "inputs": [
        {
          "indexed": false,
          "internalType": "address",
          "name": "finalizer",
          "type": "address"
        },
        {
          "indexed": false,
          "internalType": "uint256",
          "name": "rewardAmount",
          "type": "uint256"
        }
      ],
      "name": "RewardPaid",
      "type": "event"
    },
    {
      "anonymous": false,
      "inputs": [
        {
          "indexed": false,
          "internalType": "address",
          "name": "operator",
          "type": "address"
        },
        {
          "indexed": false,
          "internalType": "address",
          "name": "from",
          "type": "address"
        },
        {
          "indexed": false,
          "internalType": "uint256",
          "name": "tokenId",
          "type": "uint256"
        }
      ],
      "name": "TokenReceived",
      "type": "event"
    },
    {
      "anonymous": false,
      "inputs": [
        {
          "indexed": false,
          "internalType": "address",
          "name": "account",
          "type": "address"
        }
      ],
      "name": "Unpaused",
      "type": "event"
    },
    {
      "anonymous": false,
      "inputs": [
        {
          "indexed": true,
          "internalType": "address",
          "name": "user",
          "type": "address"
        },
        {
          "indexed": false,
          "internalType": "uint256",
          "name": "amount",
          "type": "uint256"
        }
      ],
      "name": "Withdrawn",
      "type": "event"
    },
    {
      "inputs": [],
      "name": "FINALIZER_FEE",
      "outputs": [
        {
          "internalType": "uint256",
          "name": "",
          "type": "uint256"
        }
      ],
      "stateMutability": "view",
      "type": "function"
    },
    {
      "inputs": [],
      "name": "MAX_AUCTION_DURATION",
      "outputs": [
        {
          "internalType": "uint256",
          "name": "",
          "type": "uint256"
        }
      ],
      "stateMutability": "view",
      "type": "function"
    },
    {
      "inputs": [],
      "name": "MAX_BID",
      "outputs": [
        {
          "internalType": "uint256",
          "name": "",
          "type": "uint256"
        }
      ],
      "stateMutability": "view",
      "type": "function"
    },
    {
      "inputs": [],
      "name": "MAX_FINALIZE_DELAY",
      "outputs": [
        {
          "internalType": "uint256",
          "name": "",
          "type": "uint256"
        }
      ],
      "stateMutability": "view",
      "type": "function"
    },
    {
      "inputs": [],
      "name": "MAX_PRICE",
      "outputs": [
        {
          "internalType": "uint256",
          "name": "",
          "type": "uint256"
        }
      ],
      "stateMutability": "view",
      "type": "function"
    },
    {
      "inputs": [],
      "name": "MIN_AUCTION_DURATION",
      "outputs": [
        {
          "internalType": "uint256",
          "name": "",
          "type": "uint256"
        }
      ],
      "stateMutability": "view",
      "type": "function"
    },
    {
      "inputs": [],
      "name": "MIN_FINALIZE_DELAY",
      "outputs": [
        {
          "internalType": "uint256",
          "name": "",
          "type": "uint256"
        }
      ],
      "stateMutability": "view",
      "type": "function"
    },
    {
      "inputs": [],
      "name": "MIN_PRICE",
      "outputs": [
        {
          "internalType": "uint256",
          "name": "",
          "type": "uint256"
        }
      ],
      "stateMutability": "view",
      "type": "function"
    },
    {
      "inputs": [
        {
          "internalType": "uint256",
          "name": "",
          "type": "uint256"
        }
      ],
      "name": "activeListingIds",
      "outputs": [
        {
          "internalType": "uint256",
          "name": "",
          "type": "uint256"
        }
      ],
      "stateMutability": "view",
      "type": "function"
    },
    {
      "inputs": [
        {
          "internalType": "uint256",
          "name": "",
          "type": "uint256"
        }
      ],
      "name": "auctionRewards",
      "outputs": [
        {
          "internalType": "uint256",
          "name": "",
          "type": "uint256"
        }
      ],
      "stateMutability": "view",
      "type": "function"
    },
    {
      "inputs": [
        {
          "internalType": "uint256",
          "name": "pokemonId",
          "type": "uint256"
        }
      ],
      "name": "buyPokemon",
      "outputs": [],
      "stateMutability": "payable",
      "type": "function"
    },
    {
      "inputs": [
        {
          "internalType": "uint256",
          "name": "pokemonId",
          "type": "uint256"
        },
        {
          "internalType": "bytes32",
          "name": "commitHash",
          "type": "bytes32"
        }
      ],
      "name": "commitBid",
      "outputs": [],
      "stateMutability": "payable",
      "type": "function"
    },
    {
      "inputs": [
        {
          "internalType": "uint256",
          "name": "",
          "type": "uint256"
        },
        {
          "internalType": "address",
          "name": "",
          "type": "address"
        }
      ],
      "name": "commitments",
      "outputs": [
        {
          "internalType": "bytes32",
          "name": "commitHash",
          "type": "bytes32"
        },
        {
          "internalType": "uint256",
          "name": "deposit",
          "type": "uint256"
        },
        {
          "internalType": "bool",
          "name": "revealed",
          "type": "bool"
        },
        {
          "internalType": "uint256",
          "name": "revealedAmount",
          "type": "uint256"
        },
        {
          "internalType": "uint256",
          "name": "commitTime",
          "type": "uint256"
        }
      ],
      "stateMutability": "view",
      "type": "function"
    },
    {
      "inputs": [
        {
          "internalType": "uint256",
          "name": "",
          "type": "uint256"
        },
        {
          "internalType": "uint256",
          "name": "",
          "type": "uint256"
        }
      ],
      "name": "committedBidders",
      "outputs": [
        {
          "internalType": "address",
          "name": "",
          "type": "address"
        }
      ],
      "stateMutability": "view",
      "type": "function"
    },
    {
      "inputs": [
        {
          "internalType": "uint256",
          "name": "pokemonId",
          "type": "uint256"
        }
      ],
      "name": "finalizeAuction",
      "outputs": [],
      "stateMutability": "nonpayable",
      "type": "function"
    },
    {
      "inputs": [],
      "name": "getAllListingsWithDetails",
      "outputs": [
        {
          "components": [
            {
              "internalType": "address",
              "name": "seller",
              "type": "address"
            },
            {
              "internalType": "uint256",
              "name": "pokemonId",
              "type": "uint256"
            },
            {
              "internalType": "uint256",
              "name": "price",
              "type": "uint256"
            },
            {
              "internalType": "bool",
              "name": "isAuction",
              "type": "bool"
            },
            {
              "internalType": "uint256",
              "name": "auctionEndTime",
              "type": "uint256"
            },
            {
              "internalType": "uint256",
              "name": "finalizeDelay",
              "type": "uint256"
            }
          ],
          "internalType": "struct TradingContract.Listing[]",
          "name": "",
          "type": "tuple[]"
        }
      ],
      "stateMutability": "view",
      "type": "function"
    },
    {
      "inputs": [
        {
          "internalType": "uint256",
          "name": "pokemonId",
          "type": "uint256"
        },
        {
          "internalType": "address",
          "name": "bidder",
          "type": "address"
        }
      ],
      "name": "getCommitment",
      "outputs": [
        {
          "internalType": "bytes32",
          "name": "commitHash",
          "type": "bytes32"
        },
        {
          "internalType": "bool",
          "name": "revealed",
          "type": "bool"
        },
        {
          "internalType": "uint256",
          "name": "revealedAmount",
          "type": "uint256"
        }
      ],
      "stateMutability": "view",
      "type": "function"
    },
    {
      "inputs": [
        {
          "internalType": "uint256",
          "name": "pokemonId",
          "type": "uint256"
        }
      ],
      "name": "getListing",
      "outputs": [
        {
          "components": [
            {
              "internalType": "address",
              "name": "seller",
              "type": "address"
            },
            {
              "internalType": "uint256",
              "name": "pokemonId",
              "type": "uint256"
            },
            {
              "internalType": "uint256",
              "name": "price",
              "type": "uint256"
            },
            {
              "internalType": "bool",
              "name": "isAuction",
              "type": "bool"
            },
            {
              "internalType": "uint256",
              "name": "auctionEndTime",
              "type": "uint256"
            },
            {
              "internalType": "uint256",
              "name": "finalizeDelay",
              "type": "uint256"
            }
          ],
          "internalType": "struct TradingContract.Listing",
          "name": "",
          "type": "tuple"
        }
      ],
      "stateMutability": "view",
      "type": "function"
    },
    {
      "inputs": [
        {
          "internalType": "uint256",
          "name": "pokemonId",
          "type": "uint256"
        },
        {
          "internalType": "address",
          "name": "bidder",
          "type": "address"
        }
      ],
      "name": "getRevealed",
      "outputs": [
        {
          "internalType": "bool",
          "name": "revealed",
          "type": "bool"
        }
      ],
      "stateMutability": "view",
      "type": "function"
    },
    {
      "inputs": [
        {
          "internalType": "uint256",
          "name": "tokenId",
          "type": "uint256"
        }
      ],
      "name": "getSellerOf",
      "outputs": [
        {
          "internalType": "address",
          "name": "",
          "type": "address"
        }
      ],
      "stateMutability": "view",
      "type": "function"
    },
    {
      "inputs": [
        {
          "internalType": "address",
          "name": "user",
          "type": "address"
        }
      ],
      "name": "getUserListings",
      "outputs": [
        {
          "components": [
            {
              "internalType": "address",
              "name": "seller",
              "type": "address"
            },
            {
              "internalType": "uint256",
              "name": "pokemonId",
              "type": "uint256"
            },
            {
              "internalType": "uint256",
              "name": "price",
              "type": "uint256"
            },
            {
              "internalType": "bool",
              "name": "isAuction",
              "type": "bool"
            },
            {
              "internalType": "uint256",
              "name": "auctionEndTime",
              "type": "uint256"
            },
            {
              "internalType": "uint256",
              "name": "finalizeDelay",
              "type": "uint256"
            }
          ],
          "internalType": "struct TradingContract.Listing[]",
          "name": "",
          "type": "tuple[]"
        }
      ],
      "stateMutability": "view",
      "type": "function"
    },
    {
      "inputs": [
        {
          "internalType": "uint256",
          "name": "pokemonId",
          "type": "uint256"
        },
        {
          "internalType": "address",
          "name": "bidder",
          "type": "address"
        }
      ],
      "name": "hasCommitted",
      "outputs": [
        {
          "internalType": "bool",
          "name": "",
          "type": "bool"
        }
      ],
      "stateMutability": "view",
      "type": "function"
    },
    {
      "inputs": [
        {
          "internalType": "uint256",
          "name": "pokemonId",
          "type": "uint256"
        }
      ],
      "name": "isListed",
      "outputs": [
        {
          "internalType": "bool",
          "name": "",
          "type": "bool"
        }
      ],
      "stateMutability": "view",
      "type": "function"
    },
    {
      "inputs": [
        {
          "internalType": "uint256",
          "name": "pokemonId",
          "type": "uint256"
        },
        {
          "internalType": "uint256",
          "name": "price",
          "type": "uint256"
        },
        {
          "internalType": "bool",
          "name": "isAuction",
          "type": "bool"
        },
        {
          "internalType": "uint256",
          "name": "auctionDuration",
          "type": "uint256"
        },
        {
          "internalType": "uint256",
          "name": "_finalizeDelay",
          "type": "uint256"
        }
      ],
      "name": "listPokemon",
      "outputs": [],
      "stateMutability": "payable",
      "type": "function"
    },
    {
      "inputs": [
        {
          "internalType": "uint256",
          "name": "",
          "type": "uint256"
        }
      ],
      "name": "listings",
      "outputs": [
        {
          "internalType": "address",
          "name": "seller",
          "type": "address"
        },
        {
          "internalType": "uint256",
          "name": "pokemonId",
          "type": "uint256"
        },
        {
          "internalType": "uint256",
          "name": "price",
          "type": "uint256"
        },
        {
          "internalType": "bool",
          "name": "isAuction",
          "type": "bool"
        },
        {
          "internalType": "uint256",
          "name": "auctionEndTime",
          "type": "uint256"
        },
        {
          "internalType": "uint256",
          "name": "finalizeDelay",
          "type": "uint256"
        }
      ],
      "stateMutability": "view",
      "type": "function"
    },
    {
      "inputs": [
        {
          "internalType": "address",
          "name": "operator",
          "type": "address"
        },
        {
          "internalType": "address",
          "name": "from",
          "type": "address"
        },
        {
          "internalType": "uint256",
          "name": "tokenId",
          "type": "uint256"
        },
        {
          "internalType": "bytes",
          "name": "data",
          "type": "bytes"
        }
      ],
      "name": "onERC721Received",
      "outputs": [
        {
          "internalType": "bytes4",
          "name": "",
          "type": "bytes4"
        }
      ],
      "stateMutability": "nonpayable",
      "type": "function"
    },
    {
      "inputs": [],
      "name": "owner",
      "outputs": [
        {
          "internalType": "address",
          "name": "",
          "type": "address"
        }
      ],
      "stateMutability": "view",
      "type": "function"
    },
    {
      "inputs": [],
      "name": "pause",
      "outputs": [],
      "stateMutability": "nonpayable",
      "type": "function"
    },
    {
      "inputs": [],
      "name": "paused",
      "outputs": [
        {
          "internalType": "bool",
          "name": "",
          "type": "bool"
        }
      ],
      "stateMutability": "view",
      "type": "function"
    },
    {
      "inputs": [
        {
          "internalType": "address",
          "name": "",
          "type": "address"
        }
      ],
      "name": "pendingRefunds",
      "outputs": [
        {
          "internalType": "uint256",
          "name": "",
          "type": "uint256"
        }
      ],
      "stateMutability": "view",
      "type": "function"
    },
    {
      "inputs": [],
      "name": "pokemonContract",
      "outputs": [
        {
          "internalType": "contract IERC721",
          "name": "",
          "type": "address"
        }
      ],
      "stateMutability": "view",
      "type": "function"
    },
    {
      "inputs": [
        {
          "internalType": "uint256",
          "name": "pokemonId",
          "type": "uint256"
        }
      ],
      "name": "removeListing",
      "outputs": [],
      "stateMutability": "nonpayable",
      "type": "function"
    },
    {
      "inputs": [],
      "name": "renounceOwnership",
      "outputs": [],
      "stateMutability": "nonpayable",
      "type": "function"
    },
    {
      "inputs": [
        {
          "internalType": "uint256",
          "name": "pokemonId",
          "type": "uint256"
        },
        {
          "internalType": "uint256",
          "name": "amount",
          "type": "uint256"
        },
        {
          "internalType": "string",
          "name": "salt",
          "type": "string"
        }
      ],
      "name": "revealBid",
      "outputs": [],
      "stateMutability": "nonpayable",
      "type": "function"
    },
    {
      "inputs": [
        {
          "internalType": "address",
          "name": "newOwner",
          "type": "address"
        }
      ],
      "name": "transferOwnership",
      "outputs": [],
      "stateMutability": "nonpayable",
      "type": "function"
    },
    {
      "inputs": [],
      "name": "unpause",
      "outputs": [],
      "stateMutability": "nonpayable",
      "type": "function"
    },
    {
      "inputs": [],
      "name": "withdrawRefund",
      "outputs": [],
      "stateMutability": "nonpayable",
      "type": "function"
    }
  ],
  "bytecode": "0x608060405234801561001057600080fd5b50604051612bd2380380612bd283398101604081905261002f916100db565b6001600055338061005a57604051631e4fbdf760e01b81526000600482015260240160405180910390fd5b61006381610089565b50600280546001600160a01b0319166001600160a01b039290921691909117905561010b565b600180546001600160a01b038381166001600160a01b0319831681179093556040519116919082907f8be0079c531659141344cd1fd0a4f28419497f9722a3daafe3b4186f6b6457e090600090a35050565b6000602082840312156100ed57600080fd5b81516001600160a01b038116811461010457600080fd5b9392505050565b612ab88061011a6000396000f3fe60806040526004361061021a5760003560e01c806389fb268211610123578063c2f50a7a116100ab578063e80838631161006f578063e808386314610715578063e90d4c0614610735578063eb18a9d8146107bd578063f2fde38b146107dd578063fcce4883146107fd57600080fd5b8063c2f50a7a14610621578063d6033f8914610636578063d75efef014610649578063de74e57b1461065c578063e3b6a1f6146106f557600080fd5b8063a1452828116100f2578063a145282814610554578063a489d5d714610574578063a99ef9f514610594578063ad9f20a6146105d9578063b613b114146105f457600080fd5b806389fb26821461047c5780638da5cb5b146104ed5780638f194b701461050b5780639468cb611461054157600080fd5b80634726f5ef116101a65780635c975abb116101755780635c975abb146103e05780636d50905f146103ff578063715018a61461043757806375fe0ba61461044c5780638456cb591461046757600080fd5b80634726f5ef14610351578063479ad4c31461037357806348a822a3146103935780634d91e1f7146103c357600080fd5b8063150b7a02116101ed578063150b7a02146102a857806327714f2a146102e157806332a428f2146102f85780633f4ba83a146103255780633fb351781461033a57600080fd5b80630128fd171461021f57806301c11d9614610247578063107a274a14610264578063110f887414610291575b600080fd5b34801561022b57600080fd5b50610234607881565b6040519081526020015b60405180910390f35b34801561025357600080fd5b5061023468056bc75e2d6310000081565b34801561027057600080fd5b5061028461027f36600461260a565b610835565b60405161023e9190612665565b34801561029d57600080fd5b506102a66108a3565b005b3480156102b457600080fd5b506102c86102c3366004612688565b610989565b6040516001600160e01b0319909116815260200161023e565b3480156102ed57600080fd5b506102346201518081565b34801561030457600080fd5b5061023461031336600461260a565b60086020526000908152604090205481565b34801561033157600080fd5b506102a6610a3f565b34801561034657600080fd5b5061023462093a8081565b34801561035d57600080fd5b50610366610a4f565b60405161023e9190612729565b34801561037f57600080fd5b506102a661038e36600461260a565b610b69565b34801561039f57600080fd5b506103b36103ae366004612777565b610e7a565b604051901515815260200161023e565b3480156103cf57600080fd5b50610234680ad78ebc5ac620000081565b3480156103ec57600080fd5b50600154600160a01b900460ff166103b3565b34801561040b57600080fd5b5060025461041f906001600160a01b031681565b6040516001600160a01b03909116815260200161023e565b34801561044357600080fd5b506102a6610eaa565b34801561045857600080fd5b506102346605543df729c00081565b34801561047357600080fd5b506102a6610ebc565b34801561048857600080fd5b506104d2610497366004612777565b60009182526005602090815260408084206001600160a01b03939093168452919052902080546002820154600390920154909260ff90921691565b6040805193845291151560208401529082015260600161023e565b3480156104f957600080fd5b506001546001600160a01b031661041f565b34801561051757600080fd5b5061041f61052636600461260a565b6000908152600460205260409020546001600160a01b031690565b6102a661054f3660046127a7565b610ecc565b34801561056057600080fd5b5061041f61056f3660046127a7565b6111d3565b34801561058057600080fd5b506102a661058f3660046127df565b61120b565b3480156105a057600080fd5b506103b36105af366004612777565b60009182526005602090815260408084206001600160a01b03939093168452919052902054151590565b3480156105e557600080fd5b5061023466038d7ea4c6800081565b34801561060057600080fd5b5061023461060f3660046128ab565b60076020526000908152604090205481565b34801561062d57600080fd5b50610234606481565b6102a66106443660046128cf565b6113ee565b6102a661065736600461260a565b6117bb565b34801561066857600080fd5b506106bc61067736600461260a565b60046020819052600091825260409091208054600182015460028301546003840154948401546005909401546001600160a01b03909316949193909260ff9092169186565b604080516001600160a01b03909716875260208701959095529385019290925215156060840152608083015260a082015260c00161023e565b34801561070157600080fd5b5061023461071036600461260a565b611abf565b34801561072157600080fd5b506102a661073036600461260a565b611ae0565b34801561074157600080fd5b5061078e610750366004612777565b6005602090815260009283526040808420909152908252902080546001820154600283015460038401546004909401549293919260ff909116919085565b60405161023e959493929190948552602085019390935290151560408401526060830152608082015260a00190565b3480156107c957600080fd5b506103666107d83660046128ab565b61212e565b3480156107e957600080fd5b506102a66107f83660046128ab565b612314565b34801561080957600080fd5b506103b361081836600461260a565b6000908152600460205260409020546001600160a01b0316151590565b61083d612597565b50600090815260046020818152604092839020835160c08101855281546001600160a01b03168152600182015492810192909252600281015493820193909352600383015460ff161515606082015290820154608082015260059091015460a082015290565b6108ab61234f565b6108b3612379565b336000908152600760205260409020548061090b5760405162461bcd60e51b81526020600482015260136024820152724e6f20726566756e6420617661696c61626c6560681b60448201526064015b60405180910390fd5b336000818152600760205260408082208290555183156108fc0291849190818181858888f19350505050158015610946573d6000803e3d6000fd5b5060405181815233907f7084f5476618d8e60b11ef0d7d3f06914655adb8793e28ff7f018d4c76d505d59060200160405180910390a2506109876001600055565b565b6002546000906001600160a01b031633146109f25760405162461bcd60e51b8152602060048201526024808201527f4f6e6c7920506f6b656d6f6e436f6e747261637420746f6b656e7320616363656044820152631c1d195960e21b6064820152608401610902565b7fa83965f0e7c5e026e57c9ba2dd91e4ebcca352f2d514498c1e9ed23ba6538600868686604051610a259392919061291d565b60405180910390a150630a85bd0160e11b95945050505050565b610a476123a4565b6109876123d1565b60035460609060008167ffffffffffffffff811115610a7057610a706127c9565b604051908082528060200260200182016040528015610aa957816020015b610a96612597565b815260200190600190039081610a8e5790505b50905060005b82811015610b62576004600060038381548110610ace57610ace612941565b600091825260208083209091015483528281019390935260409182019020815160c08101835281546001600160a01b03168152600182015493810193909352600281015491830191909152600381015460ff1615156060830152600481015460808301526005015460a08201528251839083908110610b4f57610b4f612941565b6020908102919091010152600101610aaf565b5092915050565b60008181526004602052604090205481906001600160a01b03163314610ba15760405162461bcd60e51b815260040161090290612957565b610ba961234f565b610bb1612379565b600082815260046020526040902080546001600160a01b0316610c0f5760405162461bcd60e51b8152602060048201526016602482015275131a5cdd1a5b99c8191bd95cc81b9bdd08195e1a5cdd60521b6044820152606401610902565b600381015460ff1615610d8b5780600401544210610c815760405162461bcd60e51b815260206004820152602960248201527f43616e6e6f742072656d6f7665206c697374696e6720616674657220617563746044820152681a5bdb88195b99195960ba1b6064820152608401610902565b60005b600084815260066020526040902054811015610d73576000848152600660205260408120805483908110610cba57610cba612941565b60009182526020808320909101548783526005825260408084206001600160a01b0390921680855291909252912080549192509015610d695760018101546001600160a01b03831660009081526007602052604081208054909190610d209084906129b0565b909155505060008681526005602090815260408083206001600160a01b038616845290915281208181556001810182905560028101805460ff1916905560038101829055600401555b5050600101610c84565b506000838152600660205260408120610d8b916125d8565b6002548154604051632142170760e11b81526001600160a01b03928316926342842e0e92610dc392309290911690889060040161291d565b600060405180830381600087803b158015610ddd57600080fd5b505af1158015610df1573d6000803e3d6000fd5b50506040518592507f51a9d0860a9b8ef69e7cd2cc93e90cff1b4cf1433a5cffbe7394d0aa6f994b329150600090a26000838152600460208190526040822080546001600160a01b0319168155600181018390556002810183905560038101805460ff1916905590810182905560050155610e6b83612426565b50610e766001600055565b5050565b60008281526005602090815260408083206001600160a01b038516845290915290206002015460ff165b92915050565b610eb26123a4565b61098760006124d8565b610ec46123a4565b61098761252a565b600082815260046020526040902060030154829060ff16610eff5760405162461bcd60e51b8152600401610902906129c3565b600081815260046020819052604090912001544210610f505760405162461bcd60e51b815260206004820152600d60248201526c105d58dd1a5bdb88195b991959609a1b6044820152606401610902565b610f58612379565b6000838152600460205260409020600381015460ff16610f8a5760405162461bcd60e51b8152600401610902906129c3565b60008481526005602090815260408083203384529091529020805415610fe65760405162461bcd60e51b8152602060048201526011602482015270105b1c9958591e4818dbdb5b5a5d1d1959607a1b6044820152606401610902565b81600201543410156110455760405162461bcd60e51b815260206004820152602260248201527f426964206d757374206265206174206c65617374206d696e696d756d20707269604482015261636560f01b6064820152608401610902565b680ad78ebc5ac620000034111561109e5760405162461bcd60e51b815260206004820152601b60248201527f4269642065786365656473206d6178696d756d20616c6c6f77656400000000006044820152606401610902565b81546001600160a01b031633036111065760405162461bcd60e51b815260206004820152602660248201527f53656c6c65722063616e6e6f7420626964206f6e207468656972206f776e206c604482015265697374696e6760d01b6064820152608401610902565b6040805160a08101825285815234602080830191825260008385018181526060850182815242608087019081528c84526005855287842033808652908652888520975188559551600180890191909155925160028801805460ff191691151591909117905590516003870155516004909501949094558981526006825284812080549485018155815290812090920180546001600160a01b03191682179055915187917f0934ea4de468dcd0d9a335c5f97aa77955310c29631c93fbd01d95a00242ec4191a35050505050565b600660205281600052604060002081815481106111ef57600080fd5b6000918252602090912001546001600160a01b03169150829050565b6000838152600460205260409020600381015460ff1661123d5760405162461bcd60e51b8152600401610902906129c3565b80600401544210156112855760405162461bcd60e51b8152602060048201526011602482015270105d58dd1a5bdb881b9bdd08195b991959607a1b6044820152606401610902565b6000848152600560209081526040808320338452909152902080546112e25760405162461bcd60e51b8152602060048201526013602482015272139bc818dbdb5b5a5d1b595b9d08199bdd5b99606a1b6044820152606401610902565b600281015460ff161561132a5760405162461bcd60e51b815260206004820152601060248201526f105b1c9958591e481c995d99585b195960821b6044820152606401610902565b805460405161133f90869086906020016129eb565b60405160208183030381529060405280519060200120146113935760405162461bcd60e51b815260206004820152600e60248201526d125b9d985b1a59081c995d99585b60921b6044820152606401610902565b60028101805460ff1916600117905560038101849055604051339086907f86d2fbc9069d34216ebc65b38ce840528d3f8cac0c86d2aaa7ab6a9db8bc35d3906113df9088815260200190565b60405180910390a35050505050565b6002546040516331a9108f60e11b815260048101879052869133916001600160a01b0390911690636352211e90602401602060405180830381865afa15801561143b573d6000803e3d6000fd5b505050506040513d601f19601f8201168201806040525081019061145f9190612a23565b6001600160a01b0316146114855760405162461bcd60e51b815260040161090290612957565b61148d612379565b66038d7ea4c6800085101580156114ad575068056bc75e2d631000008511155b6114e95760405162461bcd60e51b815260206004820152600d60248201526c496e76616c696420707269636560981b6044820152606401610902565b83156115fd576605543df729c0003410156115515760405162461bcd60e51b815260206004820152602260248201527f4d7573742073656e642045544820666f722066696e616c697a657220726577616044820152611c9960f21b6064820152608401610902565b60648310158015611565575062093a808311155b6115a45760405162461bcd60e51b815260206004820152601060248201526f24b73b30b634b210323ab930ba34b7b760811b6044820152606401610902565b607882101580156115b85750620151808211155b6115fd5760405162461bcd60e51b8152602060048201526016602482015275496e76616c69642066696e616c697a652064656c617960501b6044820152606401610902565b6040518060c00160405280336001600160a01b03168152602001878152602001868152602001851515815260200185611637576000611641565b61164185426129b0565b815260200185611652576000611654565b835b90526000878152600460208181526040808420855181546001600160a01b0319166001600160a01b039091161781559185015160018084019190915590850151600283015560608501516003808401805460ff19169215159290921790915560808601519383019390935560a0909401516005909101558054928301815590527fc2575a0e9e593c00f959f8c92f12db2869c3395a3b0502d05e2516446f71f85b0186905583156117115760008681526008602052604090203490555b600254604051632142170760e11b81526001600160a01b03909116906342842e0e9061174590339030908b9060040161291d565b600060405180830381600087803b15801561175f57600080fd5b505af1158015611773573d6000803e3d6000fd5b50506040805188815287151560208201528993507fec2862227fb8941dc82b951797d099c179ce97a30bf0174bf1697d1c01d8748b92500160405180910390a2505050505050565b6117c361234f565b6117cb612379565b6000818152600460205260409020600381015460ff16156118545760405162461bcd60e51b815260206004820152603760248201527f506f6b656d6f6e206973206c697374656420666f7220616e2061756374696f6e60448201527f2c206e6f7420666f7220612066697865642070726963650000000000000000006064820152608401610902565b80600201543410156118a85760405162461bcd60e51b815260206004820152601e60248201527f496e73756666696369656e742066756e647320746f20707572636861736500006044820152606401610902565b80546001600160a01b03166118f85760405162461bcd60e51b8152602060048201526016602482015275131a5cdd1a5b99c8191bd95cc81b9bdd08195e1a5cdd60521b6044820152606401610902565b8054336001600160a01b03909116036119535760405162461bcd60e51b815260206004820152601b60248201527f43616e6e6f742062757920796f7572206f776e206c697374696e6700000000006044820152606401610902565b600254604051632142170760e11b81526001600160a01b03909116906342842e0e906119879030903390879060040161291d565b600060405180830381600087803b1580156119a157600080fd5b505af11580156119b5573d6000803e3d6000fd5b505082546040516001600160a01b0390911692503480156108fc029250906000818181858888f193505050501580156119f2573d6000803e3d6000fd5b50336001600160a01b0316827fe89ee650d68ca71d565381bf8c4b50ef47da5452d8df24d949380bee65d337578360020154604051611a3391815260200190565b60405180910390a36000828152600460208190526040822080546001600160a01b0319168155600181018390556002810183905560038101805460ff1916905590810182905560050155611a8682612426565b60405182907f51a9d0860a9b8ef69e7cd2cc93e90cff1b4cf1433a5cffbe7394d0aa6f994b3290600090a250611abc6001600055565b50565b60038181548110611acf57600080fd5b600091825260209091200154905081565b611ae861234f565b611af0612379565b6000818152600460205260409020600381015460ff16611b225760405162461bcd60e51b8152600401610902906129c3565b80600501548160040154611b3691906129b0565b421015611b9d5760405162461bcd60e51b815260206004820152602f60248201527f43616e6e6f742066696e616c697a6520796574202d2077616974696e6720666f60448201526e722072657665616c2077696e646f7760881b6064820152608401610902565b6000828152600860205260408120548190819060001990825b600088815260066020526040902054811015611de2576000888152600660205260408120805483908110611bec57611bec612941565b60009182526020808320909101548b83526005825260408084206001600160a01b0390921680855291909252912060028101549192509060ff16611c645760018101546001600160a01b03831660009081526007602052604081208054909190611c579084906129b0565b90915550611dda92505050565b858160030154118015611c7f57508060010154816003015411155b15611cf0576001600160a01b03871615611cd75760008a81526005602090815260408083206001600160a01b038b16845282528083206001015460079092528220805491929091611cd19084906129b0565b90915550505b8060030154955081975080600401549450819650611dd7565b858160030154148015611d0b57508060010154816003015411155b8015611d1a5750848160040154105b15611da4576001600160a01b03871615801590611d495750816001600160a01b0316876001600160a01b031614155b15611d925760008a81526005602090815260408083206001600160a01b038b16845282528083206001015460079092528220805491929091611d8c9084906129b0565b90915550505b81975080600401549450819650611dd7565b60018101546001600160a01b03831660009081526007602052604081208054909190611dd19084906129b0565b90915550505b50505b600101611bb6565b5060005b600088815260066020526040902054811015611e79576000888152600660205260408120805483908110611e1c57611e1c612941565b60009182526020808320909101548b83526005825260408084206001600160a01b03909216845291528120818155600181810183905560028201805460ff1916905560038201839055600490910191909155919091019050611de6565b506001600160a01b038516611f3b576002548654604051632142170760e11b81526001600160a01b03928316926342842e0e92611ec0923092909116908c9060040161291d565b600060405180830381600087803b158015611eda57600080fd5b505af1158015611eee573d6000803e3d6000fd5b50508754604051600081526001600160a01b0390911692508991507fe89ee650d68ca71d565381bf8c4b50ef47da5452d8df24d949380bee65d337579060200160405180910390a3612020565b600254604051632142170760e11b81526001600160a01b03909116906342842e0e90611f6f90309089908c9060040161291d565b600060405180830381600087803b158015611f8957600080fd5b505af1158015611f9d573d6000803e3d6000fd5b505087546040516001600160a01b03909116925085156108fc02915085906000818181858888f19350505050158015611fda573d6000803e3d6000fd5b50846001600160a01b0316877fe89ee650d68ca71d565381bf8c4b50ef47da5452d8df24d949380bee65d337578560405161201791815260200190565b60405180910390a35b80156120845733600090815260076020526040812080548392906120459084906129b0565b909155505060408051338152602081018390527fe2403640ba68fed3a2f88b7557551d1993f84b99bb10ff833f0cf8db0c5e0486910160405180910390a15b6000878152600460208190526040822080546001600160a01b0319168155600181018390556002810183905560038101805460ff19169055908101829055600501556120cf87612426565b6000878152600860209081526040808320839055600690915281206120f3916125d8565b60405187907f51a9d0860a9b8ef69e7cd2cc93e90cff1b4cf1433a5cffbe7394d0aa6f994b3290600090a2505050505050611abc6001600055565b60606000805b60035481101561219f57836001600160a01b0316600460006003848154811061215f5761215f612941565b600091825260208083209091015483528201929092526040019020546001600160a01b031603612197578161219381612a40565b9250505b600101612134565b5060008167ffffffffffffffff8111156121bb576121bb6127c9565b6040519080825280602002602001820160405280156121f457816020015b6121e1612597565b8152602001906001900390816121d95790505b5090506000805b60035481101561230a57856001600160a01b0316600460006003848154811061222657612226612941565b600091825260208083209091015483528201929092526040019020546001600160a01b03160361230257600460006003838154811061226757612267612941565b600091825260208083209091015483528281019390935260409182019020815160c08101835281546001600160a01b03168152600182015493810193909352600281015491830191909152600381015460ff1615156060830152600481015460808301526005015460a082015283518490849081106122e8576122e8612941565b602002602001018190525081806122fe90612a40565b9250505b6001016121fb565b5090949350505050565b61231c6123a4565b6001600160a01b03811661234657604051631e4fbdf760e01b815260006004820152602401610902565b611abc816124d8565b60026000540361237257604051633ee5aeb560e01b815260040160405180910390fd5b6002600055565b600154600160a01b900460ff16156109875760405163d93c066560e01b815260040160405180910390fd5b6001546001600160a01b031633146109875760405163118cdaa760e01b8152336004820152602401610902565b6123d961256d565b6001805460ff60a01b191690557f5db9ee0a495bf2e6ff9c91a7834c1ba4fdd244a5e8aa4e537bd38aeae4b073aa335b6040516001600160a01b03909116815260200160405180910390a1565b60035460005b818110156124d357826003828154811061244857612448612941565b9060005260206000200154036124cb576003612465600184612a59565b8154811061247557612475612941565b90600052602060002001546003828154811061249357612493612941565b60009182526020909120015560038054806124b0576124b0612a6c565b60019003818190600052602060002001600090559055505050565b60010161242c565b505050565b600180546001600160a01b038381166001600160a01b0319831681179093556040519116919082907f8be0079c531659141344cd1fd0a4f28419497f9722a3daafe3b4186f6b6457e090600090a35050565b612532612379565b6001805460ff60a01b1916600160a01b1790557f62e78cea01bee320cd4e420270b5ea74000d11b0c9f74754ebdbfc544b05a2586124093390565b600154600160a01b900460ff1661098757604051638dfc202b60e01b815260040160405180910390fd5b6040518060c0016040528060006001600160a01b03168152602001600081526020016000815260200160001515815260200160008152602001600081525090565b5080546000825590600052602060002090810190611abc91905b8082111561260657600081556001016125f2565b5090565b60006020828403121561261c57600080fd5b5035919050565b80516001600160a01b0316825260208082015190830152604080820151908301526060808201511515908301526080808201519083015260a090810151910152565b60c08101610ea48284612623565b6001600160a01b0381168114611abc57600080fd5b6000806000806000608086880312156126a057600080fd5b85356126ab81612673565b945060208601356126bb81612673565b935060408601359250606086013567ffffffffffffffff8111156126de57600080fd5b8601601f810188136126ef57600080fd5b803567ffffffffffffffff81111561270657600080fd5b88602082840101111561271857600080fd5b959894975092955050506020019190565b602080825282518282018190526000918401906040840190835b8181101561276c57612756838551612623565b6020939093019260c09290920191600101612743565b509095945050505050565b6000806040838503121561278a57600080fd5b82359150602083013561279c81612673565b809150509250929050565b600080604083850312156127ba57600080fd5b50508035926020909101359150565b634e487b7160e01b600052604160045260246000fd5b6000806000606084860312156127f457600080fd5b8335925060208401359150604084013567ffffffffffffffff81111561281957600080fd5b8401601f8101861361282a57600080fd5b803567ffffffffffffffff811115612844576128446127c9565b604051601f8201601f19908116603f0116810167ffffffffffffffff81118282101715612873576128736127c9565b60405281815282820160200188101561288b57600080fd5b816020840160208301376000602083830101528093505050509250925092565b6000602082840312156128bd57600080fd5b81356128c881612673565b9392505050565b600080600080600060a086880312156128e757600080fd5b85359450602086013593506040860135801515811461290557600080fd5b94979396509394606081013594506080013592915050565b6001600160a01b039384168152919092166020820152604081019190915260600190565b634e487b7160e01b600052603260045260246000fd5b60208082526023908201527f596f75206d757374206f776e2074686520506f6b656d6f6e20746f206c697374604082015262081a5d60ea1b606082015260800190565b634e487b7160e01b600052601160045260246000fd5b80820180821115610ea457610ea461299a565b6020808252600e908201526d2737ba1030b71030bab1ba34b7b760911b604082015260600190565b8281526000825160005b81811015612a11576020818601810151858301820152016129f5565b50600092016020019182525092915050565b600060208284031215612a3557600080fd5b81516128c881612673565b600060018201612a5257612a5261299a565b5060010190565b81810381811115610ea457610ea461299a565b634e487b7160e01b600052603160045260246000fdfea2646970667358221220fbe3845b0cee2a57def719b6c97dec04082c33958b4419c30b389c7345d4c7e764736f6c634300081c0033",
  "linkReferences": {},
  "deployedLinkReferences": {}
}