{
  "_format": "hh-sol-artifact-1",
  "contractName": "TradingContract",
  "sourceName": "contracts/TradingContract.sol",
  "abi": [
    {
      "inputs": [
        {
          "internalType": "address",
          "name": "_pokemonContract",
          "type": "address"
        }
      ],
      "stateMutability": "nonpayable",
      "type": "constructor"
    },
    {
      "inputs": [],
      "name": "EnforcedPause",
      "type": "error"
    },
    {
      "inputs": [],
      "name": "ExpectedPause",
      "type": "error"
    },
    {
      "inputs": [
        {
          "internalType": "address",
          "name": "owner",
          "type": "address"
        }
      ],
      "name": "OwnableInvalidOwner",
      "type": "error"
    },
    {
      "inputs": [
        {
          "internalType": "address",
          "name": "account",
          "type": "address"
        }
      ],
      "name": "OwnableUnauthorizedAccount",
      "type": "error"
    },
    {
      "inputs": [],
      "name": "ReentrancyGuardReentrantCall",
      "type": "error"
    },
    {
      "anonymous": false,
      "inputs": [
        {
          "indexed": true,
          "internalType": "uint256",
          "name": "pokemonId",
          "type": "uint256"
        },
        {
          "indexed": true,
          "internalType": "address",
          "name": "bidder",
          "type": "address"
        }
      ],
      "name": "BidCommitted",
      "type": "event"
    },
    {
      "anonymous": false,
      "inputs": [
        {
          "indexed": true,
          "internalType": "uint256",
          "name": "pokemonId",
          "type": "uint256"
        },
        {
          "indexed": true,
          "internalType": "address",
          "name": "bidder",
          "type": "address"
        },
        {
          "indexed": false,
          "internalType": "uint256",
          "name": "amount",
          "type": "uint256"
        }
      ],
      "name": "BidRevealed",
      "type": "event"
    },
    {
      "anonymous": false,
      "inputs": [
        {
          "indexed": true,
          "internalType": "uint256",
          "name": "pokemonId",
          "type": "uint256"
        },
        {
          "indexed": false,
          "internalType": "uint256",
          "name": "price",
          "type": "uint256"
        },
        {
          "indexed": false,
          "internalType": "bool",
          "name": "isAuction",
          "type": "bool"
        }
      ],
      "name": "Listed",
      "type": "event"
    },
    {
      "anonymous": false,
      "inputs": [
        {
          "indexed": true,
          "internalType": "uint256",
          "name": "pokemonId",
          "type": "uint256"
        }
      ],
      "name": "ListingRemoved",
      "type": "event"
    },
    {
      "anonymous": false,
      "inputs": [
        {
          "indexed": true,
          "internalType": "address",
          "name": "previousOwner",
          "type": "address"
        },
        {
          "indexed": true,
          "internalType": "address",
          "name": "newOwner",
          "type": "address"
        }
      ],
      "name": "OwnershipTransferred",
      "type": "event"
    },
    {
      "anonymous": false,
      "inputs": [
        {
          "indexed": false,
          "internalType": "address",
          "name": "account",
          "type": "address"
        }
      ],
      "name": "Paused",
      "type": "event"
    },
    {
      "anonymous": false,
      "inputs": [
        {
          "indexed": true,
          "internalType": "uint256",
          "name": "pokemonId",
          "type": "uint256"
        },
        {
          "indexed": false,
          "internalType": "uint256",
          "name": "price",
          "type": "uint256"
        },
        {
          "indexed": true,
          "internalType": "address",
          "name": "buyer",
          "type": "address"
        }
      ],
      "name": "PokemonSold",
      "type": "event"
    },
    {
      "anonymous": false,
      "inputs": [
        {
          "indexed": false,
          "internalType": "address",
          "name": "finalizer",
          "type": "address"
        },
        {
          "indexed": false,
          "internalType": "uint256",
          "name": "rewardAmount",
          "type": "uint256"
        }
      ],
      "name": "RewardPaid",
      "type": "event"
    },
    {
      "anonymous": false,
      "inputs": [
        {
          "indexed": false,
          "internalType": "address",
          "name": "operator",
          "type": "address"
        },
        {
          "indexed": false,
          "internalType": "address",
          "name": "from",
          "type": "address"
        },
        {
          "indexed": false,
          "internalType": "uint256",
          "name": "tokenId",
          "type": "uint256"
        }
      ],
      "name": "TokenReceived",
      "type": "event"
    },
    {
      "anonymous": false,
      "inputs": [
        {
          "indexed": false,
          "internalType": "address",
          "name": "account",
          "type": "address"
        }
      ],
      "name": "Unpaused",
      "type": "event"
    },
    {
      "anonymous": false,
      "inputs": [
        {
          "indexed": true,
          "internalType": "address",
          "name": "user",
          "type": "address"
        },
        {
          "indexed": false,
          "internalType": "uint256",
          "name": "amount",
          "type": "uint256"
        }
      ],
      "name": "Withdrawn",
      "type": "event"
    },
    {
      "inputs": [],
      "name": "FINALIZER_FEE",
      "outputs": [
        {
          "internalType": "uint256",
          "name": "",
          "type": "uint256"
        }
      ],
      "stateMutability": "view",
      "type": "function"
    },
    {
      "inputs": [
        {
          "internalType": "uint256",
          "name": "",
          "type": "uint256"
        }
      ],
      "name": "activeListingIds",
      "outputs": [
        {
          "internalType": "uint256",
          "name": "",
          "type": "uint256"
        }
      ],
      "stateMutability": "view",
      "type": "function"
    },
    {
      "inputs": [
        {
          "internalType": "uint256",
          "name": "",
          "type": "uint256"
        }
      ],
      "name": "auctionRewards",
      "outputs": [
        {
          "internalType": "uint256",
          "name": "",
          "type": "uint256"
        }
      ],
      "stateMutability": "view",
      "type": "function"
    },
    {
      "inputs": [
        {
          "internalType": "uint256",
          "name": "pokemonId",
          "type": "uint256"
        }
      ],
      "name": "buyPokemon",
      "outputs": [],
      "stateMutability": "payable",
      "type": "function"
    },
    {
      "inputs": [
        {
          "internalType": "uint256",
          "name": "pokemonId",
          "type": "uint256"
        },
        {
          "internalType": "bytes32",
          "name": "commitHash",
          "type": "bytes32"
        }
      ],
      "name": "commitBid",
      "outputs": [],
      "stateMutability": "payable",
      "type": "function"
    },
    {
      "inputs": [
        {
          "internalType": "uint256",
          "name": "",
          "type": "uint256"
        },
        {
          "internalType": "address",
          "name": "",
          "type": "address"
        }
      ],
      "name": "commitments",
      "outputs": [
        {
          "internalType": "bytes32",
          "name": "commitHash",
          "type": "bytes32"
        },
        {
          "internalType": "uint256",
          "name": "deposit",
          "type": "uint256"
        },
        {
          "internalType": "bool",
          "name": "revealed",
          "type": "bool"
        },
        {
          "internalType": "uint256",
          "name": "revealedAmount",
          "type": "uint256"
        },
        {
          "internalType": "uint256",
          "name": "commitTime",
          "type": "uint256"
        }
      ],
      "stateMutability": "view",
      "type": "function"
    },
    {
      "inputs": [
        {
          "internalType": "uint256",
          "name": "",
          "type": "uint256"
        },
        {
          "internalType": "uint256",
          "name": "",
          "type": "uint256"
        }
      ],
      "name": "committedBidders",
      "outputs": [
        {
          "internalType": "address",
          "name": "",
          "type": "address"
        }
      ],
      "stateMutability": "view",
      "type": "function"
    },
    {
      "inputs": [
        {
          "internalType": "uint256",
          "name": "pokemonId",
          "type": "uint256"
        }
      ],
      "name": "finalizeAuction",
      "outputs": [],
      "stateMutability": "nonpayable",
      "type": "function"
    },
    {
      "inputs": [],
      "name": "getAllListingsWithDetails",
      "outputs": [
        {
          "components": [
            {
              "internalType": "address",
              "name": "seller",
              "type": "address"
            },
            {
              "internalType": "uint256",
              "name": "pokemonId",
              "type": "uint256"
            },
            {
              "internalType": "uint256",
              "name": "price",
              "type": "uint256"
            },
            {
              "internalType": "bool",
              "name": "isAuction",
              "type": "bool"
            },
            {
              "internalType": "uint256",
              "name": "auctionEndTime",
              "type": "uint256"
            },
            {
              "internalType": "uint256",
              "name": "finalizeDelay",
              "type": "uint256"
            }
          ],
          "internalType": "struct TradingContract.Listing[]",
          "name": "",
          "type": "tuple[]"
        }
      ],
      "stateMutability": "view",
      "type": "function"
    },
    {
      "inputs": [
        {
          "internalType": "uint256",
          "name": "pokemonId",
          "type": "uint256"
        },
        {
          "internalType": "address",
          "name": "bidder",
          "type": "address"
        }
      ],
      "name": "getCommitment",
      "outputs": [
        {
          "internalType": "bytes32",
          "name": "commitHash",
          "type": "bytes32"
        },
        {
          "internalType": "bool",
          "name": "revealed",
          "type": "bool"
        },
        {
          "internalType": "uint256",
          "name": "revealedAmount",
          "type": "uint256"
        }
      ],
      "stateMutability": "view",
      "type": "function"
    },
    {
      "inputs": [
        {
          "internalType": "uint256",
          "name": "pokemonId",
          "type": "uint256"
        }
      ],
      "name": "getListing",
      "outputs": [
        {
          "components": [
            {
              "internalType": "address",
              "name": "seller",
              "type": "address"
            },
            {
              "internalType": "uint256",
              "name": "pokemonId",
              "type": "uint256"
            },
            {
              "internalType": "uint256",
              "name": "price",
              "type": "uint256"
            },
            {
              "internalType": "bool",
              "name": "isAuction",
              "type": "bool"
            },
            {
              "internalType": "uint256",
              "name": "auctionEndTime",
              "type": "uint256"
            },
            {
              "internalType": "uint256",
              "name": "finalizeDelay",
              "type": "uint256"
            }
          ],
          "internalType": "struct TradingContract.Listing",
          "name": "",
          "type": "tuple"
        }
      ],
      "stateMutability": "view",
      "type": "function"
    },
    {
      "inputs": [
        {
          "internalType": "uint256",
          "name": "pokemonId",
          "type": "uint256"
        },
        {
          "internalType": "address",
          "name": "bidder",
          "type": "address"
        }
      ],
      "name": "getRevealed",
      "outputs": [
        {
          "internalType": "bool",
          "name": "revealed",
          "type": "bool"
        }
      ],
      "stateMutability": "view",
      "type": "function"
    },
    {
      "inputs": [
        {
          "internalType": "uint256",
          "name": "tokenId",
          "type": "uint256"
        }
      ],
      "name": "getSellerOf",
      "outputs": [
        {
          "internalType": "address",
          "name": "",
          "type": "address"
        }
      ],
      "stateMutability": "view",
      "type": "function"
    },
    {
      "inputs": [
        {
          "internalType": "address",
          "name": "user",
          "type": "address"
        }
      ],
      "name": "getUserListings",
      "outputs": [
        {
          "components": [
            {
              "internalType": "address",
              "name": "seller",
              "type": "address"
            },
            {
              "internalType": "uint256",
              "name": "pokemonId",
              "type": "uint256"
            },
            {
              "internalType": "uint256",
              "name": "price",
              "type": "uint256"
            },
            {
              "internalType": "bool",
              "name": "isAuction",
              "type": "bool"
            },
            {
              "internalType": "uint256",
              "name": "auctionEndTime",
              "type": "uint256"
            },
            {
              "internalType": "uint256",
              "name": "finalizeDelay",
              "type": "uint256"
            }
          ],
          "internalType": "struct TradingContract.Listing[]",
          "name": "",
          "type": "tuple[]"
        }
      ],
      "stateMutability": "view",
      "type": "function"
    },
    {
      "inputs": [
        {
          "internalType": "uint256",
          "name": "pokemonId",
          "type": "uint256"
        },
        {
          "internalType": "address",
          "name": "bidder",
          "type": "address"
        }
      ],
      "name": "hasCommitted",
      "outputs": [
        {
          "internalType": "bool",
          "name": "",
          "type": "bool"
        }
      ],
      "stateMutability": "view",
      "type": "function"
    },
    {
      "inputs": [
        {
          "internalType": "uint256",
          "name": "pokemonId",
          "type": "uint256"
        }
      ],
      "name": "isListed",
      "outputs": [
        {
          "internalType": "bool",
          "name": "",
          "type": "bool"
        }
      ],
      "stateMutability": "view",
      "type": "function"
    },
    {
      "inputs": [
        {
          "internalType": "uint256",
          "name": "pokemonId",
          "type": "uint256"
        },
        {
          "internalType": "uint256",
          "name": "price",
          "type": "uint256"
        },
        {
          "internalType": "bool",
          "name": "isAuction",
          "type": "bool"
        },
        {
          "internalType": "uint256",
          "name": "auctionDuration",
          "type": "uint256"
        },
        {
          "internalType": "uint256",
          "name": "_finalizeDelay",
          "type": "uint256"
        }
      ],
      "name": "listPokemon",
      "outputs": [],
      "stateMutability": "payable",
      "type": "function"
    },
    {
      "inputs": [
        {
          "internalType": "uint256",
          "name": "",
          "type": "uint256"
        }
      ],
      "name": "listings",
      "outputs": [
        {
          "internalType": "address",
          "name": "seller",
          "type": "address"
        },
        {
          "internalType": "uint256",
          "name": "pokemonId",
          "type": "uint256"
        },
        {
          "internalType": "uint256",
          "name": "price",
          "type": "uint256"
        },
        {
          "internalType": "bool",
          "name": "isAuction",
          "type": "bool"
        },
        {
          "internalType": "uint256",
          "name": "auctionEndTime",
          "type": "uint256"
        },
        {
          "internalType": "uint256",
          "name": "finalizeDelay",
          "type": "uint256"
        }
      ],
      "stateMutability": "view",
      "type": "function"
    },
    {
      "inputs": [
        {
          "internalType": "address",
          "name": "operator",
          "type": "address"
        },
        {
          "internalType": "address",
          "name": "from",
          "type": "address"
        },
        {
          "internalType": "uint256",
          "name": "tokenId",
          "type": "uint256"
        },
        {
          "internalType": "bytes",
          "name": "data",
          "type": "bytes"
        }
      ],
      "name": "onERC721Received",
      "outputs": [
        {
          "internalType": "bytes4",
          "name": "",
          "type": "bytes4"
        }
      ],
      "stateMutability": "nonpayable",
      "type": "function"
    },
    {
      "inputs": [],
      "name": "owner",
      "outputs": [
        {
          "internalType": "address",
          "name": "",
          "type": "address"
        }
      ],
      "stateMutability": "view",
      "type": "function"
    },
    {
      "inputs": [],
      "name": "pause",
      "outputs": [],
      "stateMutability": "nonpayable",
      "type": "function"
    },
    {
      "inputs": [],
      "name": "paused",
      "outputs": [
        {
          "internalType": "bool",
          "name": "",
          "type": "bool"
        }
      ],
      "stateMutability": "view",
      "type": "function"
    },
    {
      "inputs": [
        {
          "internalType": "address",
          "name": "",
          "type": "address"
        }
      ],
      "name": "pendingRefunds",
      "outputs": [
        {
          "internalType": "uint256",
          "name": "",
          "type": "uint256"
        }
      ],
      "stateMutability": "view",
      "type": "function"
    },
    {
      "inputs": [],
      "name": "pokemonContract",
      "outputs": [
        {
          "internalType": "contract IERC721",
          "name": "",
          "type": "address"
        }
      ],
      "stateMutability": "view",
      "type": "function"
    },
    {
      "inputs": [
        {
          "internalType": "uint256",
          "name": "pokemonId",
          "type": "uint256"
        }
      ],
      "name": "removeListing",
      "outputs": [],
      "stateMutability": "nonpayable",
      "type": "function"
    },
    {
      "inputs": [],
      "name": "renounceOwnership",
      "outputs": [],
      "stateMutability": "nonpayable",
      "type": "function"
    },
    {
      "inputs": [
        {
          "internalType": "uint256",
          "name": "pokemonId",
          "type": "uint256"
        },
        {
          "internalType": "uint256",
          "name": "amount",
          "type": "uint256"
        },
        {
          "internalType": "string",
          "name": "salt",
          "type": "string"
        }
      ],
      "name": "revealBid",
      "outputs": [],
      "stateMutability": "nonpayable",
      "type": "function"
    },
    {
      "inputs": [
        {
          "internalType": "address",
          "name": "newOwner",
          "type": "address"
        }
      ],
      "name": "transferOwnership",
      "outputs": [],
      "stateMutability": "nonpayable",
      "type": "function"
    },
    {
      "inputs": [],
      "name": "unpause",
      "outputs": [],
      "stateMutability": "nonpayable",
      "type": "function"
    },
    {
      "inputs": [],
      "name": "withdrawRefund",
      "outputs": [],
      "stateMutability": "nonpayable",
      "type": "function"
    }
  ],
  "bytecode": "0x608060405234801561001057600080fd5b50604051612a8b380380612a8b83398101604081905261002f916100db565b6001600055338061005a57604051631e4fbdf760e01b81526000600482015260240160405180910390fd5b61006381610089565b50600880546001600160a01b0319166001600160a01b039290921691909117905561010b565b600180546001600160a01b038381166001600160a01b0319831681179093556040519116919082907f8be0079c531659141344cd1fd0a4f28419497f9722a3daafe3b4186f6b6457e090600090a35050565b6000602082840312156100ed57600080fd5b81516001600160a01b038116811461010457600080fd5b9392505050565b6129718061011a6000396000f3fe6080604052600436106101cd5760003560e01c80638f194b70116100f7578063d75efef011610095578063e90d4c0611610064578063e90d4c061461063f578063eb18a9d8146106c5578063f2fde38b146106e5578063fcce48831461070557600080fd5b8063d75efef014610553578063de74e57b14610566578063e3b6a1f6146105ff578063e80838631461061f57600080fd5b8063a489d5d7116100d1578063a489d5d7146104ae578063a99ef9f5146104ce578063b613b11414610513578063d6033f891461054057600080fd5b80638f194b70146104455780639468cb611461047b578063a14528281461048e57600080fd5b806348a822a31161016f57806375fe0ba61161013e57806375fe0ba6146103865780638456cb59146103a157806389fb2682146103b65780638da5cb5b1461042757600080fd5b806348a822a3146102ea5780635c975abb1461031a5780636d50905f14610339578063715018a61461037157600080fd5b806332a428f2116101ab57806332a428f2146102585780633f4ba83a146102935780634726f5ef146102a8578063479ad4c3146102ca57600080fd5b8063107a274a146101d2578063110f887414610208578063150b7a021461021f575b600080fd5b3480156101de57600080fd5b506101f26101ed3660046124c3565b61073d565b6040516101ff919061251e565b60405180910390f35b34801561021457600080fd5b5061021d6107a9565b005b34801561022b57600080fd5b5061023f61023a366004612541565b61088f565b6040516001600160e01b031990911681526020016101ff565b34801561026457600080fd5b506102856102733660046124c3565b60076020526000908152604090205481565b6040519081526020016101ff565b34801561029f57600080fd5b5061021d610945565b3480156102b457600080fd5b506102bd610955565b6040516101ff91906125e2565b3480156102d657600080fd5b5061021d6102e53660046124c3565b610a6f565b3480156102f657600080fd5b5061030a610305366004612630565b610d7e565b60405190151581526020016101ff565b34801561032657600080fd5b50600154600160a01b900460ff1661030a565b34801561034557600080fd5b50600854610359906001600160a01b031681565b6040516001600160a01b0390911681526020016101ff565b34801561037d57600080fd5b5061021d610dae565b34801561039257600080fd5b506102856605543df729c00081565b3480156103ad57600080fd5b5061021d610dc0565b3480156103c257600080fd5b5061040c6103d1366004612630565b60009182526004602090815260408084206001600160a01b03939093168452919052902080546002820154600390920154909260ff90921691565b604080519384529115156020840152908201526060016101ff565b34801561043357600080fd5b506001546001600160a01b0316610359565b34801561045157600080fd5b506103596104603660046124c3565b6000908152600260205260409020546001600160a01b031690565b61021d610489366004612660565b610dd0565b34801561049a57600080fd5b506103596104a9366004612660565b61107b565b3480156104ba57600080fd5b5061021d6104c9366004612698565b6110b3565b3480156104da57600080fd5b5061030a6104e9366004612630565b60009182526004602090815260408084206001600160a01b03939093168452919052902054151590565b34801561051f57600080fd5b5061028561052e366004612764565b60066020526000908152604090205481565b61021d61054e366004612788565b611296565b61021d6105613660046124c3565b611674565b34801561057257600080fd5b506105c66105813660046124c3565b60026020819052600091825260409091208054600182015492820154600383015460048401546005909401546001600160a01b039093169493919260ff909116919086565b604080516001600160a01b03909716875260208701959095529385019290925215156060840152608083015260a082015260c0016101ff565b34801561060b57600080fd5b5061028561061a3660046124c3565b611978565b34801561062b57600080fd5b5061021d61063a3660046124c3565b611999565b34801561064b57600080fd5b5061069661065a366004612630565b60046020818152600093845260408085209091529183529120805460018201546002830154600384015493909401549193909260ff9091169185565b6040516101ff959493929190948552602085019390935290151560408401526060830152608082015260a00190565b3480156106d157600080fd5b506102bd6106e0366004612764565b611fe7565b3480156106f157600080fd5b5061021d610700366004612764565b6121cd565b34801561071157600080fd5b5061030a6107203660046124c3565b6000908152600260205260409020546001600160a01b0316151590565b610745612450565b50600090815260026020818152604092839020835160c08101855281546001600160a01b031681526001820154928101929092529182015492810192909252600381015460ff1615156060830152600481015460808301526005015460a082015290565b6107b1612208565b6107b9612232565b33600090815260066020526040902054806108115760405162461bcd60e51b81526020600482015260136024820152724e6f20726566756e6420617661696c61626c6560681b60448201526064015b60405180910390fd5b336000818152600660205260408082208290555183156108fc0291849190818181858888f1935050505015801561084c573d6000803e3d6000fd5b5060405181815233907f7084f5476618d8e60b11ef0d7d3f06914655adb8793e28ff7f018d4c76d505d59060200160405180910390a25061088d6001600055565b565b6008546000906001600160a01b031633146108f85760405162461bcd60e51b8152602060048201526024808201527f4f6e6c7920506f6b656d6f6e436f6e747261637420746f6b656e7320616363656044820152631c1d195960e21b6064820152608401610808565b7fa83965f0e7c5e026e57c9ba2dd91e4ebcca352f2d514498c1e9ed23ba653860086868660405161092b939291906127d6565b60405180910390a150630a85bd0160e11b95945050505050565b61094d61225d565b61088d61228a565b60035460609060008167ffffffffffffffff81111561097657610976612682565b6040519080825280602002602001820160405280156109af57816020015b61099c612450565b8152602001906001900390816109945790505b50905060005b82811015610a685760026000600383815481106109d4576109d46127fa565b600091825260208083209091015483528281019390935260409182019020815160c08101835281546001600160a01b03168152600182015493810193909352600281015491830191909152600381015460ff1615156060830152600481015460808301526005015460a08201528251839083908110610a5557610a556127fa565b60209081029190910101526001016109b5565b5092915050565b60008181526002602052604090205481906001600160a01b03163314610aa75760405162461bcd60e51b815260040161080890612810565b610aaf612208565b610ab7612232565b600082815260026020526040902080546001600160a01b0316610b155760405162461bcd60e51b8152602060048201526016602482015275131a5cdd1a5b99c8191bd95cc81b9bdd08195e1a5cdd60521b6044820152606401610808565b600381015460ff1615610c8f5780600401544210610b875760405162461bcd60e51b815260206004820152602960248201527f43616e6e6f742072656d6f7665206c697374696e6720616674657220617563746044820152681a5bdb88195b99195960ba1b6064820152608401610808565b60005b600084815260056020526040902054811015610c77576000848152600560205260408120805483908110610bc057610bc06127fa565b60009182526020808320909101548783526004825260408084206001600160a01b0390921680855291909252912080549192509015610c6d5760018101546001600160a01b03831660009081526006602052604081208054909190610c26908490612869565b909155505060008681526004602081815260408084206001600160a01b038716855290915282208281556001810183905560028101805460ff191690556003810183905501555b5050600101610b8a565b506000838152600560205260408120610c8f91612491565b6008548154604051632142170760e11b81526001600160a01b03928316926342842e0e92610cc79230929091169088906004016127d6565b600060405180830381600087803b158015610ce157600080fd5b505af1158015610cf5573d6000803e3d6000fd5b50506040518592507f51a9d0860a9b8ef69e7cd2cc93e90cff1b4cf1433a5cffbe7394d0aa6f994b329150600090a26000838152600260208190526040822080546001600160a01b03191681556001810183905590810182905560038101805460ff191690556004810182905560050155610d6f836122df565b50610d7a6001600055565b5050565b60008281526004602090815260408083206001600160a01b038516845290915290206002015460ff165b92915050565b610db661225d565b61088d6000612391565b610dc861225d565b61088d6123e3565b600082815260026020526040902060030154829060ff16610e035760405162461bcd60e51b81526004016108089061287c565b6000818152600260205260409020600401544210610e535760405162461bcd60e51b815260206004820152600d60248201526c105d58dd1a5bdb88195b991959609a1b6044820152606401610808565b610e5b612232565b6000838152600260205260409020600381015460ff16610e8d5760405162461bcd60e51b81526004016108089061287c565b60008481526004602090815260408083203384529091529020805415610ee95760405162461bcd60e51b8152602060048201526011602482015270105b1c9958591e4818dbdb5b5a5d1d1959607a1b6044820152606401610808565b8160020154341015610f485760405162461bcd60e51b815260206004820152602260248201527f426964206d757374206265206174206c65617374206d696e696d756d20707269604482015261636560f01b6064820152608401610808565b81546001600160a01b03163303610fb05760405162461bcd60e51b815260206004820152602660248201527f53656c6c65722063616e6e6f7420626964206f6e207468656972206f776e206c604482015265697374696e6760d01b6064820152608401610808565b6040805160a08101825285815234602080830191825260008385018181526060850182815242608087019081528c84526004808652888520338087529087528986209851895596516001808a0191909155935160028901805460ff191691151591909117905591516003880155519501949094558981526005825284812080549485018155815290812090920180546001600160a01b03191682179055915187917f0934ea4de468dcd0d9a335c5f97aa77955310c29631c93fbd01d95a00242ec4191a35050505050565b6005602052816000526040600020818154811061109757600080fd5b6000918252602090912001546001600160a01b03169150829050565b6000838152600260205260409020600381015460ff166110e55760405162461bcd60e51b81526004016108089061287c565b806004015442101561112d5760405162461bcd60e51b8152602060048201526011602482015270105d58dd1a5bdb881b9bdd08195b991959607a1b6044820152606401610808565b60008481526004602090815260408083203384529091529020805461118a5760405162461bcd60e51b8152602060048201526013602482015272139bc818dbdb5b5a5d1b595b9d08199bdd5b99606a1b6044820152606401610808565b600281015460ff16156111d25760405162461bcd60e51b815260206004820152601060248201526f105b1c9958591e481c995d99585b195960821b6044820152606401610808565b80546040516111e790869086906020016128a4565b604051602081830303815290604052805190602001201461123b5760405162461bcd60e51b815260206004820152600e60248201526d125b9d985b1a59081c995d99585b60921b6044820152606401610808565b60028101805460ff1916600117905560038101849055604051339086907f86d2fbc9069d34216ebc65b38ce840528d3f8cac0c86d2aaa7ab6a9db8bc35d3906112879088815260200190565b60405180910390a35050505050565b6008546040516331a9108f60e11b815260048101879052869133916001600160a01b0390911690636352211e90602401602060405180830381865afa1580156112e3573d6000803e3d6000fd5b505050506040513d601f19601f8201168201806040525081019061130791906128dc565b6001600160a01b03161461132d5760405162461bcd60e51b815260040161080890612810565b611335612232565b600085116113855760405162461bcd60e51b815260206004820152601e60248201527f5072696365206d757374206265206c6172676572207468616e207a65726f00006044820152606401610808565b83156114b5576605543df729c0003410156113ed5760405162461bcd60e51b815260206004820152602260248201527f4d7573742073656e642045544820666f722066696e616c697a657220726577616044820152611c9960f21b6064820152608401610808565b600083116114505760405162461bcd60e51b815260206004820152602a60248201527f41756374696f6e206475726174696f6e206d7573742062652067726561746572604482015269207468616e207a65726f60b01b6064820152608401610808565b60788210156114b55760405162461bcd60e51b815260206004820152602b60248201527f46696e616c697a652064656c6179206d757374206265206174206c656173742060448201526a313230207365636f6e647360a81b6064820152608401610808565b6040518060c00160405280336001600160a01b031681526020018781526020018681526020018515158152602001856114ef5760006114f9565b6114f98542612869565b81526020018561150a57600061150c565b835b90526000878152600260208181526040808420855181546001600160a01b0319166001600160a01b0390911617815591850151600180840191909155908501519282019290925560608401516003808301805460ff1916921515929092179091556080850151600483015560a090940151600590910155825490810183559190527fc2575a0e9e593c00f959f8c92f12db2869c3395a3b0502d05e2516446f71f85b0186905583156115ca5760008681526007602052604090203490555b600854604051632142170760e11b81526001600160a01b03909116906342842e0e906115fe90339030908b906004016127d6565b600060405180830381600087803b15801561161857600080fd5b505af115801561162c573d6000803e3d6000fd5b50506040805188815287151560208201528993507fec2862227fb8941dc82b951797d099c179ce97a30bf0174bf1697d1c01d8748b92500160405180910390a2505050505050565b61167c612208565b611684612232565b6000818152600260205260409020600381015460ff161561170d5760405162461bcd60e51b815260206004820152603760248201527f506f6b656d6f6e206973206c697374656420666f7220616e2061756374696f6e60448201527f2c206e6f7420666f7220612066697865642070726963650000000000000000006064820152608401610808565b80600201543410156117615760405162461bcd60e51b815260206004820152601e60248201527f496e73756666696369656e742066756e647320746f20707572636861736500006044820152606401610808565b80546001600160a01b03166117b15760405162461bcd60e51b8152602060048201526016602482015275131a5cdd1a5b99c8191bd95cc81b9bdd08195e1a5cdd60521b6044820152606401610808565b8054336001600160a01b039091160361180c5760405162461bcd60e51b815260206004820152601b60248201527f43616e6e6f742062757920796f7572206f776e206c697374696e6700000000006044820152606401610808565b600854604051632142170760e11b81526001600160a01b03909116906342842e0e90611840903090339087906004016127d6565b600060405180830381600087803b15801561185a57600080fd5b505af115801561186e573d6000803e3d6000fd5b505082546040516001600160a01b0390911692503480156108fc029250906000818181858888f193505050501580156118ab573d6000803e3d6000fd5b50336001600160a01b0316827fe89ee650d68ca71d565381bf8c4b50ef47da5452d8df24d949380bee65d3375783600201546040516118ec91815260200190565b60405180910390a36000828152600260208190526040822080546001600160a01b03191681556001810183905590810182905560038101805460ff19169055600481018290556005015561193f826122df565b60405182907f51a9d0860a9b8ef69e7cd2cc93e90cff1b4cf1433a5cffbe7394d0aa6f994b3290600090a2506119756001600055565b50565b6003818154811061198857600080fd5b600091825260209091200154905081565b6119a1612208565b6119a9612232565b6000818152600260205260409020600381015460ff166119db5760405162461bcd60e51b81526004016108089061287c565b806005015481600401546119ef9190612869565b421015611a565760405162461bcd60e51b815260206004820152602f60248201527f43616e6e6f742066696e616c697a6520796574202d2077616974696e6720666f60448201526e722072657665616c2077696e646f7760881b6064820152608401610808565b6000828152600760205260408120548190819060001990825b600088815260056020526040902054811015611c9b576000888152600560205260408120805483908110611aa557611aa56127fa565b60009182526020808320909101548b83526004825260408084206001600160a01b0390921680855291909252912060028101549192509060ff16611b1d5760018101546001600160a01b03831660009081526006602052604081208054909190611b10908490612869565b90915550611c9392505050565b858160030154118015611b3857508060010154816003015411155b15611ba9576001600160a01b03871615611b905760008a81526004602090815260408083206001600160a01b038b16845282528083206001015460069092528220805491929091611b8a908490612869565b90915550505b8060030154955081975080600401549450819650611c90565b858160030154148015611bc457508060010154816003015411155b8015611bd35750848160040154105b15611c5d576001600160a01b03871615801590611c025750816001600160a01b0316876001600160a01b031614155b15611c4b5760008a81526004602090815260408083206001600160a01b038b16845282528083206001015460069092528220805491929091611c45908490612869565b90915550505b81975080600401549450819650611c90565b60018101546001600160a01b03831660009081526006602052604081208054909190611c8a908490612869565b90915550505b50505b600101611a6f565b5060005b600088815260056020526040902054811015611d32576000888152600560205260408120805483908110611cd557611cd56127fa565b60009182526020808320909101548b8352600480835260408085206001600160a01b039093168552919092528220828155600181810184905560028201805460ff1916905560038201849055910191909155919091019050611c9f565b506001600160a01b038516611df4576008548654604051632142170760e11b81526001600160a01b03928316926342842e0e92611d79923092909116908c906004016127d6565b600060405180830381600087803b158015611d9357600080fd5b505af1158015611da7573d6000803e3d6000fd5b50508754604051600081526001600160a01b0390911692508991507fe89ee650d68ca71d565381bf8c4b50ef47da5452d8df24d949380bee65d337579060200160405180910390a3611ed9565b600854604051632142170760e11b81526001600160a01b03909116906342842e0e90611e2890309089908c906004016127d6565b600060405180830381600087803b158015611e4257600080fd5b505af1158015611e56573d6000803e3d6000fd5b505087546040516001600160a01b03909116925085156108fc02915085906000818181858888f19350505050158015611e93573d6000803e3d6000fd5b50846001600160a01b0316877fe89ee650d68ca71d565381bf8c4b50ef47da5452d8df24d949380bee65d3375785604051611ed091815260200190565b60405180910390a35b8015611f3d573360009081526006602052604081208054839290611efe908490612869565b909155505060408051338152602081018390527fe2403640ba68fed3a2f88b7557551d1993f84b99bb10ff833f0cf8db0c5e0486910160405180910390a15b6000878152600260208190526040822080546001600160a01b03191681556001810183905590810182905560038101805460ff191690556004810182905560050155611f88876122df565b600087815260076020908152604080832083905560059091528120611fac91612491565b60405187907f51a9d0860a9b8ef69e7cd2cc93e90cff1b4cf1433a5cffbe7394d0aa6f994b3290600090a25050505050506119756001600055565b60606000805b60035481101561205857836001600160a01b03166002600060038481548110612018576120186127fa565b600091825260208083209091015483528201929092526040019020546001600160a01b031603612050578161204c816128f9565b9250505b600101611fed565b5060008167ffffffffffffffff81111561207457612074612682565b6040519080825280602002602001820160405280156120ad57816020015b61209a612450565b8152602001906001900390816120925790505b5090506000805b6003548110156121c357856001600160a01b031660026000600384815481106120df576120df6127fa565b600091825260208083209091015483528201929092526040019020546001600160a01b0316036121bb576002600060038381548110612120576121206127fa565b600091825260208083209091015483528281019390935260409182019020815160c08101835281546001600160a01b03168152600182015493810193909352600281015491830191909152600381015460ff1615156060830152600481015460808301526005015460a082015283518490849081106121a1576121a16127fa565b602002602001018190525081806121b7906128f9565b9250505b6001016120b4565b5090949350505050565b6121d561225d565b6001600160a01b0381166121ff57604051631e4fbdf760e01b815260006004820152602401610808565b61197581612391565b60026000540361222b57604051633ee5aeb560e01b815260040160405180910390fd5b6002600055565b600154600160a01b900460ff161561088d5760405163d93c066560e01b815260040160405180910390fd5b6001546001600160a01b0316331461088d5760405163118cdaa760e01b8152336004820152602401610808565b612292612426565b6001805460ff60a01b191690557f5db9ee0a495bf2e6ff9c91a7834c1ba4fdd244a5e8aa4e537bd38aeae4b073aa335b6040516001600160a01b03909116815260200160405180910390a1565b60035460005b8181101561238c578260038281548110612301576123016127fa565b90600052602060002001540361238457600361231e600184612912565b8154811061232e5761232e6127fa565b90600052602060002001546003828154811061234c5761234c6127fa565b600091825260209091200155600380548061236957612369612925565b60019003818190600052602060002001600090559055505050565b6001016122e5565b505050565b600180546001600160a01b038381166001600160a01b0319831681179093556040519116919082907f8be0079c531659141344cd1fd0a4f28419497f9722a3daafe3b4186f6b6457e090600090a35050565b6123eb612232565b6001805460ff60a01b1916600160a01b1790557f62e78cea01bee320cd4e420270b5ea74000d11b0c9f74754ebdbfc544b05a2586122c23390565b600154600160a01b900460ff1661088d57604051638dfc202b60e01b815260040160405180910390fd5b6040518060c0016040528060006001600160a01b03168152602001600081526020016000815260200160001515815260200160008152602001600081525090565b508054600082559060005260206000209081019061197591905b808211156124bf57600081556001016124ab565b5090565b6000602082840312156124d557600080fd5b5035919050565b80516001600160a01b0316825260208082015190830152604080820151908301526060808201511515908301526080808201519083015260a090810151910152565b60c08101610da882846124dc565b6001600160a01b038116811461197557600080fd5b60008060008060006080868803121561255957600080fd5b85356125648161252c565b945060208601356125748161252c565b935060408601359250606086013567ffffffffffffffff81111561259757600080fd5b8601601f810188136125a857600080fd5b803567ffffffffffffffff8111156125bf57600080fd5b8860208284010111156125d157600080fd5b959894975092955050506020019190565b602080825282518282018190526000918401906040840190835b818110156126255761260f8385516124dc565b6020939093019260c092909201916001016125fc565b509095945050505050565b6000806040838503121561264357600080fd5b8235915060208301356126558161252c565b809150509250929050565b6000806040838503121561267357600080fd5b50508035926020909101359150565b634e487b7160e01b600052604160045260246000fd5b6000806000606084860312156126ad57600080fd5b8335925060208401359150604084013567ffffffffffffffff8111156126d257600080fd5b8401601f810186136126e357600080fd5b803567ffffffffffffffff8111156126fd576126fd612682565b604051601f8201601f19908116603f0116810167ffffffffffffffff8111828210171561272c5761272c612682565b60405281815282820160200188101561274457600080fd5b816020840160208301376000602083830101528093505050509250925092565b60006020828403121561277657600080fd5b81356127818161252c565b9392505050565b600080600080600060a086880312156127a057600080fd5b8535945060208601359350604086013580151581146127be57600080fd5b94979396509394606081013594506080013592915050565b6001600160a01b039384168152919092166020820152604081019190915260600190565b634e487b7160e01b600052603260045260246000fd5b60208082526023908201527f596f75206d757374206f776e2074686520506f6b656d6f6e20746f206c697374604082015262081a5d60ea1b606082015260800190565b634e487b7160e01b600052601160045260246000fd5b80820180821115610da857610da8612853565b6020808252600e908201526d2737ba1030b71030bab1ba34b7b760911b604082015260600190565b8281526000825160005b818110156128ca576020818601810151858301820152016128ae565b50600092016020019182525092915050565b6000602082840312156128ee57600080fd5b81516127818161252c565b60006001820161290b5761290b612853565b5060010190565b81810381811115610da857610da8612853565b634e487b7160e01b600052603160045260246000fdfea26469706673582212205eed723f15b1316b23a83fec2d4bf1a8d1227e4a8afff866b1375b4a6aefc2e864736f6c634300081c0033",
  "linkReferences": {},
  "deployedLinkReferences": {}
}