{
  "_format": "hh-sol-artifact-1",
  "contractName": "PokemonContract",
  "sourceName": "contracts/PokemonContract.sol",
  "abi": [
    {
      "inputs": [
        {
          "internalType": "string",
          "name": "_name",
          "type": "string"
        },
        {
          "internalType": "string",
          "name": "_symbol",
          "type": "string"
        }
      ],
      "stateMutability": "nonpayable",
      "type": "constructor"
    },
    {
      "inputs": [
        {
          "internalType": "address",
          "name": "sender",
          "type": "address"
        },
        {
          "internalType": "uint256",
          "name": "tokenId",
          "type": "uint256"
        },
        {
          "internalType": "address",
          "name": "owner",
          "type": "address"
        }
      ],
      "name": "ERC721IncorrectOwner",
      "type": "error"
    },
    {
      "inputs": [
        {
          "internalType": "address",
          "name": "operator",
          "type": "address"
        },
        {
          "internalType": "uint256",
          "name": "tokenId",
          "type": "uint256"
        }
      ],
      "name": "ERC721InsufficientApproval",
      "type": "error"
    },
    {
      "inputs": [
        {
          "internalType": "address",
          "name": "approver",
          "type": "address"
        }
      ],
      "name": "ERC721InvalidApprover",
      "type": "error"
    },
    {
      "inputs": [
        {
          "internalType": "address",
          "name": "operator",
          "type": "address"
        }
      ],
      "name": "ERC721InvalidOperator",
      "type": "error"
    },
    {
      "inputs": [
        {
          "internalType": "address",
          "name": "owner",
          "type": "address"
        }
      ],
      "name": "ERC721InvalidOwner",
      "type": "error"
    },
    {
      "inputs": [
        {
          "internalType": "address",
          "name": "receiver",
          "type": "address"
        }
      ],
      "name": "ERC721InvalidReceiver",
      "type": "error"
    },
    {
      "inputs": [
        {
          "internalType": "address",
          "name": "sender",
          "type": "address"
        }
      ],
      "name": "ERC721InvalidSender",
      "type": "error"
    },
    {
      "inputs": [
        {
          "internalType": "uint256",
          "name": "tokenId",
          "type": "uint256"
        }
      ],
      "name": "ERC721NonexistentToken",
      "type": "error"
    },
    {
      "inputs": [
        {
          "internalType": "address",
          "name": "owner",
          "type": "address"
        }
      ],
      "name": "OwnableInvalidOwner",
      "type": "error"
    },
    {
      "inputs": [
        {
          "internalType": "address",
          "name": "account",
          "type": "address"
        }
      ],
      "name": "OwnableUnauthorizedAccount",
      "type": "error"
    },
    {
      "anonymous": false,
      "inputs": [
        {
          "indexed": true,
          "internalType": "address",
          "name": "owner",
          "type": "address"
        },
        {
          "indexed": true,
          "internalType": "address",
          "name": "approved",
          "type": "address"
        },
        {
          "indexed": true,
          "internalType": "uint256",
          "name": "tokenId",
          "type": "uint256"
        }
      ],
      "name": "Approval",
      "type": "event"
    },
    {
      "anonymous": false,
      "inputs": [
        {
          "indexed": true,
          "internalType": "address",
          "name": "owner",
          "type": "address"
        },
        {
          "indexed": true,
          "internalType": "address",
          "name": "operator",
          "type": "address"
        },
        {
          "indexed": false,
          "internalType": "bool",
          "name": "approved",
          "type": "bool"
        }
      ],
      "name": "ApprovalForAll",
      "type": "event"
    },
    {
      "anonymous": false,
      "inputs": [
        {
          "indexed": true,
          "internalType": "address",
          "name": "previousOwner",
          "type": "address"
        },
        {
          "indexed": true,
          "internalType": "address",
          "name": "newOwner",
          "type": "address"
        }
      ],
      "name": "OwnershipTransferred",
      "type": "event"
    },
    {
      "anonymous": false,
      "inputs": [
        {
          "indexed": true,
          "internalType": "uint256",
          "name": "tokenId",
          "type": "uint256"
        },
        {
          "indexed": false,
          "internalType": "string",
          "name": "name",
          "type": "string"
        },
        {
          "indexed": false,
          "internalType": "string",
          "name": "pokeType",
          "type": "string"
        }
      ],
      "name": "PokemonMinted",
      "type": "event"
    },
    {
      "anonymous": false,
      "inputs": [
        {
          "indexed": true,
          "internalType": "address",
          "name": "from",
          "type": "address"
        },
        {
          "indexed": true,
          "internalType": "address",
          "name": "to",
          "type": "address"
        },
        {
          "indexed": true,
          "internalType": "uint256",
          "name": "tokenId",
          "type": "uint256"
        }
      ],
      "name": "Transfer",
      "type": "event"
    },
    {
      "inputs": [
        {
          "internalType": "address",
          "name": "to",
          "type": "address"
        },
        {
          "internalType": "uint256",
          "name": "tokenId",
          "type": "uint256"
        }
      ],
      "name": "approve",
      "outputs": [],
      "stateMutability": "nonpayable",
      "type": "function"
    },
    {
      "inputs": [
        {
          "internalType": "address",
          "name": "owner",
          "type": "address"
        }
      ],
      "name": "balanceOf",
      "outputs": [
        {
          "internalType": "uint256",
          "name": "",
          "type": "uint256"
        }
      ],
      "stateMutability": "view",
      "type": "function"
    },
    {
      "inputs": [
        {
          "internalType": "uint256",
          "name": "tokenId",
          "type": "uint256"
        }
      ],
      "name": "getApproved",
      "outputs": [
        {
          "internalType": "address",
          "name": "",
          "type": "address"
        }
      ],
      "stateMutability": "view",
      "type": "function"
    },
    {
      "inputs": [],
      "name": "getNextTokenId",
      "outputs": [
        {
          "internalType": "uint256",
          "name": "",
          "type": "uint256"
        }
      ],
      "stateMutability": "view",
      "type": "function"
    },
    {
      "inputs": [
        {
          "internalType": "uint256",
          "name": "tokenId",
          "type": "uint256"
        }
      ],
      "name": "getPokemon",
      "outputs": [
        {
          "components": [
            {
              "internalType": "string",
              "name": "name",
              "type": "string"
            },
            {
              "internalType": "string",
              "name": "pokeType",
              "type": "string"
            },
            {
              "internalType": "uint256",
              "name": "price",
              "type": "uint256"
            }
          ],
          "internalType": "struct PokemonContract.Pokemon",
          "name": "",
          "type": "tuple"
        }
      ],
      "stateMutability": "view",
      "type": "function"
    },
    {
      "inputs": [
        {
          "internalType": "address",
          "name": "owner",
          "type": "address"
        }
      ],
      "name": "getTokenBalance",
      "outputs": [
        {
          "internalType": "uint256",
          "name": "",
          "type": "uint256"
        }
      ],
      "stateMutability": "view",
      "type": "function"
    },
    {
      "inputs": [
        {
          "internalType": "uint256",
          "name": "tokenId",
          "type": "uint256"
        }
      ],
      "name": "getTokenOwner",
      "outputs": [
        {
          "internalType": "address",
          "name": "",
          "type": "address"
        }
      ],
      "stateMutability": "view",
      "type": "function"
    },
    {
      "inputs": [
        {
          "internalType": "address",
          "name": "owner",
          "type": "address"
        },
        {
          "internalType": "address",
          "name": "operator",
          "type": "address"
        }
      ],
      "name": "isApprovedForAll",
      "outputs": [
        {
          "internalType": "bool",
          "name": "",
          "type": "bool"
        }
      ],
      "stateMutability": "view",
      "type": "function"
    },
    {
      "inputs": [
        {
          "internalType": "string",
          "name": "name",
          "type": "string"
        },
        {
          "internalType": "string",
          "name": "pokeType",
          "type": "string"
        },
        {
          "internalType": "uint256",
          "name": "price",
          "type": "uint256"
        }
      ],
      "name": "mintPokemon",
      "outputs": [],
      "stateMutability": "nonpayable",
      "type": "function"
    },
    {
      "inputs": [],
      "name": "name",
      "outputs": [
        {
          "internalType": "string",
          "name": "",
          "type": "string"
        }
      ],
      "stateMutability": "view",
      "type": "function"
    },
    {
      "inputs": [],
      "name": "owner",
      "outputs": [
        {
          "internalType": "address",
          "name": "",
          "type": "address"
        }
      ],
      "stateMutability": "view",
      "type": "function"
    },
    {
      "inputs": [
        {
          "internalType": "uint256",
          "name": "tokenId",
          "type": "uint256"
        }
      ],
      "name": "ownerOf",
      "outputs": [
        {
          "internalType": "address",
          "name": "",
          "type": "address"
        }
      ],
      "stateMutability": "view",
      "type": "function"
    },
    {
      "inputs": [
        {
          "internalType": "uint256",
          "name": "",
          "type": "uint256"
        }
      ],
      "name": "pokemons",
      "outputs": [
        {
          "internalType": "string",
          "name": "name",
          "type": "string"
        },
        {
          "internalType": "string",
          "name": "pokeType",
          "type": "string"
        },
        {
          "internalType": "uint256",
          "name": "price",
          "type": "uint256"
        }
      ],
      "stateMutability": "view",
      "type": "function"
    },
    {
      "inputs": [],
      "name": "renounceOwnership",
      "outputs": [],
      "stateMutability": "nonpayable",
      "type": "function"
    },
    {
      "inputs": [
        {
          "internalType": "address",
          "name": "from",
          "type": "address"
        },
        {
          "internalType": "address",
          "name": "to",
          "type": "address"
        },
        {
          "internalType": "uint256",
          "name": "tokenId",
          "type": "uint256"
        }
      ],
      "name": "safeTransferFrom",
      "outputs": [],
      "stateMutability": "nonpayable",
      "type": "function"
    },
    {
      "inputs": [
        {
          "internalType": "address",
          "name": "from",
          "type": "address"
        },
        {
          "internalType": "address",
          "name": "to",
          "type": "address"
        },
        {
          "internalType": "uint256",
          "name": "tokenId",
          "type": "uint256"
        },
        {
          "internalType": "bytes",
          "name": "data",
          "type": "bytes"
        }
      ],
      "name": "safeTransferFrom",
      "outputs": [],
      "stateMutability": "nonpayable",
      "type": "function"
    },
    {
      "inputs": [
        {
          "internalType": "address",
          "name": "operator",
          "type": "address"
        },
        {
          "internalType": "bool",
          "name": "approved",
          "type": "bool"
        }
      ],
      "name": "setApprovalForAll",
      "outputs": [],
      "stateMutability": "nonpayable",
      "type": "function"
    },
    {
      "inputs": [
        {
          "internalType": "bytes4",
          "name": "interfaceId",
          "type": "bytes4"
        }
      ],
      "name": "supportsInterface",
      "outputs": [
        {
          "internalType": "bool",
          "name": "",
          "type": "bool"
        }
      ],
      "stateMutability": "view",
      "type": "function"
    },
    {
      "inputs": [],
      "name": "symbol",
      "outputs": [
        {
          "internalType": "string",
          "name": "",
          "type": "string"
        }
      ],
      "stateMutability": "view",
      "type": "function"
    },
    {
      "inputs": [
        {
          "internalType": "uint256",
          "name": "tokenId",
          "type": "uint256"
        }
      ],
      "name": "tokenURI",
      "outputs": [
        {
          "internalType": "string",
          "name": "",
          "type": "string"
        }
      ],
      "stateMutability": "view",
      "type": "function"
    },
    {
      "inputs": [
        {
          "internalType": "address",
          "name": "from",
          "type": "address"
        },
        {
          "internalType": "address",
          "name": "to",
          "type": "address"
        },
        {
          "internalType": "uint256",
          "name": "tokenId",
          "type": "uint256"
        }
      ],
      "name": "transferFrom",
      "outputs": [],
      "stateMutability": "nonpayable",
      "type": "function"
    },
    {
      "inputs": [
        {
          "internalType": "address",
          "name": "newOwner",
          "type": "address"
        }
      ],
      "name": "transferOwnership",
      "outputs": [],
      "stateMutability": "nonpayable",
      "type": "function"
    }
  ],
  "bytecode": "0x608060405234801561001057600080fd5b50604051611b8f380380611b8f83398101604081905261002f9161019d565b338282600061003e838261028f565b50600161004b828261028f565b5050506001600160a01b03811661007c57604051631e4fbdf760e01b81526000600482015260240160405180910390fd5b61008581610092565b505060006007555061034d565b600680546001600160a01b038381166001600160a01b0319831681179093556040519116919082907f8be0079c531659141344cd1fd0a4f28419497f9722a3daafe3b4186f6b6457e090600090a35050565b634e487b7160e01b600052604160045260246000fd5b600082601f83011261010b57600080fd5b81516001600160401b03811115610124576101246100e4565b604051601f8201601f19908116603f011681016001600160401b0381118282101715610152576101526100e4565b60405281815283820160200185101561016a57600080fd5b60005b828110156101895760208186018101518383018201520161016d565b506000918101602001919091529392505050565b600080604083850312156101b057600080fd5b82516001600160401b038111156101c657600080fd5b6101d2858286016100fa565b602085015190935090506001600160401b038111156101f057600080fd5b6101fc858286016100fa565b9150509250929050565b600181811c9082168061021a57607f821691505b60208210810361023a57634e487b7160e01b600052602260045260246000fd5b50919050565b601f82111561028a57806000526020600020601f840160051c810160208510156102675750805b601f840160051c820191505b818110156102875760008155600101610273565b50505b505050565b81516001600160401b038111156102a8576102a86100e4565b6102bc816102b68454610206565b84610240565b6020601f8211600181146102f057600083156102d85750848201515b600019600385901b1c1916600184901b178455610287565b600084815260208120601f198516915b828110156103205787850151825560209485019460019092019101610300565b508482101561033e5786840151600019600387901b60f8161c191681555b50505050600190811b01905550565b6118338061035c6000396000f3fe608060405234801561001057600080fd5b50600436106101425760003560e01c806385831079116100b8578063b88d4fde1161007c578063b88d4fde146102ad578063c87b56dd146102c0578063caa0f92a146102d3578063e985e9c5146102db578063f0b305db146102ee578063f2fde38b1461030e57600080fd5b8063858310791461024c5780638da5cb5b1461026e57806395d89b411461027f578063a22cb46514610287578063a5cd761f1461029a57600080fd5b8063314e1fed1161010a578063314e1fed146101d75780633aecd0e3146101ea57806342842e0e1461020b5780636352211e1461021e57806370a0823114610231578063715018a61461024457600080fd5b806301ffc9a71461014757806306fdde031461016f578063081812fc14610184578063095ea7b3146101af57806323b872dd146101c4575b600080fd5b61015a610155366004611214565b610321565b60405190151581526020015b60405180910390f35b610177610373565b6040516101669190611281565b610197610192366004611294565b610405565b6040516001600160a01b039091168152602001610166565b6101c26101bd3660046112c9565b61042e565b005b6101c26101d23660046112f3565b61043d565b6101c26101e53660046113e0565b6104cd565b6101fd6101f8366004611453565b610580565b604051908152602001610166565b6101c26102193660046112f3565b61058b565b61019761022c366004611294565b6105ab565b6101fd61023f366004611453565b6105b6565b6101c26105fe565b61025f61025a366004611294565b610612565b6040516101669392919061146e565b6006546001600160a01b0316610197565b610177610744565b6101c26102953660046114a4565b610753565b6101976102a8366004611294565b61075e565b6101c26102bb3660046114e0565b6107c5565b6101776102ce366004611294565b6107dd565b6007546101fd565b61015a6102e936600461155c565b610852565b6103016102fc366004611294565b610880565b604051610166919061158f565b6101c261031c366004611453565b610a4f565b60006001600160e01b031982166380ac58cd60e01b148061035257506001600160e01b03198216635b5e139f60e01b145b8061036d57506301ffc9a760e01b6001600160e01b03198316145b92915050565b606060008054610382906115df565b80601f01602080910402602001604051908101604052809291908181526020018280546103ae906115df565b80156103fb5780601f106103d0576101008083540402835291602001916103fb565b820191906000526020600020905b8154815290600101906020018083116103de57829003601f168201915b5050505050905090565b600061041082610a8d565b506000828152600460205260409020546001600160a01b031661036d565b610439828233610ac6565b5050565b6001600160a01b03821661046c57604051633250574960e11b8152600060048201526024015b60405180910390fd5b6000610479838333610ad3565b9050836001600160a01b0316816001600160a01b0316146104c7576040516364283d7b60e01b81526001600160a01b0380861660048301526024820184905282166044820152606401610463565b50505050565b6104d5610bcc565b60075460408051606081018252858152602080820186905281830185905260008481526008909152919091208151819061050f9082611660565b50602082015160018201906105249082611660565b506040820151816002015590505061053e33600754610bf9565b807f8398eb0baf790e6225f13e843f836768460805d5b23785239b7a1a1cd6286340858560405161057092919061171f565b60405180910390a26104c7610c13565b600061036d826105b6565b6105a6838383604051806020016040528060008152506107c5565b505050565b600061036d82610a8d565b60006001600160a01b0382166105e2576040516322718ad960e21b815260006004820152602401610463565b506001600160a01b031660009081526003602052604090205490565b610606610bcc565b6106106000610c2a565b565b60086020526000908152604090208054819061062d906115df565b80601f0160208091040260200160405190810160405280929190818152602001828054610659906115df565b80156106a65780601f1061067b576101008083540402835291602001916106a6565b820191906000526020600020905b81548152906001019060200180831161068957829003601f168201915b5050505050908060010180546106bb906115df565b80601f01602080910402602001604051908101604052809291908181526020018280546106e7906115df565b80156107345780601f1061070957610100808354040283529160200191610734565b820191906000526020600020905b81548152906001019060200180831161071757829003601f168201915b5050505050908060020154905083565b606060018054610382906115df565b610439338383610c7c565b6000818152600260205260408120546001600160a01b03166107bc5760405162461bcd60e51b8152602060048201526017602482015276151bdad95b88125108191bd95cc81b9bdd08195e1a5cdd604a1b6044820152606401610463565b61036d826105ab565b6107d084848461043d565b6104c73385858585610d1b565b60606107e882610a8d565b50600061080060408051602081019091526000815290565b90506000815111610820576040518060200160405280600081525061084b565b8061082a84610e46565b60405160200161083b92919061174d565b6040516020818303038152906040525b9392505050565b6001600160a01b03918216600090815260056020908152604080832093909416825291909152205460ff1690565b6108a460405180606001604052806060815260200160608152602001600081525090565b6000828152600260205260409020546001600160a01b03166109025760405162461bcd60e51b8152602060048201526017602482015276151bdad95b88125108191bd95cc81b9bdd08195e1a5cdd604a1b6044820152606401610463565b6000828152600860205260409081902081516060810190925280548290829061092a906115df565b80601f0160208091040260200160405190810160405280929190818152602001828054610956906115df565b80156109a35780601f10610978576101008083540402835291602001916109a3565b820191906000526020600020905b81548152906001019060200180831161098657829003601f168201915b505050505081526020016001820180546109bc906115df565b80601f01602080910402602001604051908101604052809291908181526020018280546109e8906115df565b8015610a355780601f10610a0a57610100808354040283529160200191610a35565b820191906000526020600020905b815481529060010190602001808311610a1857829003601f168201915b505050505081526020016002820154815250509050919050565b610a57610bcc565b6001600160a01b038116610a8157604051631e4fbdf760e01b815260006004820152602401610463565b610a8a81610c2a565b50565b6000818152600260205260408120546001600160a01b03168061036d57604051637e27328960e01b815260048101849052602401610463565b6105a68383836001610ed9565b6000828152600260205260408120546001600160a01b0390811690831615610b0057610b00818486610fdf565b6001600160a01b03811615610b3e57610b1d600085600080610ed9565b6001600160a01b038116600090815260036020526040902080546000190190555b6001600160a01b03851615610b6d576001600160a01b0385166000908152600360205260409020805460010190555b60008481526002602052604080822080546001600160a01b0319166001600160a01b0389811691821790925591518793918516917fddf252ad1be2c89b69c2b068fc378daa952ba7f163c4a11628f55a4df523b3ef91a4949350505050565b6006546001600160a01b031633146106105760405163118cdaa760e01b8152336004820152602401610463565b610439828260405180602001604052806000815250611043565b60078054906000610c238361177c565b9190505550565b600680546001600160a01b038381166001600160a01b0319831681179093556040519116919082907f8be0079c531659141344cd1fd0a4f28419497f9722a3daafe3b4186f6b6457e090600090a35050565b6001600160a01b038216610cae57604051630b61174360e31b81526001600160a01b0383166004820152602401610463565b6001600160a01b03838116600081815260056020908152604080832094871680845294825291829020805460ff191686151590811790915591519182527f17307eab39ab6107e8899845ad3d59bd9653f200f220920489ca2b5937696c31910160405180910390a3505050565b6001600160a01b0383163b15610e3f57604051630a85bd0160e11b81526001600160a01b0384169063150b7a0290610d5d9088908890879087906004016117a3565b6020604051808303816000875af1925050508015610d98575060408051601f3d908101601f19168201909252610d95918101906117e0565b60015b610e01573d808015610dc6576040519150601f19603f3d011682016040523d82523d6000602084013e610dcb565b606091505b508051600003610df957604051633250574960e11b81526001600160a01b0385166004820152602401610463565b805181602001fd5b6001600160e01b03198116630a85bd0160e11b14610e3d57604051633250574960e11b81526001600160a01b0385166004820152602401610463565b505b5050505050565b60606000610e538361105b565b600101905060008167ffffffffffffffff811115610e7357610e73611330565b6040519080825280601f01601f191660200182016040528015610e9d576020820181803683370190505b5090508181016020015b600019016f181899199a1a9b1b9c1cb0b131b232b360811b600a86061a8153600a8504945084610ea757509392505050565b8080610eed57506001600160a01b03821615155b15610faf576000610efd84610a8d565b90506001600160a01b03831615801590610f295750826001600160a01b0316816001600160a01b031614155b8015610f3c5750610f3a8184610852565b155b15610f655760405163a9fbf51f60e01b81526001600160a01b0384166004820152602401610463565b8115610fad5783856001600160a01b0316826001600160a01b03167f8c5be1e5ebec7d5bd14f71427d1e84f3dd0314c0f7b2291e5b200ac8c7c3b92560405160405180910390a45b505b5050600090815260046020526040902080546001600160a01b0319166001600160a01b0392909216919091179055565b610fea838383611133565b6105a6576001600160a01b03831661101857604051637e27328960e01b815260048101829052602401610463565b60405163177e802f60e01b81526001600160a01b038316600482015260248101829052604401610463565b61104d8383611199565b6105a6336000858585610d1b565b60008072184f03e93ff9f4daa797ed6e38ed64bf6a1f0160401b831061109a5772184f03e93ff9f4daa797ed6e38ed64bf6a1f0160401b830492506040015b6d04ee2d6d415b85acef810000000083106110c6576d04ee2d6d415b85acef8100000000830492506020015b662386f26fc1000083106110e457662386f26fc10000830492506010015b6305f5e10083106110fc576305f5e100830492506008015b612710831061111057612710830492506004015b60648310611122576064830492506002015b600a831061036d5760010192915050565b60006001600160a01b038316158015906111915750826001600160a01b0316846001600160a01b0316148061116d575061116d8484610852565b8061119157506000828152600460205260409020546001600160a01b038481169116145b949350505050565b6001600160a01b0382166111c357604051633250574960e11b815260006004820152602401610463565b60006111d183836000610ad3565b90506001600160a01b038116156105a6576040516339e3563760e11b815260006004820152602401610463565b6001600160e01b031981168114610a8a57600080fd5b60006020828403121561122657600080fd5b813561084b816111fe565b60005b8381101561124c578181015183820152602001611234565b50506000910152565b6000815180845261126d816020860160208601611231565b601f01601f19169290920160200192915050565b60208152600061084b6020830184611255565b6000602082840312156112a657600080fd5b5035919050565b80356001600160a01b03811681146112c457600080fd5b919050565b600080604083850312156112dc57600080fd5b6112e5836112ad565b946020939093013593505050565b60008060006060848603121561130857600080fd5b611311846112ad565b925061131f602085016112ad565b929592945050506040919091013590565b634e487b7160e01b600052604160045260246000fd5b60008067ffffffffffffffff84111561136157611361611330565b50604051601f19601f85018116603f0116810181811067ffffffffffffffff8211171561139057611390611330565b6040528381529050808284018510156113a857600080fd5b83836020830137600060208583010152509392505050565b600082601f8301126113d157600080fd5b61084b83833560208501611346565b6000806000606084860312156113f557600080fd5b833567ffffffffffffffff81111561140c57600080fd5b611418868287016113c0565b935050602084013567ffffffffffffffff81111561143557600080fd5b611441868287016113c0565b93969395505050506040919091013590565b60006020828403121561146557600080fd5b61084b826112ad565b6060815260006114816060830186611255565b82810360208401526114938186611255565b915050826040830152949350505050565b600080604083850312156114b757600080fd5b6114c0836112ad565b9150602083013580151581146114d557600080fd5b809150509250929050565b600080600080608085870312156114f657600080fd5b6114ff856112ad565b935061150d602086016112ad565b925060408501359150606085013567ffffffffffffffff81111561153057600080fd5b8501601f8101871361154157600080fd5b61155087823560208401611346565b91505092959194509250565b6000806040838503121561156f57600080fd5b611578836112ad565b9150611586602084016112ad565b90509250929050565b6020815260008251606060208401526115ab6080840182611255565b90506020840151601f198483030160408501526115c88282611255565b915050604084015160608401528091505092915050565b600181811c908216806115f357607f821691505b60208210810361161357634e487b7160e01b600052602260045260246000fd5b50919050565b601f8211156105a657806000526020600020601f840160051c810160208510156116405750805b601f840160051c820191505b81811015610e3f576000815560010161164c565b815167ffffffffffffffff81111561167a5761167a611330565b61168e8161168884546115df565b84611619565b6020601f8211600181146116c257600083156116aa5750848201515b600019600385901b1c1916600184901b178455610e3f565b600084815260208120601f198516915b828110156116f257878501518255602094850194600190920191016116d2565b50848210156117105786840151600019600387901b60f8161c191681555b50505050600190811b01905550565b6040815260006117326040830185611255565b82810360208401526117448185611255565b95945050505050565b6000835161175f818460208801611231565b835190830190611773818360208801611231565b01949350505050565b60006001820161179c57634e487b7160e01b600052601160045260246000fd5b5060010190565b6001600160a01b03858116825284166020820152604081018390526080606082018190526000906117d690830184611255565b9695505050505050565b6000602082840312156117f257600080fd5b815161084b816111fe56fea2646970667358221220d8f760cae6a000560f2095cfaecddf2fff0e3abf9e8dcb07006f2185e80e70bd64736f6c634300081c0033",
  "linkReferences": {},
  "deployedLinkReferences": {}
}