{
  "_format": "hh-sol-artifact-1",
  "contractName": "PokemonContract",
  "sourceName": "contracts/PokemonContract.sol",
  "abi": [
    {
      "inputs": [
        {
          "internalType": "string",
          "name": "_name",
          "type": "string"
        },
        {
          "internalType": "string",
          "name": "_symbol",
          "type": "string"
        }
      ],
      "stateMutability": "nonpayable",
      "type": "constructor"
    },
    {
      "inputs": [
        {
          "internalType": "address",
          "name": "sender",
          "type": "address"
        },
        {
          "internalType": "uint256",
          "name": "tokenId",
          "type": "uint256"
        },
        {
          "internalType": "address",
          "name": "owner",
          "type": "address"
        }
      ],
      "name": "ERC721IncorrectOwner",
      "type": "error"
    },
    {
      "inputs": [
        {
          "internalType": "address",
          "name": "operator",
          "type": "address"
        },
        {
          "internalType": "uint256",
          "name": "tokenId",
          "type": "uint256"
        }
      ],
      "name": "ERC721InsufficientApproval",
      "type": "error"
    },
    {
      "inputs": [
        {
          "internalType": "address",
          "name": "approver",
          "type": "address"
        }
      ],
      "name": "ERC721InvalidApprover",
      "type": "error"
    },
    {
      "inputs": [
        {
          "internalType": "address",
          "name": "operator",
          "type": "address"
        }
      ],
      "name": "ERC721InvalidOperator",
      "type": "error"
    },
    {
      "inputs": [
        {
          "internalType": "address",
          "name": "owner",
          "type": "address"
        }
      ],
      "name": "ERC721InvalidOwner",
      "type": "error"
    },
    {
      "inputs": [
        {
          "internalType": "address",
          "name": "receiver",
          "type": "address"
        }
      ],
      "name": "ERC721InvalidReceiver",
      "type": "error"
    },
    {
      "inputs": [
        {
          "internalType": "address",
          "name": "sender",
          "type": "address"
        }
      ],
      "name": "ERC721InvalidSender",
      "type": "error"
    },
    {
      "inputs": [
        {
          "internalType": "uint256",
          "name": "tokenId",
          "type": "uint256"
        }
      ],
      "name": "ERC721NonexistentToken",
      "type": "error"
    },
    {
      "inputs": [
        {
          "internalType": "address",
          "name": "owner",
          "type": "address"
        }
      ],
      "name": "OwnableInvalidOwner",
      "type": "error"
    },
    {
      "inputs": [
        {
          "internalType": "address",
          "name": "account",
          "type": "address"
        }
      ],
      "name": "OwnableUnauthorizedAccount",
      "type": "error"
    },
    {
      "anonymous": false,
      "inputs": [
        {
          "indexed": true,
          "internalType": "address",
          "name": "owner",
          "type": "address"
        },
        {
          "indexed": true,
          "internalType": "address",
          "name": "approved",
          "type": "address"
        },
        {
          "indexed": true,
          "internalType": "uint256",
          "name": "tokenId",
          "type": "uint256"
        }
      ],
      "name": "Approval",
      "type": "event"
    },
    {
      "anonymous": false,
      "inputs": [
        {
          "indexed": true,
          "internalType": "address",
          "name": "owner",
          "type": "address"
        },
        {
          "indexed": true,
          "internalType": "address",
          "name": "operator",
          "type": "address"
        },
        {
          "indexed": false,
          "internalType": "bool",
          "name": "approved",
          "type": "bool"
        }
      ],
      "name": "ApprovalForAll",
      "type": "event"
    },
    {
      "anonymous": false,
      "inputs": [
        {
          "indexed": true,
          "internalType": "address",
          "name": "previousOwner",
          "type": "address"
        },
        {
          "indexed": true,
          "internalType": "address",
          "name": "newOwner",
          "type": "address"
        }
      ],
      "name": "OwnershipTransferred",
      "type": "event"
    },
    {
      "anonymous": false,
      "inputs": [
        {
          "indexed": true,
          "internalType": "uint256",
          "name": "pokemonId",
          "type": "uint256"
        },
        {
          "indexed": false,
          "internalType": "string",
          "name": "CID",
          "type": "string"
        }
      ],
      "name": "PokemonMinted",
      "type": "event"
    },
    {
      "anonymous": false,
      "inputs": [
        {
          "indexed": true,
          "internalType": "address",
          "name": "from",
          "type": "address"
        },
        {
          "indexed": true,
          "internalType": "address",
          "name": "to",
          "type": "address"
        },
        {
          "indexed": true,
          "internalType": "uint256",
          "name": "tokenId",
          "type": "uint256"
        }
      ],
      "name": "Transfer",
      "type": "event"
    },
    {
      "inputs": [
        {
          "internalType": "address",
          "name": "to",
          "type": "address"
        },
        {
          "internalType": "uint256",
          "name": "tokenId",
          "type": "uint256"
        }
      ],
      "name": "approve",
      "outputs": [],
      "stateMutability": "nonpayable",
      "type": "function"
    },
    {
      "inputs": [
        {
          "internalType": "address",
          "name": "owner",
          "type": "address"
        }
      ],
      "name": "balanceOf",
      "outputs": [
        {
          "internalType": "uint256",
          "name": "",
          "type": "uint256"
        }
      ],
      "stateMutability": "view",
      "type": "function"
    },
    {
      "inputs": [
        {
          "internalType": "uint256",
          "name": "tokenId",
          "type": "uint256"
        }
      ],
      "name": "getApproved",
      "outputs": [
        {
          "internalType": "address",
          "name": "",
          "type": "address"
        }
      ],
      "stateMutability": "view",
      "type": "function"
    },
    {
      "inputs": [],
      "name": "getNextTokenId",
      "outputs": [
        {
          "internalType": "uint256",
          "name": "",
          "type": "uint256"
        }
      ],
      "stateMutability": "view",
      "type": "function"
    },
    {
      "inputs": [
        {
          "internalType": "address",
          "name": "owner",
          "type": "address"
        }
      ],
      "name": "getTokenBalance",
      "outputs": [
        {
          "internalType": "uint256",
          "name": "",
          "type": "uint256"
        }
      ],
      "stateMutability": "view",
      "type": "function"
    },
    {
      "inputs": [
        {
          "internalType": "uint256",
          "name": "pokemonId",
          "type": "uint256"
        }
      ],
      "name": "getTokenOwner",
      "outputs": [
        {
          "internalType": "address",
          "name": "",
          "type": "address"
        }
      ],
      "stateMutability": "view",
      "type": "function"
    },
    {
      "inputs": [
        {
          "internalType": "uint256",
          "name": "pokemonId",
          "type": "uint256"
        }
      ],
      "name": "getTokenURI",
      "outputs": [
        {
          "internalType": "string",
          "name": "",
          "type": "string"
        }
      ],
      "stateMutability": "view",
      "type": "function"
    },
    {
      "inputs": [
        {
          "internalType": "address",
          "name": "owner",
          "type": "address"
        },
        {
          "internalType": "address",
          "name": "operator",
          "type": "address"
        }
      ],
      "name": "isApprovedForAll",
      "outputs": [
        {
          "internalType": "bool",
          "name": "",
          "type": "bool"
        }
      ],
      "stateMutability": "view",
      "type": "function"
    },
    {
      "inputs": [
        {
          "internalType": "string",
          "name": "ipfsCID",
          "type": "string"
        }
      ],
      "name": "mintPokemon",
      "outputs": [],
      "stateMutability": "nonpayable",
      "type": "function"
    },
    {
      "inputs": [],
      "name": "name",
      "outputs": [
        {
          "internalType": "string",
          "name": "",
          "type": "string"
        }
      ],
      "stateMutability": "view",
      "type": "function"
    },
    {
      "inputs": [],
      "name": "owner",
      "outputs": [
        {
          "internalType": "address",
          "name": "",
          "type": "address"
        }
      ],
      "stateMutability": "view",
      "type": "function"
    },
    {
      "inputs": [
        {
          "internalType": "uint256",
          "name": "tokenId",
          "type": "uint256"
        }
      ],
      "name": "ownerOf",
      "outputs": [
        {
          "internalType": "address",
          "name": "",
          "type": "address"
        }
      ],
      "stateMutability": "view",
      "type": "function"
    },
    {
      "inputs": [],
      "name": "renounceOwnership",
      "outputs": [],
      "stateMutability": "nonpayable",
      "type": "function"
    },
    {
      "inputs": [
        {
          "internalType": "address",
          "name": "from",
          "type": "address"
        },
        {
          "internalType": "address",
          "name": "to",
          "type": "address"
        },
        {
          "internalType": "uint256",
          "name": "tokenId",
          "type": "uint256"
        }
      ],
      "name": "safeTransferFrom",
      "outputs": [],
      "stateMutability": "nonpayable",
      "type": "function"
    },
    {
      "inputs": [
        {
          "internalType": "address",
          "name": "from",
          "type": "address"
        },
        {
          "internalType": "address",
          "name": "to",
          "type": "address"
        },
        {
          "internalType": "uint256",
          "name": "tokenId",
          "type": "uint256"
        },
        {
          "internalType": "bytes",
          "name": "data",
          "type": "bytes"
        }
      ],
      "name": "safeTransferFrom",
      "outputs": [],
      "stateMutability": "nonpayable",
      "type": "function"
    },
    {
      "inputs": [
        {
          "internalType": "address",
          "name": "operator",
          "type": "address"
        },
        {
          "internalType": "bool",
          "name": "approved",
          "type": "bool"
        }
      ],
      "name": "setApprovalForAll",
      "outputs": [],
      "stateMutability": "nonpayable",
      "type": "function"
    },
    {
      "inputs": [
        {
          "internalType": "bytes4",
          "name": "interfaceId",
          "type": "bytes4"
        }
      ],
      "name": "supportsInterface",
      "outputs": [
        {
          "internalType": "bool",
          "name": "",
          "type": "bool"
        }
      ],
      "stateMutability": "view",
      "type": "function"
    },
    {
      "inputs": [],
      "name": "symbol",
      "outputs": [
        {
          "internalType": "string",
          "name": "",
          "type": "string"
        }
      ],
      "stateMutability": "view",
      "type": "function"
    },
    {
      "inputs": [
        {
          "internalType": "uint256",
          "name": "tokenId",
          "type": "uint256"
        }
      ],
      "name": "tokenURI",
      "outputs": [
        {
          "internalType": "string",
          "name": "",
          "type": "string"
        }
      ],
      "stateMutability": "view",
      "type": "function"
    },
    {
      "inputs": [
        {
          "internalType": "address",
          "name": "from",
          "type": "address"
        },
        {
          "internalType": "address",
          "name": "to",
          "type": "address"
        },
        {
          "internalType": "uint256",
          "name": "tokenId",
          "type": "uint256"
        }
      ],
      "name": "transferFrom",
      "outputs": [],
      "stateMutability": "nonpayable",
      "type": "function"
    },
    {
      "inputs": [
        {
          "internalType": "address",
          "name": "newOwner",
          "type": "address"
        }
      ],
      "name": "transferOwnership",
      "outputs": [],
      "stateMutability": "nonpayable",
      "type": "function"
    }
  ],
  "bytecode": "0x608060405234801561001057600080fd5b5060405161186738038061186783398101604081905261002f9161019d565b338282600061003e838261028f565b50600161004b828261028f565b5050506001600160a01b03811661007c57604051631e4fbdf760e01b81526000600482015260240160405180910390fd5b61008581610092565b505060006007555061034d565b600680546001600160a01b038381166001600160a01b0319831681179093556040519116919082907f8be0079c531659141344cd1fd0a4f28419497f9722a3daafe3b4186f6b6457e090600090a35050565b634e487b7160e01b600052604160045260246000fd5b600082601f83011261010b57600080fd5b81516001600160401b03811115610124576101246100e4565b604051601f8201601f19908116603f011681016001600160401b0381118282101715610152576101526100e4565b60405281815283820160200185101561016a57600080fd5b60005b828110156101895760208186018101518383018201520161016d565b506000918101602001919091529392505050565b600080604083850312156101b057600080fd5b82516001600160401b038111156101c657600080fd5b6101d2858286016100fa565b602085015190935090506001600160401b038111156101f057600080fd5b6101fc858286016100fa565b9150509250929050565b600181811c9082168061021a57607f821691505b60208210810361023a57634e487b7160e01b600052602260045260246000fd5b50919050565b601f82111561028a57806000526020600020601f840160051c810160208510156102675750805b601f840160051c820191505b818110156102875760008155600101610273565b50505b505050565b81516001600160401b038111156102a8576102a86100e4565b6102bc816102b68454610206565b84610240565b6020601f8211600181146102f057600083156102d85750848201515b600019600385901b1c1916600184901b178455610287565b600084815260208120601f198516915b828110156103205787850151825560209485019460019092019101610300565b508482101561033e5786840151600019600387901b60f8161c191681555b50505050600190811b01905550565b61150b8061035c6000396000f3fe608060405234801561001057600080fd5b50600436106101375760003560e01c806370a08231116100b8578063a5cd761f1161007c578063a5cd761f14610280578063b88d4fde14610293578063c87b56dd146102a6578063caa0f92a146102b9578063e985e9c5146102c1578063f2fde38b146102d457600080fd5b806370a0823114610239578063715018a61461024c5780638da5cb5b1461025457806395d89b4114610265578063a22cb4651461026d57600080fd5b806323b872dd116100ff57806323b872dd146101cc5780633aecd0e3146101df5780633bb3a24d1461020057806342842e0e146102135780636352211e1461022657600080fd5b806301ffc9a71461013c57806306fdde0314610164578063081812fc14610179578063095ea7b3146101a45780631afb8463146101b9575b600080fd5b61014f61014a366004610fbb565b6102e7565b60405190151581526020015b60405180910390f35b61016c610339565b60405161015b9190611028565b61018c61018736600461103b565b6103cb565b6040516001600160a01b03909116815260200161015b565b6101b76101b2366004611070565b6103f4565b005b6101b76101c736600461112a565b610403565b6101b76101da366004611173565b610462565b6101f26101ed3660046111b0565b6104f2565b60405190815260200161015b565b61016c61020e36600461103b565b6104fd565b6101b7610221366004611173565b6105fc565b61018c61023436600461103b565b61061c565b6101f26102473660046111b0565b610627565b6101b761066f565b6006546001600160a01b031661018c565b61016c610683565b6101b761027b3660046111cb565b610692565b61018c61028e36600461103b565b61069d565b6101b76102a1366004611207565b610704565b61016c6102b436600461103b565b61071c565b6007546101f2565b61014f6102cf366004611283565b610791565b6101b76102e23660046111b0565b6107bf565b60006001600160e01b031982166380ac58cd60e01b148061031857506001600160e01b03198216635b5e139f60e01b145b8061033357506301ffc9a760e01b6001600160e01b03198316145b92915050565b606060008054610348906112b6565b80601f0160208091040260200160405190810160405280929190818152602001828054610374906112b6565b80156103c15780601f10610396576101008083540402835291602001916103c1565b820191906000526020600020905b8154815290600101906020018083116103a457829003601f168201915b5050505050905090565b60006103d6826107fd565b506000828152600460205260409020546001600160a01b0316610333565b6103ff828233610836565b5050565b61040b610843565b6007546104183382610870565b610422818361088a565b807f602a5458c2c5253ed93167025712dae1514cebeb576d27b71d100ea119a8f726836040516104529190611028565b60405180910390a26103ff6108c1565b6001600160a01b03821661049157604051633250574960e11b8152600060048201526024015b60405180910390fd5b600061049e8383336108d8565b9050836001600160a01b0316816001600160a01b0316146104ec576040516364283d7b60e01b81526001600160a01b0380861660048301526024820184905282166044820152606401610488565b50505050565b600061033382610627565b6000818152600260205260409020546060906001600160a01b031661055e5760405162461bcd60e51b8152602060048201526017602482015276151bdad95b88125108191bd95cc81b9bdd08195e1a5cdd604a1b6044820152606401610488565b60008281526008602052604090208054610577906112b6565b80601f01602080910402602001604051908101604052809291908181526020018280546105a3906112b6565b80156105f05780601f106105c5576101008083540402835291602001916105f0565b820191906000526020600020905b8154815290600101906020018083116105d357829003601f168201915b50505050509050919050565b61061783838360405180602001604052806000815250610704565b505050565b6000610333826107fd565b60006001600160a01b038216610653576040516322718ad960e21b815260006004820152602401610488565b506001600160a01b031660009081526003602052604090205490565b610677610843565b61068160006109d1565b565b606060018054610348906112b6565b6103ff338383610a23565b6000818152600260205260408120546001600160a01b03166106fb5760405162461bcd60e51b8152602060048201526017602482015276151bdad95b88125108191bd95cc81b9bdd08195e1a5cdd604a1b6044820152606401610488565b6103338261061c565b61070f848484610462565b6104ec3385858585610ac2565b6060610727826107fd565b50600061073f60408051602081019091526000815290565b9050600081511161075f576040518060200160405280600081525061078a565b8061076984610bed565b60405160200161077a9291906112f0565b6040516020818303038152906040525b9392505050565b6001600160a01b03918216600090815260056020908152604080832093909416825291909152205460ff1690565b6107c7610843565b6001600160a01b0381166107f157604051631e4fbdf760e01b815260006004820152602401610488565b6107fa816109d1565b50565b6000818152600260205260408120546001600160a01b03168061033357604051637e27328960e01b815260048101849052602401610488565b6106178383836001610c80565b6006546001600160a01b031633146106815760405163118cdaa760e01b8152336004820152602401610488565b6103ff828260405180602001604052806000815250610d86565b8060405160200161089b919061131f565b60408051601f198184030181529181526000848152600860205220906106179082611395565b600780549060006108d183611454565b9190505550565b6000828152600260205260408120546001600160a01b039081169083161561090557610905818486610d9e565b6001600160a01b0381161561094357610922600085600080610c80565b6001600160a01b038116600090815260036020526040902080546000190190555b6001600160a01b03851615610972576001600160a01b0385166000908152600360205260409020805460010190555b60008481526002602052604080822080546001600160a01b0319166001600160a01b0389811691821790925591518793918516917fddf252ad1be2c89b69c2b068fc378daa952ba7f163c4a11628f55a4df523b3ef91a4949350505050565b600680546001600160a01b038381166001600160a01b0319831681179093556040519116919082907f8be0079c531659141344cd1fd0a4f28419497f9722a3daafe3b4186f6b6457e090600090a35050565b6001600160a01b038216610a5557604051630b61174360e31b81526001600160a01b0383166004820152602401610488565b6001600160a01b03838116600081815260056020908152604080832094871680845294825291829020805460ff191686151590811790915591519182527f17307eab39ab6107e8899845ad3d59bd9653f200f220920489ca2b5937696c31910160405180910390a3505050565b6001600160a01b0383163b15610be657604051630a85bd0160e11b81526001600160a01b0384169063150b7a0290610b0490889088908790879060040161147b565b6020604051808303816000875af1925050508015610b3f575060408051601f3d908101601f19168201909252610b3c918101906114b8565b60015b610ba8573d808015610b6d576040519150601f19603f3d011682016040523d82523d6000602084013e610b72565b606091505b508051600003610ba057604051633250574960e11b81526001600160a01b0385166004820152602401610488565b805181602001fd5b6001600160e01b03198116630a85bd0160e11b14610be457604051633250574960e11b81526001600160a01b0385166004820152602401610488565b505b5050505050565b60606000610bfa83610e02565b600101905060008167ffffffffffffffff811115610c1a57610c1a61109a565b6040519080825280601f01601f191660200182016040528015610c44576020820181803683370190505b5090508181016020015b600019016f181899199a1a9b1b9c1cb0b131b232b360811b600a86061a8153600a8504945084610c4e57509392505050565b8080610c9457506001600160a01b03821615155b15610d56576000610ca4846107fd565b90506001600160a01b03831615801590610cd05750826001600160a01b0316816001600160a01b031614155b8015610ce35750610ce18184610791565b155b15610d0c5760405163a9fbf51f60e01b81526001600160a01b0384166004820152602401610488565b8115610d545783856001600160a01b0316826001600160a01b03167f8c5be1e5ebec7d5bd14f71427d1e84f3dd0314c0f7b2291e5b200ac8c7c3b92560405160405180910390a45b505b5050600090815260046020526040902080546001600160a01b0319166001600160a01b0392909216919091179055565b610d908383610eda565b610617336000858585610ac2565b610da9838383610f3f565b610617576001600160a01b038316610dd757604051637e27328960e01b815260048101829052602401610488565b60405163177e802f60e01b81526001600160a01b038316600482015260248101829052604401610488565b60008072184f03e93ff9f4daa797ed6e38ed64bf6a1f0160401b8310610e415772184f03e93ff9f4daa797ed6e38ed64bf6a1f0160401b830492506040015b6d04ee2d6d415b85acef81000000008310610e6d576d04ee2d6d415b85acef8100000000830492506020015b662386f26fc100008310610e8b57662386f26fc10000830492506010015b6305f5e1008310610ea3576305f5e100830492506008015b6127108310610eb757612710830492506004015b60648310610ec9576064830492506002015b600a83106103335760010192915050565b6001600160a01b038216610f0457604051633250574960e11b815260006004820152602401610488565b6000610f12838360006108d8565b90506001600160a01b03811615610617576040516339e3563760e11b815260006004820152602401610488565b60006001600160a01b03831615801590610f9d5750826001600160a01b0316846001600160a01b03161480610f795750610f798484610791565b80610f9d57506000828152600460205260409020546001600160a01b038481169116145b949350505050565b6001600160e01b0319811681146107fa57600080fd5b600060208284031215610fcd57600080fd5b813561078a81610fa5565b60005b83811015610ff3578181015183820152602001610fdb565b50506000910152565b60008151808452611014816020860160208601610fd8565b601f01601f19169290920160200192915050565b60208152600061078a6020830184610ffc565b60006020828403121561104d57600080fd5b5035919050565b80356001600160a01b038116811461106b57600080fd5b919050565b6000806040838503121561108357600080fd5b61108c83611054565b946020939093013593505050565b634e487b7160e01b600052604160045260246000fd5b60008067ffffffffffffffff8411156110cb576110cb61109a565b50604051601f19601f85018116603f0116810181811067ffffffffffffffff821117156110fa576110fa61109a565b60405283815290508082840185101561111257600080fd5b83836020830137600060208583010152509392505050565b60006020828403121561113c57600080fd5b813567ffffffffffffffff81111561115357600080fd5b8201601f8101841361116457600080fd5b610f9d848235602084016110b0565b60008060006060848603121561118857600080fd5b61119184611054565b925061119f60208501611054565b929592945050506040919091013590565b6000602082840312156111c257600080fd5b61078a82611054565b600080604083850312156111de57600080fd5b6111e783611054565b9150602083013580151581146111fc57600080fd5b809150509250929050565b6000806000806080858703121561121d57600080fd5b61122685611054565b935061123460208601611054565b925060408501359150606085013567ffffffffffffffff81111561125757600080fd5b8501601f8101871361126857600080fd5b611277878235602084016110b0565b91505092959194509250565b6000806040838503121561129657600080fd5b61129f83611054565b91506112ad60208401611054565b90509250929050565b600181811c908216806112ca57607f821691505b6020821081036112ea57634e487b7160e01b600052602260045260246000fd5b50919050565b60008351611302818460208801610fd8565b835190830190611316818360208801610fd8565b01949350505050565b66697066733a2f2f60c81b815260008251611341816007850160208701610fd8565b9190910160070192915050565b601f82111561061757806000526020600020601f840160051c810160208510156113755750805b601f840160051c820191505b81811015610be65760008155600101611381565b815167ffffffffffffffff8111156113af576113af61109a565b6113c3816113bd84546112b6565b8461134e565b6020601f8211600181146113f757600083156113df5750848201515b600019600385901b1c1916600184901b178455610be6565b600084815260208120601f198516915b828110156114275787850151825560209485019460019092019101611407565b50848210156114455786840151600019600387901b60f8161c191681555b50505050600190811b01905550565b60006001820161147457634e487b7160e01b600052601160045260246000fd5b5060010190565b6001600160a01b03858116825284166020820152604081018390526080606082018190526000906114ae90830184610ffc565b9695505050505050565b6000602082840312156114ca57600080fd5b815161078a81610fa556fea26469706673582212209bd8982180b032c339dec56a313b562c7a54f51e371077e45b48663628a20df864736f6c634300081c0033",
  "linkReferences": {},
  "deployedLinkReferences": {}
}