{
  "_format": "hh-sol-artifact-1",
  "contractName": "TradingContract",
  "sourceName": "contracts/TradingContract.sol",
  "abi": [
    {
      "inputs": [
        {
          "internalType": "address",
          "name": "_pokemonContract",
          "type": "address"
        }
      ],
      "stateMutability": "nonpayable",
      "type": "constructor"
    },
    {
      "inputs": [],
      "name": "ReentrancyGuardReentrantCall",
      "type": "error"
    },
    {
      "anonymous": false,
      "inputs": [
        {
          "indexed": true,
          "internalType": "uint256",
          "name": "pokemonId",
          "type": "uint256"
        },
        {
          "indexed": false,
          "internalType": "uint256",
          "name": "bidAmount",
          "type": "uint256"
        },
        {
          "indexed": true,
          "internalType": "address",
          "name": "bidder",
          "type": "address"
        }
      ],
      "name": "BidPlaced",
      "type": "event"
    },
    {
      "anonymous": false,
      "inputs": [
        {
          "indexed": true,
          "internalType": "uint256",
          "name": "pokemonId",
          "type": "uint256"
        },
        {
          "indexed": false,
          "internalType": "uint256",
          "name": "price",
          "type": "uint256"
        },
        {
          "indexed": false,
          "internalType": "bool",
          "name": "isAuction",
          "type": "bool"
        }
      ],
      "name": "Listed",
      "type": "event"
    },
    {
      "anonymous": false,
      "inputs": [
        {
          "indexed": true,
          "internalType": "uint256",
          "name": "pokemonId",
          "type": "uint256"
        }
      ],
      "name": "ListingRemoved",
      "type": "event"
    },
    {
      "anonymous": false,
      "inputs": [
        {
          "indexed": true,
          "internalType": "uint256",
          "name": "pokemonId",
          "type": "uint256"
        },
        {
          "indexed": false,
          "internalType": "uint256",
          "name": "price",
          "type": "uint256"
        },
        {
          "indexed": true,
          "internalType": "address",
          "name": "buyer",
          "type": "address"
        }
      ],
      "name": "PokemonSold",
      "type": "event"
    },
    {
      "anonymous": false,
      "inputs": [
        {
          "indexed": false,
          "internalType": "address",
          "name": "finalizer",
          "type": "address"
        },
        {
          "indexed": false,
          "internalType": "uint256",
          "name": "rewardAmount",
          "type": "uint256"
        }
      ],
      "name": "RewardPaid",
      "type": "event"
    },
    {
      "anonymous": false,
      "inputs": [
        {
          "indexed": false,
          "internalType": "address",
          "name": "operator",
          "type": "address"
        },
        {
          "indexed": false,
          "internalType": "address",
          "name": "from",
          "type": "address"
        },
        {
          "indexed": false,
          "internalType": "uint256",
          "name": "tokenId",
          "type": "uint256"
        }
      ],
      "name": "TokenReceived",
      "type": "event"
    },
    {
      "anonymous": false,
      "inputs": [
        {
          "indexed": true,
          "internalType": "address",
          "name": "user",
          "type": "address"
        },
        {
          "indexed": false,
          "internalType": "uint256",
          "name": "amount",
          "type": "uint256"
        }
      ],
      "name": "Withdrawn",
      "type": "event"
    },
    {
      "inputs": [],
      "name": "FINALIZER_FEE",
      "outputs": [
        {
          "internalType": "uint256",
          "name": "",
          "type": "uint256"
        }
      ],
      "stateMutability": "view",
      "type": "function"
    },
    {
      "inputs": [
        {
          "internalType": "uint256",
          "name": "",
          "type": "uint256"
        }
      ],
      "name": "auctionRewards",
      "outputs": [
        {
          "internalType": "uint256",
          "name": "",
          "type": "uint256"
        }
      ],
      "stateMutability": "view",
      "type": "function"
    },
    {
      "inputs": [
        {
          "internalType": "uint256",
          "name": "pokemonId",
          "type": "uint256"
        }
      ],
      "name": "buyPokemon",
      "outputs": [],
      "stateMutability": "payable",
      "type": "function"
    },
    {
      "inputs": [
        {
          "internalType": "uint256",
          "name": "pokemonId",
          "type": "uint256"
        }
      ],
      "name": "finalizeAuction",
      "outputs": [],
      "stateMutability": "nonpayable",
      "type": "function"
    },
    {
      "inputs": [
        {
          "internalType": "uint256",
          "name": "pokemonId",
          "type": "uint256"
        },
        {
          "internalType": "uint256",
          "name": "price",
          "type": "uint256"
        },
        {
          "internalType": "bool",
          "name": "isAuction",
          "type": "bool"
        },
        {
          "internalType": "uint256",
          "name": "auctionDuration",
          "type": "uint256"
        }
      ],
      "name": "listPokemon",
      "outputs": [],
      "stateMutability": "payable",
      "type": "function"
    },
    {
      "inputs": [
        {
          "internalType": "uint256",
          "name": "",
          "type": "uint256"
        }
      ],
      "name": "listings",
      "outputs": [
        {
          "internalType": "address",
          "name": "seller",
          "type": "address"
        },
        {
          "internalType": "uint256",
          "name": "pokemonId",
          "type": "uint256"
        },
        {
          "internalType": "uint256",
          "name": "price",
          "type": "uint256"
        },
        {
          "internalType": "bool",
          "name": "isAuction",
          "type": "bool"
        },
        {
          "internalType": "uint256",
          "name": "auctionEndTime",
          "type": "uint256"
        },
        {
          "internalType": "address",
          "name": "highestBidder",
          "type": "address"
        },
        {
          "internalType": "uint256",
          "name": "highestBid",
          "type": "uint256"
        }
      ],
      "stateMutability": "view",
      "type": "function"
    },
    {
      "inputs": [
        {
          "internalType": "address",
          "name": "operator",
          "type": "address"
        },
        {
          "internalType": "address",
          "name": "from",
          "type": "address"
        },
        {
          "internalType": "uint256",
          "name": "tokenId",
          "type": "uint256"
        },
        {
          "internalType": "bytes",
          "name": "data",
          "type": "bytes"
        }
      ],
      "name": "onERC721Received",
      "outputs": [
        {
          "internalType": "bytes4",
          "name": "",
          "type": "bytes4"
        }
      ],
      "stateMutability": "nonpayable",
      "type": "function"
    },
    {
      "inputs": [
        {
          "internalType": "address",
          "name": "",
          "type": "address"
        }
      ],
      "name": "pendingRefunds",
      "outputs": [
        {
          "internalType": "uint256",
          "name": "",
          "type": "uint256"
        }
      ],
      "stateMutability": "view",
      "type": "function"
    },
    {
      "inputs": [
        {
          "internalType": "uint256",
          "name": "pokemonId",
          "type": "uint256"
        }
      ],
      "name": "placeBid",
      "outputs": [],
      "stateMutability": "payable",
      "type": "function"
    },
    {
      "inputs": [],
      "name": "pokemonContract",
      "outputs": [
        {
          "internalType": "contract IERC721",
          "name": "",
          "type": "address"
        }
      ],
      "stateMutability": "view",
      "type": "function"
    },
    {
      "inputs": [
        {
          "internalType": "uint256",
          "name": "pokemonId",
          "type": "uint256"
        }
      ],
      "name": "removeListing",
      "outputs": [],
      "stateMutability": "nonpayable",
      "type": "function"
    },
    {
      "inputs": [],
      "name": "withdrawRefund",
      "outputs": [],
      "stateMutability": "nonpayable",
      "type": "function"
    }
  ],
  "bytecode": "0x6080604052348015600f57600080fd5b50604051611482380380611482833981016040819052602c916055565b6001600055600480546001600160a01b0319166001600160a01b03929092169190911790556083565b600060208284031215606657600080fd5b81516001600160a01b0381168114607c57600080fd5b9392505050565b6113f0806100926000396000f3fe6080604052600436106100a75760003560e01c806375fe0ba61161006457806375fe0ba6146101a75780639979ef45146101c1578063b613b114146101d4578063d75efef014610201578063de74e57b14610214578063e8083863146102c357600080fd5b8063033e1a87146100ac578063110f8874146100c1578063150b7a02146100d657806332a428f214610114578063479ad4c31461014f5780636d50905f1461016f575b600080fd5b6100bf6100ba3660046111d8565b6102e3565b005b3480156100cd57600080fd5b506100bf610635565b3480156100e257600080fd5b506100f66100f1366004611231565b61070e565b6040516001600160e01b031990911681526020015b60405180910390f35b34801561012057600080fd5b5061014161012f3660046112d2565b60036020526000908152604090205481565b60405190815260200161010b565b34801561015b57600080fd5b506100bf61016a3660046112d2565b6107c4565b34801561017b57600080fd5b5060045461018f906001600160a01b031681565b6040516001600160a01b03909116815260200161010b565b3480156101b357600080fd5b50610141655af3107a400081565b6100bf6101cf3660046112d2565b6109bb565b3480156101e057600080fd5b506101416101ef3660046112eb565b60026020526000908152604090205481565b6100bf61020f3660046112d2565b610ba2565b34801561022057600080fd5b5061027f61022f3660046112d2565b600160208190526000918252604090912080549181015460028201546003830154600484015460058501546006909501546001600160a01b03968716969495939460ff9093169391929091169087565b604080516001600160a01b03988916815260208101979097528601949094529115156060850152608084015290921660a082015260c081019190915260e00161010b565b3480156102cf57600080fd5b506100bf6102de3660046112d2565b610e47565b600480546040516331a9108f60e11b8152918201869052859133916001600160a01b031690636352211e90602401602060405180830381865afa15801561032e573d6000803e3d6000fd5b505050506040513d601f19601f82011682018060405250810190610352919061130f565b6001600160a01b0316146103815760405162461bcd60e51b81526004016103789061132c565b60405180910390fd5b600084116103d15760405162461bcd60e51b815260206004820152601e60248201527f5072696365206d757374206265206c6172676572207468616e207a65726f00006044820152606401610378565b821561049b57655af3107a40003410156104385760405162461bcd60e51b815260206004820152602260248201527f4d7573742073656e642045544820666f722066696e616c697a657220726577616044820152611c9960f21b6064820152608401610378565b6000821161049b5760405162461bcd60e51b815260206004820152602a60248201527f41756374696f6e206475726174696f6e206d7573742062652067726561746572604482015269207468616e207a65726f60b01b6064820152608401610378565b6040518060e00160405280336001600160a01b031681526020018681526020018581526020018415158152602001846104d55760006104df565b6104df844261136f565b8152600060208083018290526040928301829052888252600180825291839020845181546001600160a01b039182166001600160a01b03199182161783559286015193820193909355928401516002840155606084015160038401805491151560ff199092169190911790556080840151600484015560a084015160058401805491909316911617905560c090910151600690910155821561058d5760008581526003602052604090203490555b60048054604051632142170760e11b81526001600160a01b03909116916342842e0e916105c091339130918b9101611396565b600060405180830381600087803b1580156105da57600080fd5b505af11580156105ee573d6000803e3d6000fd5b50506040805187815286151560208201528893507fec2862227fb8941dc82b951797d099c179ce97a30bf0174bf1697d1c01d8748b92500160405180910390a25050505050565b61063d6111ae565b33600090815260026020526040902054806106905760405162461bcd60e51b81526020600482015260136024820152724e6f20726566756e6420617661696c61626c6560681b6044820152606401610378565b336000818152600260205260408082208290555183156108fc0291849190818181858888f193505050501580156106cb573d6000803e3d6000fd5b5060405181815233907f7084f5476618d8e60b11ef0d7d3f06914655adb8793e28ff7f018d4c76d505d59060200160405180910390a25061070c6001600055565b565b6004546000906001600160a01b031633146107775760405162461bcd60e51b8152602060048201526024808201527f4f6e6c7920506f6b656d6f6e436f6e747261637420746f6b656e7320616363656044820152631c1d195960e21b6064820152608401610378565b7fa83965f0e7c5e026e57c9ba2dd91e4ebcca352f2d514498c1e9ed23ba65386008686866040516107aa93929190611396565b60405180910390a150630a85bd0160e11b95945050505050565b60008181526001602052604090205481906001600160a01b031633146107fc5760405162461bcd60e51b81526004016103789061132c565b6108046111ae565b600082815260016020526040902080546001600160a01b03166108625760405162461bcd60e51b8152602060048201526016602482015275131a5cdd1a5b99c8191bd95cc81b9bdd08195e1a5cdd60521b6044820152606401610378565b600381015460ff168015610882575060058101546001600160a01b031615155b156108c957600581015460068201546040516001600160a01b039092169181156108fc0291906000818181858888f193505050501580156108c7573d6000803e3d6000fd5b505b600480548254604051632142170760e11b81526001600160a01b03928316936342842e0e936108ff933093911691899101611396565b600060405180830381600087803b15801561091957600080fd5b505af115801561092d573d6000803e3d6000fd5b50506040518592507f51a9d0860a9b8ef69e7cd2cc93e90cff1b4cf1433a5cffbe7394d0aa6f994b329150600090a2506000828152600160208190526040822080546001600160a01b031990811682559181018390556002810183905560038101805460ff1916905560048101839055600581018054909216909155600601556109b76001600055565b5050565b600081815260016020526040902060030154819060ff16610a0f5760405162461bcd60e51b815260206004820152600e60248201526d2737ba1030b71030bab1ba34b7b760911b6044820152606401610378565b6000818152600160205260409020600401544210610a5f5760405162461bcd60e51b815260206004820152600d60248201526c105d58dd1a5bdb88195b991959609a1b6044820152606401610378565b60008281526001602052604081206006810154909190610a8590655af3107a400061136f565b905080341015610afd5760405162461bcd60e51b815260206004820152603860248201527f426964206d757374206265206174206c6561737420302e30303031204554482060448201527f686967686572207468616e2070726576696f75732062696400000000000000006064820152608401610378565b60058201546001600160a01b031615610b4757600682015460058301546001600160a01b031660009081526002602052604081208054909190610b4190849061136f565b90915550505b34600683018190556005830180546001600160a01b031916339081179091556040519182529085907fbfbf2db1f7880e9487cbceeb181c4dce363d0ad1b6e73f5aa494ffb5d91914969060200160405180910390a350505050565b610baa6111ae565b6000818152600160205260409020600381015460ff1615610c335760405162461bcd60e51b815260206004820152603760248201527f506f6b656d6f6e206973206c697374656420666f7220616e2061756374696f6e60448201527f2c206e6f7420666f7220612066697865642070726963650000000000000000006064820152608401610378565b8060020154341015610c875760405162461bcd60e51b815260206004820152601e60248201527f496e73756666696369656e742066756e647320746f20707572636861736500006044820152606401610378565b80546001600160a01b0316610cd75760405162461bcd60e51b8152602060048201526016602482015275131a5cdd1a5b99c8191bd95cc81b9bdd08195e1a5cdd60521b6044820152606401610378565b60048054604051632142170760e11b81526001600160a01b03909116916342842e0e91610d0a9130913391889101611396565b600060405180830381600087803b158015610d2457600080fd5b505af1158015610d38573d6000803e3d6000fd5b505082546040516001600160a01b0390911692503480156108fc029250906000818181858888f19350505050158015610d75573d6000803e3d6000fd5b50336001600160a01b0316827fe89ee650d68ca71d565381bf8c4b50ef47da5452d8df24d949380bee65d337578360020154604051610db691815260200190565b60405180910390a3600082815260016020819052604080832080546001600160a01b031990811682559281018490556002810184905560038101805460ff191690556004810184905560058101805490931690925560069091018290555183917f51a9d0860a9b8ef69e7cd2cc93e90cff1b4cf1433a5cffbe7394d0aa6f994b3291a250610e446001600055565b50565b610e4f6111ae565b6000818152600160205260409020600381015460ff16610ea25760405162461bcd60e51b815260206004820152600e60248201526d2737ba1030b71030bab1ba34b7b760911b6044820152606401610378565b8060040154421015610eea5760405162461bcd60e51b8152602060048201526011602482015270105d58dd1a5bdb881b9bdd08195b991959607a1b6044820152606401610378565b60008281526003602052604090205460058201546001600160a01b0316610fbc57600480548354604051632142170760e11b81526001600160a01b03928316936342842e0e93610f41933093911691899101611396565b600060405180830381600087803b158015610f5b57600080fd5b505af1158015610f6f573d6000803e3d6000fd5b50508354604051600081526001600160a01b0390911692508591507fe89ee650d68ca71d565381bf8c4b50ef47da5452d8df24d949380bee65d337579060200160405180910390a36110b1565b600480546005840154604051632142170760e11b81526001600160a01b03928316936342842e0e93610ff5933093911691899101611396565b600060405180830381600087803b15801561100f57600080fd5b505af1158015611023573d6000803e3d6000fd5b5050835460068501546040516001600160a01b03909216935080156108fc029250906000818181858888f19350505050158015611064573d6000803e3d6000fd5b50600582015460068301546040519081526001600160a01b039091169084907fe89ee650d68ca71d565381bf8c4b50ef47da5452d8df24d949380bee65d337579060200160405180910390a35b801561111f57604051339082156108fc029083906000818181858888f193505050501580156110e4573d6000803e3d6000fd5b5060408051338152602081018390527fe2403640ba68fed3a2f88b7557551d1993f84b99bb10ff833f0cf8db0c5e0486910160405180910390a15b600083815260016020818152604080842080546001600160a01b03199081168255938101859055600281018590556003808201805460ff19169055600482018690556005820180549095169094556006018490559190528082208290555184917f51a9d0860a9b8ef69e7cd2cc93e90cff1b4cf1433a5cffbe7394d0aa6f994b3291a25050610e446001600055565b6002600054036111d157604051633ee5aeb560e01b815260040160405180910390fd5b6002600055565b600080600080608085870312156111ee57600080fd5b84359350602085013592506040850135801515811461120c57600080fd5b9396929550929360600135925050565b6001600160a01b0381168114610e4457600080fd5b60008060008060006080868803121561124957600080fd5b85356112548161121c565b945060208601356112648161121c565b935060408601359250606086013567ffffffffffffffff81111561128757600080fd5b8601601f8101881361129857600080fd5b803567ffffffffffffffff8111156112af57600080fd5b8860208284010111156112c157600080fd5b959894975092955050506020019190565b6000602082840312156112e457600080fd5b5035919050565b6000602082840312156112fd57600080fd5b81356113088161121c565b9392505050565b60006020828403121561132157600080fd5b81516113088161121c565b60208082526023908201527f596f75206d757374206f776e2074686520506f6b656d6f6e20746f206c697374604082015262081a5d60ea1b606082015260800190565b8082018082111561139057634e487b7160e01b600052601160045260246000fd5b92915050565b6001600160a01b03938416815291909216602082015260408101919091526060019056fea264697066735822122032c40700997df3f17cee0080fd89437f518ceb7544be439df1da6b09d91ccf0064736f6c634300081c0033",
  "linkReferences": {},
  "deployedLinkReferences": {}
}