{
  "_format": "hh-sol-artifact-1",
  "contractName": "TradingContract",
  "sourceName": "contracts/TradingContract.sol",
  "abi": [
    {
      "inputs": [
        {
          "internalType": "address",
          "name": "_pokemonContract",
          "type": "address"
        }
      ],
      "stateMutability": "nonpayable",
      "type": "constructor"
    },
    {
      "inputs": [],
      "name": "ReentrancyGuardReentrantCall",
      "type": "error"
    },
    {
      "anonymous": false,
      "inputs": [
        {
          "indexed": true,
          "internalType": "uint256",
          "name": "pokemonId",
          "type": "uint256"
        },
        {
          "indexed": false,
          "internalType": "uint256",
          "name": "bidAmount",
          "type": "uint256"
        },
        {
          "indexed": true,
          "internalType": "address",
          "name": "bidder",
          "type": "address"
        }
      ],
      "name": "BidPlaced",
      "type": "event"
    },
    {
      "anonymous": false,
      "inputs": [
        {
          "indexed": true,
          "internalType": "uint256",
          "name": "pokemonId",
          "type": "uint256"
        },
        {
          "indexed": false,
          "internalType": "uint256",
          "name": "price",
          "type": "uint256"
        },
        {
          "indexed": false,
          "internalType": "bool",
          "name": "isAuction",
          "type": "bool"
        }
      ],
      "name": "Listed",
      "type": "event"
    },
    {
      "anonymous": false,
      "inputs": [
        {
          "indexed": true,
          "internalType": "uint256",
          "name": "pokemonId",
          "type": "uint256"
        }
      ],
      "name": "ListingRemoved",
      "type": "event"
    },
    {
      "anonymous": false,
      "inputs": [
        {
          "indexed": true,
          "internalType": "uint256",
          "name": "pokemonId",
          "type": "uint256"
        },
        {
          "indexed": false,
          "internalType": "uint256",
          "name": "price",
          "type": "uint256"
        },
        {
          "indexed": true,
          "internalType": "address",
          "name": "buyer",
          "type": "address"
        }
      ],
      "name": "PokemonSold",
      "type": "event"
    },
    {
      "anonymous": false,
      "inputs": [
        {
          "indexed": false,
          "internalType": "address",
          "name": "finalizer",
          "type": "address"
        },
        {
          "indexed": false,
          "internalType": "uint256",
          "name": "rewardAmount",
          "type": "uint256"
        }
      ],
      "name": "RewardPaid",
      "type": "event"
    },
    {
      "anonymous": false,
      "inputs": [
        {
          "indexed": false,
          "internalType": "address",
          "name": "operator",
          "type": "address"
        },
        {
          "indexed": false,
          "internalType": "address",
          "name": "from",
          "type": "address"
        },
        {
          "indexed": false,
          "internalType": "uint256",
          "name": "tokenId",
          "type": "uint256"
        }
      ],
      "name": "TokenReceived",
      "type": "event"
    },
    {
      "anonymous": false,
      "inputs": [
        {
          "indexed": true,
          "internalType": "address",
          "name": "user",
          "type": "address"
        },
        {
          "indexed": false,
          "internalType": "uint256",
          "name": "amount",
          "type": "uint256"
        }
      ],
      "name": "Withdrawn",
      "type": "event"
    },
    {
      "inputs": [],
      "name": "FINALIZER_FEE",
      "outputs": [
        {
          "internalType": "uint256",
          "name": "",
          "type": "uint256"
        }
      ],
      "stateMutability": "view",
      "type": "function"
    },
    {
      "inputs": [
        {
          "internalType": "uint256",
          "name": "",
          "type": "uint256"
        }
      ],
      "name": "activeListingIds",
      "outputs": [
        {
          "internalType": "uint256",
          "name": "",
          "type": "uint256"
        }
      ],
      "stateMutability": "view",
      "type": "function"
    },
    {
      "inputs": [
        {
          "internalType": "uint256",
          "name": "",
          "type": "uint256"
        }
      ],
      "name": "auctionRewards",
      "outputs": [
        {
          "internalType": "uint256",
          "name": "",
          "type": "uint256"
        }
      ],
      "stateMutability": "view",
      "type": "function"
    },
    {
      "inputs": [
        {
          "internalType": "uint256",
          "name": "pokemonId",
          "type": "uint256"
        }
      ],
      "name": "buyPokemon",
      "outputs": [],
      "stateMutability": "payable",
      "type": "function"
    },
    {
      "inputs": [
        {
          "internalType": "uint256",
          "name": "pokemonId",
          "type": "uint256"
        }
      ],
      "name": "finalizeAuction",
      "outputs": [],
      "stateMutability": "nonpayable",
      "type": "function"
    },
    {
      "inputs": [],
      "name": "getAllActiveListings",
      "outputs": [
        {
          "internalType": "uint256[]",
          "name": "",
          "type": "uint256[]"
        }
      ],
      "stateMutability": "view",
      "type": "function"
    },
    {
      "inputs": [
        {
          "internalType": "uint256",
          "name": "pokemonId",
          "type": "uint256"
        },
        {
          "internalType": "uint256",
          "name": "price",
          "type": "uint256"
        },
        {
          "internalType": "bool",
          "name": "isAuction",
          "type": "bool"
        },
        {
          "internalType": "uint256",
          "name": "auctionDuration",
          "type": "uint256"
        }
      ],
      "name": "listPokemon",
      "outputs": [],
      "stateMutability": "payable",
      "type": "function"
    },
    {
      "inputs": [
        {
          "internalType": "uint256",
          "name": "",
          "type": "uint256"
        }
      ],
      "name": "listings",
      "outputs": [
        {
          "internalType": "address",
          "name": "seller",
          "type": "address"
        },
        {
          "internalType": "uint256",
          "name": "pokemonId",
          "type": "uint256"
        },
        {
          "internalType": "uint256",
          "name": "price",
          "type": "uint256"
        },
        {
          "internalType": "bool",
          "name": "isAuction",
          "type": "bool"
        },
        {
          "internalType": "uint256",
          "name": "auctionEndTime",
          "type": "uint256"
        },
        {
          "internalType": "address",
          "name": "highestBidder",
          "type": "address"
        },
        {
          "internalType": "uint256",
          "name": "highestBid",
          "type": "uint256"
        }
      ],
      "stateMutability": "view",
      "type": "function"
    },
    {
      "inputs": [
        {
          "internalType": "address",
          "name": "operator",
          "type": "address"
        },
        {
          "internalType": "address",
          "name": "from",
          "type": "address"
        },
        {
          "internalType": "uint256",
          "name": "tokenId",
          "type": "uint256"
        },
        {
          "internalType": "bytes",
          "name": "data",
          "type": "bytes"
        }
      ],
      "name": "onERC721Received",
      "outputs": [
        {
          "internalType": "bytes4",
          "name": "",
          "type": "bytes4"
        }
      ],
      "stateMutability": "nonpayable",
      "type": "function"
    },
    {
      "inputs": [
        {
          "internalType": "address",
          "name": "",
          "type": "address"
        }
      ],
      "name": "pendingRefunds",
      "outputs": [
        {
          "internalType": "uint256",
          "name": "",
          "type": "uint256"
        }
      ],
      "stateMutability": "view",
      "type": "function"
    },
    {
      "inputs": [
        {
          "internalType": "uint256",
          "name": "pokemonId",
          "type": "uint256"
        }
      ],
      "name": "placeBid",
      "outputs": [],
      "stateMutability": "payable",
      "type": "function"
    },
    {
      "inputs": [],
      "name": "pokemonContract",
      "outputs": [
        {
          "internalType": "contract IERC721",
          "name": "",
          "type": "address"
        }
      ],
      "stateMutability": "view",
      "type": "function"
    },
    {
      "inputs": [
        {
          "internalType": "uint256",
          "name": "pokemonId",
          "type": "uint256"
        }
      ],
      "name": "removeListing",
      "outputs": [],
      "stateMutability": "nonpayable",
      "type": "function"
    },
    {
      "inputs": [],
      "name": "withdrawRefund",
      "outputs": [],
      "stateMutability": "nonpayable",
      "type": "function"
    }
  ],
  "bytecode": "0x6080604052348015600f57600080fd5b50604051611707380380611707833981016040819052602c916055565b6001600055600580546001600160a01b0319166001600160a01b03929092169190911790556083565b600060208284031215606657600080fd5b81516001600160a01b0381168114607c57600080fd5b9392505050565b611675806100926000396000f3fe6080604052600436106100dd5760003560e01c806375fe0ba61161007f578063d75efef011610059578063d75efef014610259578063de74e57b1461026c578063e3b6a1f61461031b578063e80838631461033b57600080fd5b806375fe0ba6146101ff5780639979ef4514610219578063b613b1141461022c57600080fd5b806332a428f2116100bb57806332a428f21461014a578063479ad4c3146101855780636d50905f146101a5578063701e5084146101dd57600080fd5b8063033e1a87146100e2578063110f8874146100f7578063150b7a021461010c575b600080fd5b6100f56100f03660046113d3565b61035b565b005b34801561010357600080fd5b506100f56106de565b34801561011857600080fd5b5061012c61012736600461142c565b6107b7565b6040516001600160e01b031990911681526020015b60405180910390f35b34801561015657600080fd5b506101776101653660046114cd565b60046020526000908152604090205481565b604051908152602001610141565b34801561019157600080fd5b506100f56101a03660046114cd565b61086d565b3480156101b157600080fd5b506005546101c5906001600160a01b031681565b6040516001600160a01b039091168152602001610141565b3480156101e957600080fd5b506101f2610a6f565b60405161014191906114e6565b34801561020b57600080fd5b50610177655af3107a400081565b6100f56102273660046114cd565b610ac7565b34801561023857600080fd5b50610177610247366004611529565b60036020526000908152604090205481565b6100f56102673660046114cd565b610cae565b34801561027857600080fd5b506102d76102873660046114cd565b600160208190526000918252604090912080549181015460028201546003830154600484015460058501546006909501546001600160a01b03968716969495939460ff9093169391929091169087565b604080516001600160a01b03988916815260208101979097528601949094529115156060850152608084015290921660a082015260c081019190915260e001610141565b34801561032757600080fd5b506101776103363660046114cd565b610f5d565b34801561034757600080fd5b506100f56103563660046114cd565b610f7e565b6005546040516331a9108f60e11b815260048101869052859133916001600160a01b0390911690636352211e90602401602060405180830381865afa1580156103a8573d6000803e3d6000fd5b505050506040513d601f19601f820116820180604052508101906103cc919061154d565b6001600160a01b0316146103fb5760405162461bcd60e51b81526004016103f29061156a565b60405180910390fd5b6000841161044b5760405162461bcd60e51b815260206004820152601e60248201527f5072696365206d757374206265206c6172676572207468616e207a65726f000060448201526064016103f2565b821561051557655af3107a40003410156104b25760405162461bcd60e51b815260206004820152602260248201527f4d7573742073656e642045544820666f722066696e616c697a657220726577616044820152611c9960f21b60648201526084016103f2565b600082116105155760405162461bcd60e51b815260206004820152602a60248201527f41756374696f6e206475726174696f6e206d7573742062652067726561746572604482015269207468616e207a65726f60b01b60648201526084016103f2565b6040518060e00160405280336001600160a01b0316815260200186815260200185815260200184151581526020018461054f576000610559565b61055984426115c3565b81526000602080830182905260409283018290528882526001808252838320855181546001600160a01b03199081166001600160a01b03928316178355938701518284015594860151600280830191909155606087015160038301805460ff19169115159190911790556080870151600483015560a087015160058301805490951696169590951790925560c09094015160069091015581549283018255527f405787fa12a823e0f2b7631cc41b3ba8828b3321ca811111fa75cd3aa3bb5ace0185905582156106355760008581526004602052604090203490555b600554604051632142170760e11b81526001600160a01b03909116906342842e0e9061066990339030908a906004016115dc565b600060405180830381600087803b15801561068357600080fd5b505af1158015610697573d6000803e3d6000fd5b50506040805187815286151560208201528893507fec2862227fb8941dc82b951797d099c179ce97a30bf0174bf1697d1c01d8748b92500160405180910390a25050505050565b6106e66112f7565b33600090815260036020526040902054806107395760405162461bcd60e51b81526020600482015260136024820152724e6f20726566756e6420617661696c61626c6560681b60448201526064016103f2565b336000818152600360205260408082208290555183156108fc0291849190818181858888f19350505050158015610774573d6000803e3d6000fd5b5060405181815233907f7084f5476618d8e60b11ef0d7d3f06914655adb8793e28ff7f018d4c76d505d59060200160405180910390a2506107b56001600055565b565b6005546000906001600160a01b031633146108205760405162461bcd60e51b8152602060048201526024808201527f4f6e6c7920506f6b656d6f6e436f6e747261637420746f6b656e7320616363656044820152631c1d195960e21b60648201526084016103f2565b7fa83965f0e7c5e026e57c9ba2dd91e4ebcca352f2d514498c1e9ed23ba6538600868686604051610853939291906115dc565b60405180910390a150630a85bd0160e11b95945050505050565b60008181526001602052604090205481906001600160a01b031633146108a55760405162461bcd60e51b81526004016103f29061156a565b6108ad6112f7565b600082815260016020526040902080546001600160a01b031661090b5760405162461bcd60e51b8152602060048201526016602482015275131a5cdd1a5b99c8191bd95cc81b9bdd08195e1a5cdd60521b60448201526064016103f2565b600381015460ff16801561092b575060058101546001600160a01b031615155b1561097257600581015460068201546040516001600160a01b039092169181156108fc0291906000818181858888f19350505050158015610970573d6000803e3d6000fd5b505b6005548154604051632142170760e11b81526001600160a01b03928316926342842e0e926109aa9230929091169088906004016115dc565b600060405180830381600087803b1580156109c457600080fd5b505af11580156109d8573d6000803e3d6000fd5b50506040518592507f51a9d0860a9b8ef69e7cd2cc93e90cff1b4cf1433a5cffbe7394d0aa6f994b329150600090a26000838152600160208190526040822080546001600160a01b031990811682559181018390556002810183905560038101805460ff191690556004810183905560058101805490921690915560060155610a6083611321565b50610a6b6001600055565b5050565b60606002805480602002602001604051908101604052809291908181526020018280548015610abd57602002820191906000526020600020905b815481526020019060010190808311610aa9575b5050505050905090565b600081815260016020526040902060030154819060ff16610b1b5760405162461bcd60e51b815260206004820152600e60248201526d2737ba1030b71030bab1ba34b7b760911b60448201526064016103f2565b6000818152600160205260409020600401544210610b6b5760405162461bcd60e51b815260206004820152600d60248201526c105d58dd1a5bdb88195b991959609a1b60448201526064016103f2565b60008281526001602052604081206006810154909190610b9190655af3107a40006115c3565b905080341015610c095760405162461bcd60e51b815260206004820152603860248201527f426964206d757374206265206174206c6561737420302e30303031204554482060448201527f686967686572207468616e2070726576696f757320626964000000000000000060648201526084016103f2565b60058201546001600160a01b031615610c5357600682015460058301546001600160a01b031660009081526003602052604081208054909190610c4d9084906115c3565b90915550505b34600683018190556005830180546001600160a01b031916339081179091556040519182529085907fbfbf2db1f7880e9487cbceeb181c4dce363d0ad1b6e73f5aa494ffb5d91914969060200160405180910390a350505050565b610cb66112f7565b6000818152600160205260409020600381015460ff1615610d3f5760405162461bcd60e51b815260206004820152603760248201527f506f6b656d6f6e206973206c697374656420666f7220616e2061756374696f6e60448201527f2c206e6f7420666f72206120666978656420707269636500000000000000000060648201526084016103f2565b8060020154341015610d935760405162461bcd60e51b815260206004820152601e60248201527f496e73756666696369656e742066756e647320746f207075726368617365000060448201526064016103f2565b80546001600160a01b0316610de35760405162461bcd60e51b8152602060048201526016602482015275131a5cdd1a5b99c8191bd95cc81b9bdd08195e1a5cdd60521b60448201526064016103f2565b600554604051632142170760e11b81526001600160a01b03909116906342842e0e90610e17903090339087906004016115dc565b600060405180830381600087803b158015610e3157600080fd5b505af1158015610e45573d6000803e3d6000fd5b505082546040516001600160a01b0390911692503480156108fc029250906000818181858888f19350505050158015610e82573d6000803e3d6000fd5b50336001600160a01b0316827fe89ee650d68ca71d565381bf8c4b50ef47da5452d8df24d949380bee65d337578360020154604051610ec391815260200190565b60405180910390a36000828152600160208190526040822080546001600160a01b031990811682559181018390556002810183905560038101805460ff191690556004810183905560058101805490921690915560060155610f2482611321565b60405182907f51a9d0860a9b8ef69e7cd2cc93e90cff1b4cf1433a5cffbe7394d0aa6f994b3290600090a250610f5a6001600055565b50565b60028181548110610f6d57600080fd5b600091825260209091200154905081565b610f866112f7565b6000818152600160205260409020600381015460ff16610fd95760405162461bcd60e51b815260206004820152600e60248201526d2737ba1030b71030bab1ba34b7b760911b60448201526064016103f2565b80600401544210156110215760405162461bcd60e51b8152602060048201526011602482015270105d58dd1a5bdb881b9bdd08195b991959607a1b60448201526064016103f2565b60008281526004602052604090205460058201546001600160a01b03166110f5576005548254604051632142170760e11b81526001600160a01b03928316926342842e0e9261107a9230929091169088906004016115dc565b600060405180830381600087803b15801561109457600080fd5b505af11580156110a8573d6000803e3d6000fd5b50508354604051600081526001600160a01b0390911692508591507fe89ee650d68ca71d565381bf8c4b50ef47da5452d8df24d949380bee65d337579060200160405180910390a36111ec565b6005805490830154604051632142170760e11b81526001600160a01b03928316926342842e0e926111309230929091169088906004016115dc565b600060405180830381600087803b15801561114a57600080fd5b505af115801561115e573d6000803e3d6000fd5b5050835460068501546040516001600160a01b03909216935080156108fc029250906000818181858888f1935050505015801561119f573d6000803e3d6000fd5b50600582015460068301546040519081526001600160a01b039091169084907fe89ee650d68ca71d565381bf8c4b50ef47da5452d8df24d949380bee65d337579060200160405180910390a35b801561125a57604051339082156108fc029083906000818181858888f1935050505015801561121f573d6000803e3d6000fd5b5060408051338152602081018390527fe2403640ba68fed3a2f88b7557551d1993f84b99bb10ff833f0cf8db0c5e0486910160405180910390a15b6000838152600160208190526040822080546001600160a01b031990811682559181018390556002810183905560038101805460ff1916905560048101839055600581018054909216909155600601556112b383611321565b6000838152600460205260408082208290555184917f51a9d0860a9b8ef69e7cd2cc93e90cff1b4cf1433a5cffbe7394d0aa6f994b3291a25050610f5a6001600055565b60026000540361131a57604051633ee5aeb560e01b815260040160405180910390fd5b6002600055565b60025460005b818110156113ce57826002828154811061134357611343611600565b9060005260206000200154036113c6576002611360600184611616565b8154811061137057611370611600565b90600052602060002001546002828154811061138e5761138e611600565b60009182526020909120015560028054806113ab576113ab611629565b60019003818190600052602060002001600090559055505050565b600101611327565b505050565b600080600080608085870312156113e957600080fd5b84359350602085013592506040850135801515811461140757600080fd5b9396929550929360600135925050565b6001600160a01b0381168114610f5a57600080fd5b60008060008060006080868803121561144457600080fd5b853561144f81611417565b9450602086013561145f81611417565b935060408601359250606086013567ffffffffffffffff81111561148257600080fd5b8601601f8101881361149357600080fd5b803567ffffffffffffffff8111156114aa57600080fd5b8860208284010111156114bc57600080fd5b959894975092955050506020019190565b6000602082840312156114df57600080fd5b5035919050565b602080825282518282018190526000918401906040840190835b8181101561151e578351835260209384019390920191600101611500565b509095945050505050565b60006020828403121561153b57600080fd5b813561154681611417565b9392505050565b60006020828403121561155f57600080fd5b815161154681611417565b60208082526023908201527f596f75206d757374206f776e2074686520506f6b656d6f6e20746f206c697374604082015262081a5d60ea1b606082015260800190565b634e487b7160e01b600052601160045260246000fd5b808201808211156115d6576115d66115ad565b92915050565b6001600160a01b039384168152919092166020820152604081019190915260600190565b634e487b7160e01b600052603260045260246000fd5b818103818111156115d6576115d66115ad565b634e487b7160e01b600052603160045260246000fdfea26469706673582212206ab251371374a72992d581c430675b7927ab8fa6c6e5739485c00fd21a08d17664736f6c634300081c0033",
  "linkReferences": {},
  "deployedLinkReferences": {}
}